{"abi":[{"type":"constructor","inputs":[],"stateMutability":"nonpayable"},{"type":"function","name":"balanceOf","inputs":[{"name":"account","type":"address","internalType":"address"},{"name":"id","type":"uint256","internalType":"uint256"}],"outputs":[{"name":"","type":"uint256","internalType":"uint256"}],"stateMutability":"view"},{"type":"function","name":"balanceOfBatch","inputs":[{"name":"accounts","type":"address[]","internalType":"address[]"},{"name":"ids","type":"uint256[]","internalType":"uint256[]"}],"outputs":[{"name":"","type":"uint256[]","internalType":"uint256[]"}],"stateMutability":"view"},{"type":"function","name":"getCurrentPrice","inputs":[],"outputs":[{"name":"","type":"uint256","internalType":"uint256"}],"stateMutability":"view"},{"type":"function","name":"getMintedNFTsCount","inputs":[],"outputs":[{"name":"","type":"uint256","internalType":"uint256"}],"stateMutability":"view"},{"type":"function","name":"getNextNFTPrice","inputs":[],"outputs":[{"name":"","type":"uint256","internalType":"uint256"}],"stateMutability":"view"},{"type":"function","name":"getTotalSupplyCap","inputs":[],"outputs":[{"name":"","type":"uint256","internalType":"uint256"}],"stateMutability":"view"},{"type":"function","name":"isApprovedForAll","inputs":[{"name":"account","type":"address","internalType":"address"},{"name":"operator","type":"address","internalType":"address"}],"outputs":[{"name":"","type":"bool","internalType":"bool"}],"stateMutability":"view"},{"type":"function","name":"mint","inputs":[{"name":"id","type":"uint256","internalType":"uint256"},{"name":"amount","type":"uint256","internalType":"uint256"}],"outputs":[],"stateMutability":"payable"},{"type":"function","name":"royaltyInfo","inputs":[{"name":"tokenId","type":"uint256","internalType":"uint256"},{"name":"salePrice","type":"uint256","internalType":"uint256"}],"outputs":[{"name":"receiver","type":"address","internalType":"address"},{"name":"royaltyAmount","type":"uint256","internalType":"uint256"}],"stateMutability":"view"},{"type":"function","name":"safeBatchTransferFrom","inputs":[{"name":"from","type":"address","internalType":"address"},{"name":"to","type":"address","internalType":"address"},{"name":"ids","type":"uint256[]","internalType":"uint256[]"},{"name":"values","type":"uint256[]","internalType":"uint256[]"},{"name":"data","type":"bytes","internalType":"bytes"}],"outputs":[],"stateMutability":"nonpayable"},{"type":"function","name":"safeTransferFrom","inputs":[{"name":"from","type":"address","internalType":"address"},{"name":"to","type":"address","internalType":"address"},{"name":"id","type":"uint256","internalType":"uint256"},{"name":"value","type":"uint256","internalType":"uint256"},{"name":"data","type":"bytes","internalType":"bytes"}],"outputs":[],"stateMutability":"nonpayable"},{"type":"function","name":"setApprovalForAll","inputs":[{"name":"operator","type":"address","internalType":"address"},{"name":"approved","type":"bool","internalType":"bool"}],"outputs":[],"stateMutability":"nonpayable"},{"type":"function","name":"setOwner","inputs":[{"name":"_owner","type":"address","internalType":"address"}],"outputs":[],"stateMutability":"nonpayable"},{"type":"function","name":"setURI","inputs":[{"name":"newuri","type":"string","internalType":"string"}],"outputs":[],"stateMutability":"nonpayable"},{"type":"function","name":"supportsInterface","inputs":[{"name":"interfaceId","type":"bytes4","internalType":"bytes4"}],"outputs":[{"name":"","type":"bool","internalType":"bool"}],"stateMutability":"view"},{"type":"function","name":"totalSupply","inputs":[],"outputs":[{"name":"","type":"uint256","internalType":"uint256"}],"stateMutability":"view"},{"type":"function","name":"uri","inputs":[{"name":"","type":"uint256","internalType":"uint256"}],"outputs":[{"name":"","type":"string","internalType":"string"}],"stateMutability":"view"},{"type":"function","name":"withdraw","inputs":[],"outputs":[],"stateMutability":"nonpayable"},{"type":"event","name":"ApprovalForAll","inputs":[{"name":"account","type":"address","indexed":true,"internalType":"address"},{"name":"operator","type":"address","indexed":true,"internalType":"address"},{"name":"approved","type":"bool","indexed":false,"internalType":"bool"}],"anonymous":false},{"type":"event","name":"TransferBatch","inputs":[{"name":"operator","type":"address","indexed":true,"internalType":"address"},{"name":"from","type":"address","indexed":true,"internalType":"address"},{"name":"to","type":"address","indexed":true,"internalType":"address"},{"name":"ids","type":"uint256[]","indexed":false,"internalType":"uint256[]"},{"name":"values","type":"uint256[]","indexed":false,"internalType":"uint256[]"}],"anonymous":false},{"type":"event","name":"TransferSingle","inputs":[{"name":"operator","type":"address","indexed":true,"internalType":"address"},{"name":"from","type":"address","indexed":true,"internalType":"address"},{"name":"to","type":"address","indexed":true,"internalType":"address"},{"name":"id","type":"uint256","indexed":false,"internalType":"uint256"},{"name":"value","type":"uint256","indexed":false,"internalType":"uint256"}],"anonymous":false},{"type":"event","name":"URI","inputs":[{"name":"value","type":"string","indexed":false,"internalType":"string"},{"name":"id","type":"uint256","indexed":true,"internalType":"uint256"}],"anonymous":false},{"type":"error","name":"ERC1155InsufficientBalance","inputs":[{"name":"sender","type":"address","internalType":"address"},{"name":"balance","type":"uint256","internalType":"uint256"},{"name":"needed","type":"uint256","internalType":"uint256"},{"name":"tokenId","type":"uint256","internalType":"uint256"}]},{"type":"error","name":"ERC1155InvalidApprover","inputs":[{"name":"approver","type":"address","internalType":"address"}]},{"type":"error","name":"ERC1155InvalidArrayLength","inputs":[{"name":"idsLength","type":"uint256","internalType":"uint256"},{"name":"valuesLength","type":"uint256","internalType":"uint256"}]},{"type":"error","name":"ERC1155InvalidOperator","inputs":[{"name":"operator","type":"address","internalType":"address"}]},{"type":"error","name":"ERC1155InvalidReceiver","inputs":[{"name":"receiver","type":"address","internalType":"address"}]},{"type":"error","name":"ERC1155InvalidSender","inputs":[{"name":"sender","type":"address","internalType":"address"}]},{"type":"error","name":"ERC1155MissingApprovalForAll","inputs":[{"name":"operator","type":"address","internalType":"address"},{"name":"owner","type":"address","internalType":"address"}]}],"bytecode":{"object":"0x60806040523480156200001157600080fd5b506040518060c00160405280609f815260200162001aa6609f9139620000378162000055565b50600380546001600160a01b031916331790556000600455620001da565b60026200006382826200010e565b5050565b634e487b7160e01b600052604160045260246000fd5b600181811c908216806200009257607f821691505b602082108103620000b357634e487b7160e01b600052602260045260246000fd5b50919050565b601f82111562000109576000816000526020600020601f850160051c81016020861015620000e45750805b601f850160051c820191505b818110156200010557828155600101620000f0565b5050505b505050565b81516001600160401b038111156200012a576200012a62000067565b62000142816200013b84546200007d565b84620000b9565b602080601f8311600181146200017a5760008415620001615750858301515b600019600386901b1c1916600185901b17855562000105565b600085815260208120601f198616915b82811015620001ab578886015182559484019460019091019084016200018a565b5085821015620001ca5787850151600019600388901b60f8161c191681555b5050505050600190811b01905550565b6118bc80620001ea6000396000f3fe6080604052600436106101085760003560e01c80633ccfd60b11610095578063e38f18f211610064578063e38f18f2146102de578063e88fa189146102f3578063e985e9c514610308578063eb91d37e14610328578063f242432a1461033d57600080fd5b80633ccfd60b146102675780634e1273f41461027c578063a22cb465146102a9578063d5f129ad146102c957600080fd5b806313af4035116100dc57806313af4035146101bf57806318160ddd146101df5780631b2ef1ca146101f55780632a55205a146102085780632eb2c2d61461024757600080fd5b8062fdd58e1461010d57806301ffc9a71461014057806302fe5305146101705780630e89341c14610192575b600080fd5b34801561011957600080fd5b5061012d610128366004610fc6565b61035d565b6040519081526020015b60405180910390f35b34801561014c57600080fd5b5061016061015b366004611006565b610385565b6040519015158152602001610137565b34801561017c57600080fd5b5061019061018b3660046110c9565b6103aa565b005b34801561019e57600080fd5b506101b26101ad36600461111a565b6103e9565b6040516101379190611179565b3480156101cb57600080fd5b506101906101da36600461118c565b61040a565b3480156101eb57600080fd5b5061012d60045481565b6101906102033660046111a7565b610456565b34801561021457600080fd5b506102286102233660046111a7565b610551565b604080516001600160a01b039093168352602083019190915201610137565b34801561025357600080fd5b5061019061026236600461127c565b610583565b34801561027357600080fd5b506101906105ea565b34801561028857600080fd5b5061029c610297366004611326565b61064d565b6040516101379190611422565b3480156102b557600080fd5b506101906102c4366004611435565b61071a565b3480156102d557600080fd5b5060045461012d565b3480156102ea57600080fd5b5061012d610729565b3480156102ff57600080fd5b5061177061012d565b34801561031457600080fd5b50610160610323366004611471565b6107f7565b34801561033457600080fd5b5061012d610825565b34801561034957600080fd5b5061019061035836600461149b565b610893565b6000818152602081815260408083206001600160a01b03861684529091529020545b92915050565b60006001600160e01b0319821663152a902d60e11b148061037f575061037f826108f2565b6003546001600160a01b031633146103dd5760405162461bcd60e51b81526004016103d490611500565b60405180910390fd5b6103e681610942565b50565b60606040518060c00160405280609f81526020016117e8609f913992915050565b6003546001600160a01b031633146104345760405162461bcd60e51b81526004016103d490611500565b600380546001600160a01b0319166001600160a01b0392909216919091179055565b61177081600454610467919061153d565b11156104b55760405162461bcd60e51b815260206004820152601860248201527f4578636565647320746f74616c20737570706c7920636170000000000000000060448201526064016103d4565b60006104bf610825565b90506104cb8183611550565b34101561051a5760405162461bcd60e51b815260206004820152601960248201527f45746865722073656e74206973206e6f7420636f72726563740000000000000060448201526064016103d4565b6105353384846040518060200160405280600081525061094e565b8160046000828254610547919061153d565b9091555050505050565b600380546001600160a01b031690600090606490610570908590611550565b61057a9190611567565b90509250929050565b336001600160a01b03861681148015906105a457506105a286826107f7565b155b156105d55760405163711bec9160e11b81526001600160a01b038083166004830152871660248201526044016103d4565b6105e286868686866109ab565b505050505050565b6003546001600160a01b031633146106145760405162461bcd60e51b81526004016103d490611500565b6003546040516001600160a01b03909116904780156108fc02916000818181858888f193505050501580156103e6573d6000803e3d6000fd5b6060815183511461067e5781518351604051635b05999160e01b8152600481019290925260248201526044016103d4565b6000835167ffffffffffffffff81111561069a5761069a61102a565b6040519080825280602002602001820160405280156106c3578160200160208202803683370190505b50905060005b8451811015610712576020808202860101516106ed9060208084028701015161035d565b8282815181106106ff576106ff611589565b60209081029190910101526001016106c9565b509392505050565b610725338383610a12565b5050565b600080600454600161073b919061153d565b905061177081116107ba576103e8811161075d5766f8b0a10e47000091505090565b60006101f460016107706103e88561159f565b61077a919061159f565b6107849190611567565b61078f90600161153d565b90506107a26618de76816d800082611550565b6107b39066f8b0a10e47000061153d565b9250505090565b60405162461bcd60e51b815260206004820152601260248201527113585e081cdd5c1c1b1e481c995858da195960721b60448201526064016103d4565b6001600160a01b03918216600090815260016020908152604080832093909416825291909152205460ff1690565b60006103e8600454101561083f575066f8b0a10e47000090565b60006101f46103e8600454610854919061159f565b61085e9190611567565b61086990600161153d565b905061087c6618de76816d800082611550565b61088d9066f8b0a10e47000061153d565b91505090565b336001600160a01b03861681148015906108b457506108b286826107f7565b155b156108e55760405163711bec9160e11b81526001600160a01b038083166004830152871660248201526044016103d4565b6105e28686868686610aa8565b60006001600160e01b03198216636cdb3d1360e11b148061092357506001600160e01b031982166303a24d0760e21b145b8061037f57506301ffc9a760e01b6001600160e01b031983161461037f565b60026107258282611639565b6001600160a01b03841661097857604051632bfa23e760e11b8152600060048201526024016103d4565b604080516001808252602082018690528183019081526060820185905260808201909252906105e2600087848487610b36565b6001600160a01b0384166109d557604051632bfa23e760e11b8152600060048201526024016103d4565b6001600160a01b0385166109fe57604051626a0d4560e21b8152600060048201526024016103d4565b610a0b8585858585610b36565b5050505050565b6001600160a01b038216610a3b5760405162ced3e160e81b8152600060048201526024016103d4565b6001600160a01b03838116600081815260016020908152604080832094871680845294825291829020805460ff191686151590811790915591519182527f17307eab39ab6107e8899845ad3d59bd9653f200f220920489ca2b5937696c31910160405180910390a3505050565b6001600160a01b038416610ad257604051632bfa23e760e11b8152600060048201526024016103d4565b6001600160a01b038516610afb57604051626a0d4560e21b8152600060048201526024016103d4565b60408051600180825260208201869052818301908152606082018590526080820190925290610b2d8787848487610b36565b50505050505050565b610b4285858585610b89565b6001600160a01b03841615610a0b5782513390600103610b7b5760208481015190840151610b74838989858589610d9d565b50506105e2565b6105e2818787878787610ec1565b8051825114610bb85781518151604051635b05999160e01b8152600481019290925260248201526044016103d4565b3360005b8351811015610cbe576020818102858101820151908501909101516001600160a01b03881615610c6f576000828152602081815260408083206001600160a01b038c16845290915290205481811015610c48576040516303dee4c560e01b81526001600160a01b038a1660048201526024810182905260448101839052606481018490526084016103d4565b6000838152602081815260408083206001600160a01b038d16845290915290209082900390555b6001600160a01b03871615610cb4576000828152602081815260408083206001600160a01b038b16845290915281208054839290610cae90849061153d565b90915550505b5050600101610bbc565b508251600103610d3f5760208301516000906020840151909150856001600160a01b0316876001600160a01b0316846001600160a01b03167fc3d58168c5ae7397731d063d5bbf3d657854427343f4c083240f7aacaa2d0f628585604051610d30929190918252602082015260400190565b60405180910390a45050610a0b565b836001600160a01b0316856001600160a01b0316826001600160a01b03167f4a39dc06d4c0dbc64b70af90fd698a233a518aa5d07e595d983b8c0526c8f7fb8686604051610d8e9291906116f9565b60405180910390a45050505050565b6001600160a01b0384163b156105e25760405163f23a6e6160e01b81526001600160a01b0385169063f23a6e6190610de19089908990889088908890600401611727565b6020604051808303816000875af1925050508015610e1c575060408051601f3d908101601f19168201909252610e199181019061176c565b60015b610e85573d808015610e4a576040519150601f19603f3d011682016040523d82523d6000602084013e610e4f565b606091505b508051600003610e7d57604051632bfa23e760e11b81526001600160a01b03861660048201526024016103d4565b805181602001fd5b6001600160e01b0319811663f23a6e6160e01b14610b2d57604051632bfa23e760e11b81526001600160a01b03861660048201526024016103d4565b6001600160a01b0384163b156105e25760405163bc197c8160e01b81526001600160a01b0385169063bc197c8190610f059089908990889088908890600401611789565b6020604051808303816000875af1925050508015610f40575060408051601f3d908101601f19168201909252610f3d9181019061176c565b60015b610f6e573d808015610e4a576040519150601f19603f3d011682016040523d82523d6000602084013e610e4f565b6001600160e01b0319811663bc197c8160e01b14610b2d57604051632bfa23e760e11b81526001600160a01b03861660048201526024016103d4565b80356001600160a01b0381168114610fc157600080fd5b919050565b60008060408385031215610fd957600080fd5b610fe283610faa565b946020939093013593505050565b6001600160e01b0319811681146103e657600080fd5b60006020828403121561101857600080fd5b813561102381610ff0565b9392505050565b634e487b7160e01b600052604160045260246000fd5b604051601f8201601f1916810167ffffffffffffffff811182821017156110695761106961102a565b604052919050565b600067ffffffffffffffff83111561108b5761108b61102a565b61109e601f8401601f1916602001611040565b90508281528383830111156110b257600080fd5b828260208301376000602084830101529392505050565b6000602082840312156110db57600080fd5b813567ffffffffffffffff8111156110f257600080fd5b8201601f8101841361110357600080fd5b61111284823560208401611071565b949350505050565b60006020828403121561112c57600080fd5b5035919050565b6000815180845260005b818110156111595760208185018101518683018201520161113d565b506000602082860101526020601f19601f83011685010191505092915050565b6020815260006110236020830184611133565b60006020828403121561119e57600080fd5b61102382610faa565b600080604083850312156111ba57600080fd5b50508035926020909101359150565b600067ffffffffffffffff8211156111e3576111e361102a565b5060051b60200190565b600082601f8301126111fe57600080fd5b8135602061121361120e836111c9565b611040565b8083825260208201915060208460051b87010193508684111561123557600080fd5b602086015b84811015611251578035835291830191830161123a565b509695505050505050565b600082601f83011261126d57600080fd5b61102383833560208501611071565b600080600080600060a0868803121561129457600080fd5b61129d86610faa565b94506112ab60208701610faa565b9350604086013567ffffffffffffffff808211156112c857600080fd5b6112d489838a016111ed565b945060608801359150808211156112ea57600080fd5b6112f689838a016111ed565b9350608088013591508082111561130c57600080fd5b506113198882890161125c565b9150509295509295909350565b6000806040838503121561133957600080fd5b823567ffffffffffffffff8082111561135157600080fd5b818501915085601f83011261136557600080fd5b8135602061137561120e836111c9565b82815260059290921b8401810191818101908984111561139457600080fd5b948201945b838610156113b9576113aa86610faa565b82529482019490820190611399565b965050860135925050808211156113cf57600080fd5b506113dc858286016111ed565b9150509250929050565b60008151808452602080850194506020840160005b83811015611417578151875295820195908201906001016113fb565b509495945050505050565b60208152600061102360208301846113e6565b6000806040838503121561144857600080fd5b61145183610faa565b91506020830135801515811461146657600080fd5b809150509250929050565b6000806040838503121561148457600080fd5b61148d83610faa565b915061057a60208401610faa565b600080600080600060a086880312156114b357600080fd5b6114bc86610faa565b94506114ca60208701610faa565b93506040860135925060608601359150608086013567ffffffffffffffff8111156114f457600080fd5b6113198882890161125c565b6020808252600d908201526c2737ba103a34329037bbb732b960991b604082015260600190565b634e487b7160e01b600052601160045260246000fd5b8082018082111561037f5761037f611527565b808202811582820484141761037f5761037f611527565b60008261158457634e487b7160e01b600052601260045260246000fd5b500490565b634e487b7160e01b600052603260045260246000fd5b8181038181111561037f5761037f611527565b600181811c908216806115c657607f821691505b6020821081036115e657634e487b7160e01b600052602260045260246000fd5b50919050565b601f821115611634576000816000526020600020601f850160051c810160208610156116155750805b601f850160051c820191505b818110156105e257828155600101611621565b505050565b815167ffffffffffffffff8111156116535761165361102a565b6116678161166184546115b2565b846115ec565b602080601f83116001811461169c57600084156116845750858301515b600019600386901b1c1916600185901b1785556105e2565b600085815260208120601f198616915b828110156116cb578886015182559484019460019091019084016116ac565b50858210156116e95787850151600019600388901b60f8161c191681555b5050505050600190811b01905550565b60408152600061170c60408301856113e6565b828103602084015261171e81856113e6565b95945050505050565b6001600160a01b03868116825285166020820152604081018490526060810183905260a06080820181905260009061176190830184611133565b979650505050505050565b60006020828403121561177e57600080fd5b815161102381610ff0565b6001600160a01b0386811682528516602082015260a0604082018190526000906117b5908301866113e6565b82810360608401526117c781866113e6565b905082810360808401526117db8185611133565b9897505050505050505056fe68747470733a2f2f6d656469612e6973746f636b70686f746f2e636f6d2f69642f313438363335373539382f70686f746f2f636f617374616c2d62726f776e2d626561722d66697368696e672d696e2d6b61746d61692e6a70673f733d31303234783130323426773d6973266b3d323026633d434458697349314e46706d48346f442d546d575667474366445555756f53396a52755f6b7a7a50436530673da264697066735822122066989938b61c1d1108e9c6bca019933e4538c592973dd95caaadcd95238e7c5e64736f6c6343000818003368747470733a2f2f6d656469612e6973746f636b70686f746f2e636f6d2f69642f313438363335373539382f70686f746f2f636f617374616c2d62726f776e2d626561722d66697368696e672d696e2d6b61746d61692e6a70673f733d31303234783130323426773d6973266b3d323026633d434458697349314e46706d48346f442d546d575667474366445555756f53396a52755f6b7a7a50436530673d","linkReferences":{}},"methodIdentifiers":{"balanceOf(address,uint256)":"00fdd58e","balanceOfBatch(address[],uint256[])":"4e1273f4","getCurrentPrice()":"eb91d37e","getMintedNFTsCount()":"d5f129ad","getNextNFTPrice()":"e38f18f2","getTotalSupplyCap()":"e88fa189","isApprovedForAll(address,address)":"e985e9c5","mint(uint256,uint256)":"1b2ef1ca","royaltyInfo(uint256,uint256)":"2a55205a","safeBatchTransferFrom(address,address,uint256[],uint256[],bytes)":"2eb2c2d6","safeTransferFrom(address,address,uint256,uint256,bytes)":"f242432a","setApprovalForAll(address,bool)":"a22cb465","setOwner(address)":"13af4035","setURI(string)":"02fe5305","supportsInterface(bytes4)":"01ffc9a7","totalSupply()":"18160ddd","uri(uint256)":"0e89341c","withdraw()":"3ccfd60b"},"id":44}