{
  "abi": [
    {
      "inputs": [],
      "stateMutability": "nonpayable",
      "type": "constructor"
    },
    {
      "inputs": [
        {
          "internalType": "address",
          "name": "sender",
          "type": "address"
        },
        {
          "internalType": "uint256",
          "name": "balance",
          "type": "uint256"
        },
        {
          "internalType": "uint256",
          "name": "needed",
          "type": "uint256"
        },
        {
          "internalType": "uint256",
          "name": "tokenId",
          "type": "uint256"
        }
      ],
      "name": "ERC1155InsufficientBalance",
      "type": "error"
    },
    {
      "inputs": [
        {
          "internalType": "address",
          "name": "approver",
          "type": "address"
        }
      ],
      "name": "ERC1155InvalidApprover",
      "type": "error"
    },
    {
      "inputs": [
        {
          "internalType": "uint256",
          "name": "idsLength",
          "type": "uint256"
        },
        {
          "internalType": "uint256",
          "name": "valuesLength",
          "type": "uint256"
        }
      ],
      "name": "ERC1155InvalidArrayLength",
      "type": "error"
    },
    {
      "inputs": [
        {
          "internalType": "address",
          "name": "operator",
          "type": "address"
        }
      ],
      "name": "ERC1155InvalidOperator",
      "type": "error"
    },
    {
      "inputs": [
        {
          "internalType": "address",
          "name": "receiver",
          "type": "address"
        }
      ],
      "name": "ERC1155InvalidReceiver",
      "type": "error"
    },
    {
      "inputs": [
        {
          "internalType": "address",
          "name": "sender",
          "type": "address"
        }
      ],
      "name": "ERC1155InvalidSender",
      "type": "error"
    },
    {
      "inputs": [
        {
          "internalType": "address",
          "name": "operator",
          "type": "address"
        },
        {
          "internalType": "address",
          "name": "owner",
          "type": "address"
        }
      ],
      "name": "ERC1155MissingApprovalForAll",
      "type": "error"
    },
    {
      "anonymous": false,
      "inputs": [
        {
          "indexed": true,
          "internalType": "address",
          "name": "account",
          "type": "address"
        },
        {
          "indexed": true,
          "internalType": "address",
          "name": "operator",
          "type": "address"
        },
        {
          "indexed": false,
          "internalType": "bool",
          "name": "approved",
          "type": "bool"
        }
      ],
      "name": "ApprovalForAll",
      "type": "event"
    },
    {
      "anonymous": false,
      "inputs": [
        {
          "indexed": true,
          "internalType": "address",
          "name": "operator",
          "type": "address"
        },
        {
          "indexed": true,
          "internalType": "address",
          "name": "from",
          "type": "address"
        },
        {
          "indexed": true,
          "internalType": "address",
          "name": "to",
          "type": "address"
        },
        {
          "indexed": false,
          "internalType": "uint256[]",
          "name": "ids",
          "type": "uint256[]"
        },
        {
          "indexed": false,
          "internalType": "uint256[]",
          "name": "values",
          "type": "uint256[]"
        }
      ],
      "name": "TransferBatch",
      "type": "event"
    },
    {
      "anonymous": false,
      "inputs": [
        {
          "indexed": true,
          "internalType": "address",
          "name": "operator",
          "type": "address"
        },
        {
          "indexed": true,
          "internalType": "address",
          "name": "from",
          "type": "address"
        },
        {
          "indexed": true,
          "internalType": "address",
          "name": "to",
          "type": "address"
        },
        {
          "indexed": false,
          "internalType": "uint256",
          "name": "id",
          "type": "uint256"
        },
        {
          "indexed": false,
          "internalType": "uint256",
          "name": "value",
          "type": "uint256"
        }
      ],
      "name": "TransferSingle",
      "type": "event"
    },
    {
      "anonymous": false,
      "inputs": [
        {
          "indexed": false,
          "internalType": "string",
          "name": "value",
          "type": "string"
        },
        {
          "indexed": true,
          "internalType": "uint256",
          "name": "id",
          "type": "uint256"
        }
      ],
      "name": "URI",
      "type": "event"
    },
    {
      "inputs": [
        {
          "internalType": "address",
          "name": "account",
          "type": "address"
        },
        {
          "internalType": "uint256",
          "name": "id",
          "type": "uint256"
        }
      ],
      "name": "balanceOf",
      "outputs": [
        {
          "internalType": "uint256",
          "name": "",
          "type": "uint256"
        }
      ],
      "stateMutability": "view",
      "type": "function"
    },
    {
      "inputs": [
        {
          "internalType": "address[]",
          "name": "accounts",
          "type": "address[]"
        },
        {
          "internalType": "uint256[]",
          "name": "ids",
          "type": "uint256[]"
        }
      ],
      "name": "balanceOfBatch",
      "outputs": [
        {
          "internalType": "uint256[]",
          "name": "",
          "type": "uint256[]"
        }
      ],
      "stateMutability": "view",
      "type": "function"
    },
    {
      "inputs": [],
      "name": "getCurrentPrice",
      "outputs": [
        {
          "internalType": "uint256",
          "name": "",
          "type": "uint256"
        }
      ],
      "stateMutability": "view",
      "type": "function"
    },
    {
      "inputs": [],
      "name": "getMintedNFTsCount",
      "outputs": [
        {
          "internalType": "uint256",
          "name": "",
          "type": "uint256"
        }
      ],
      "stateMutability": "view",
      "type": "function"
    },
    {
      "inputs": [],
      "name": "getNextNFTPrice",
      "outputs": [
        {
          "internalType": "uint256",
          "name": "",
          "type": "uint256"
        }
      ],
      "stateMutability": "view",
      "type": "function"
    },
    {
      "inputs": [],
      "name": "getTotalSupplyCap",
      "outputs": [
        {
          "internalType": "uint256",
          "name": "",
          "type": "uint256"
        }
      ],
      "stateMutability": "view",
      "type": "function"
    },
    {
      "inputs": [
        {
          "internalType": "address",
          "name": "account",
          "type": "address"
        },
        {
          "internalType": "address",
          "name": "operator",
          "type": "address"
        }
      ],
      "name": "isApprovedForAll",
      "outputs": [
        {
          "internalType": "bool",
          "name": "",
          "type": "bool"
        }
      ],
      "stateMutability": "view",
      "type": "function"
    },
    {
      "inputs": [
        {
          "internalType": "uint256",
          "name": "id",
          "type": "uint256"
        },
        {
          "internalType": "uint256",
          "name": "amount",
          "type": "uint256"
        }
      ],
      "name": "mint",
      "outputs": [],
      "stateMutability": "payable",
      "type": "function"
    },
    {
      "inputs": [],
      "name": "owner",
      "outputs": [
        {
          "internalType": "address",
          "name": "",
          "type": "address"
        }
      ],
      "stateMutability": "view",
      "type": "function"
    },
    {
      "inputs": [
        {
          "internalType": "uint256",
          "name": "tokenId",
          "type": "uint256"
        },
        {
          "internalType": "uint256",
          "name": "salePrice",
          "type": "uint256"
        }
      ],
      "name": "royaltyInfo",
      "outputs": [
        {
          "internalType": "address",
          "name": "receiver",
          "type": "address"
        },
        {
          "internalType": "uint256",
          "name": "royaltyAmount",
          "type": "uint256"
        }
      ],
      "stateMutability": "view",
      "type": "function"
    },
    {
      "inputs": [
        {
          "internalType": "address",
          "name": "from",
          "type": "address"
        },
        {
          "internalType": "address",
          "name": "to",
          "type": "address"
        },
        {
          "internalType": "uint256[]",
          "name": "ids",
          "type": "uint256[]"
        },
        {
          "internalType": "uint256[]",
          "name": "values",
          "type": "uint256[]"
        },
        {
          "internalType": "bytes",
          "name": "data",
          "type": "bytes"
        }
      ],
      "name": "safeBatchTransferFrom",
      "outputs": [],
      "stateMutability": "nonpayable",
      "type": "function"
    },
    {
      "inputs": [
        {
          "internalType": "address",
          "name": "from",
          "type": "address"
        },
        {
          "internalType": "address",
          "name": "to",
          "type": "address"
        },
        {
          "internalType": "uint256",
          "name": "id",
          "type": "uint256"
        },
        {
          "internalType": "uint256",
          "name": "value",
          "type": "uint256"
        },
        {
          "internalType": "bytes",
          "name": "data",
          "type": "bytes"
        }
      ],
      "name": "safeTransferFrom",
      "outputs": [],
      "stateMutability": "nonpayable",
      "type": "function"
    },
    {
      "inputs": [
        {
          "internalType": "address",
          "name": "operator",
          "type": "address"
        },
        {
          "internalType": "bool",
          "name": "approved",
          "type": "bool"
        }
      ],
      "name": "setApprovalForAll",
      "outputs": [],
      "stateMutability": "nonpayable",
      "type": "function"
    },
    {
      "inputs": [
        {
          "internalType": "address",
          "name": "_owner",
          "type": "address"
        }
      ],
      "name": "setOwner",
      "outputs": [],
      "stateMutability": "nonpayable",
      "type": "function"
    },
    {
      "inputs": [
        {
          "internalType": "string",
          "name": "newuri",
          "type": "string"
        }
      ],
      "name": "setURI",
      "outputs": [],
      "stateMutability": "nonpayable",
      "type": "function"
    },
    {
      "inputs": [
        {
          "internalType": "bytes4",
          "name": "interfaceId",
          "type": "bytes4"
        }
      ],
      "name": "supportsInterface",
      "outputs": [
        {
          "internalType": "bool",
          "name": "",
          "type": "bool"
        }
      ],
      "stateMutability": "view",
      "type": "function"
    },
    {
      "inputs": [],
      "name": "totalSupply",
      "outputs": [
        {
          "internalType": "uint256",
          "name": "",
          "type": "uint256"
        }
      ],
      "stateMutability": "view",
      "type": "function"
    },
    {
      "inputs": [
        {
          "internalType": "uint256",
          "name": "",
          "type": "uint256"
        }
      ],
      "name": "uri",
      "outputs": [
        {
          "internalType": "string",
          "name": "",
          "type": "string"
        }
      ],
      "stateMutability": "view",
      "type": "function"
    },
    {
      "inputs": [],
      "name": "withdraw",
      "outputs": [],
      "stateMutability": "nonpayable",
      "type": "function"
    }
  ],
  "bytecode": {
    "object": "0x60806040523480156200001157600080fd5b506040518060c00160405280609f815260200162001b0a609f9139620000378162000055565b50600380546001600160a01b031916331790556000600455620001d8565b60026200006382826200010c565b5050565b634e487b7160e01b600052604160045260246000fd5b600181811c908216806200009257607f821691505b602082108103620000b357634e487b7160e01b600052602260045260246000fd5b50919050565b601f8211156200010757600081815260208120601f850160051c81016020861015620000e25750805b601f850160051c820191505b818110156200010357828155600101620000ee565b5050505b505050565b81516001600160401b0381111562000128576200012862000067565b62000140816200013984546200007d565b84620000b9565b602080601f8311600181146200017857600084156200015f5750858301515b600019600386901b1c1916600185901b17855562000103565b600085815260208120601f198616915b82811015620001a95788860151825594840194600190910190840162000188565b5085821015620001c85787850151600019600388901b60f8161c191681555b5050505050600190811b01905550565b61192280620001e86000396000f3fe6080604052600436106101135760003560e01c80633ccfd60b116100a0578063e38f18f211610064578063e38f18f214610321578063e88fa18914610336578063e985e9c51461034b578063eb91d37e1461036b578063f242432a1461038057600080fd5b80633ccfd60b146102725780634e1273f4146102875780638da5cb5b146102b4578063a22cb465146102ec578063d5f129ad1461030c57600080fd5b806313af4035116100e757806313af4035146101ca57806318160ddd146101ea5780631b2ef1ca146102005780632a55205a146102135780632eb2c2d61461025257600080fd5b8062fdd58e1461011857806301ffc9a71461014b57806302fe53051461017b5780630e89341c1461019d575b600080fd5b34801561012457600080fd5b5061013861013336600461101a565b6103a0565b6040519081526020015b60405180910390f35b34801561015757600080fd5b5061016b61016636600461105a565b6103c8565b6040519015158152602001610142565b34801561018757600080fd5b5061019b61019636600461111d565b6103ed565b005b3480156101a957600080fd5b506101bd6101b836600461116e565b61042c565b60405161014291906111cd565b3480156101d657600080fd5b5061019b6101e53660046111e0565b61044d565b3480156101f657600080fd5b5061013860045481565b61019b61020e3660046111fb565b610499565b34801561021f57600080fd5b5061023361022e3660046111fb565b610594565b604080516001600160a01b039093168352602083019190915201610142565b34801561025e57600080fd5b5061019b61026d3660046112cc565b6105c6565b34801561027e57600080fd5b5061019b61062d565b34801561029357600080fd5b506102a76102a2366004611376565b610690565b6040516101429190611471565b3480156102c057600080fd5b506003546102d4906001600160a01b031681565b6040516001600160a01b039091168152602001610142565b3480156102f857600080fd5b5061019b610307366004611484565b610765565b34801561031857600080fd5b50600454610138565b34801561032d57600080fd5b50610138610774565b34801561034257600080fd5b50611770610138565b34801561035757600080fd5b5061016b6103663660046114c0565b610842565b34801561037757600080fd5b50610138610870565b34801561038c57600080fd5b5061019b61039b3660046114ea565b6108de565b6000818152602081815260408083206001600160a01b03861684529091529020545b92915050565b60006001600160e01b0319821663152a902d60e11b14806103c257506103c28261093d565b6003546001600160a01b031633146104205760405162461bcd60e51b81526004016104179061154f565b60405180910390fd5b6104298161098d565b50565b60606040518060c00160405280609f815260200161184e609f913992915050565b6003546001600160a01b031633146104775760405162461bcd60e51b81526004016104179061154f565b600380546001600160a01b0319166001600160a01b0392909216919091179055565b611770816004546104aa919061158c565b11156104f85760405162461bcd60e51b815260206004820152601860248201527f4578636565647320746f74616c20737570706c792063617000000000000000006044820152606401610417565b6000610502610870565b905061050e818361159f565b34101561055d5760405162461bcd60e51b815260206004820152601960248201527f45746865722073656e74206973206e6f7420636f7272656374000000000000006044820152606401610417565b61057833848460405180602001604052806000815250610999565b816004600082825461058a919061158c565b9091555050505050565b600380546001600160a01b0316906000906064906105b390859061159f565b6105bd91906115b6565b90509250929050565b336001600160a01b03861681148015906105e757506105e58682610842565b155b156106185760405163711bec9160e11b81526001600160a01b03808316600483015287166024820152604401610417565b61062586868686866109f6565b505050505050565b6003546001600160a01b031633146106575760405162461bcd60e51b81526004016104179061154f565b6003546040516001600160a01b03909116904780156108fc02916000818181858888f19350505050158015610429573d6000803e3d6000fd5b606081518351146106c15781518351604051635b05999160e01b815260048101929092526024820152604401610417565b6000835167ffffffffffffffff8111156106dd576106dd61107e565b604051908082528060200260200182016040528015610706578160200160208202803683370190505b50905060005b845181101561075d57602080820286010151610730906020808402870101516103a0565b828281518110610742576107426115d8565b6020908102919091010152610756816115ee565b905061070c565b509392505050565b610770338383610a5d565b5050565b6000806004546001610786919061158c565b90506117708111610805576103e881116107a85766f8b0a10e47000091505090565b60006101f460016107bb6103e885611607565b6107c59190611607565b6107cf91906115b6565b6107da90600161158c565b90506107ed6618de76816d80008261159f565b6107fe9066f8b0a10e47000061158c565b9250505090565b60405162461bcd60e51b815260206004820152601260248201527113585e081cdd5c1c1b1e481c995858da195960721b6044820152606401610417565b6001600160a01b03918216600090815260016020908152604080832093909416825291909152205460ff1690565b60006103e8600454101561088a575066f8b0a10e47000090565b60006101f46103e860045461089f9190611607565b6108a991906115b6565b6108b490600161158c565b90506108c76618de76816d80008261159f565b6108d89066f8b0a10e47000061158c565b91505090565b336001600160a01b03861681148015906108ff57506108fd8682610842565b155b156109305760405163711bec9160e11b81526001600160a01b03808316600483015287166024820152604401610417565b6106258686868686610af3565b60006001600160e01b03198216636cdb3d1360e11b148061096e57506001600160e01b031982166303a24d0760e21b145b806103c257506301ffc9a760e01b6001600160e01b03198316146103c2565b6002610770828261169f565b6001600160a01b0384166109c357604051632bfa23e760e11b815260006004820152602401610417565b60408051600180825260208201869052818301908152606082018590526080820190925290610625600087848487610b81565b6001600160a01b038416610a2057604051632bfa23e760e11b815260006004820152602401610417565b6001600160a01b038516610a4957604051626a0d4560e21b815260006004820152602401610417565b610a568585858585610b81565b5050505050565b6001600160a01b038216610a865760405162ced3e160e81b815260006004820152602401610417565b6001600160a01b03838116600081815260016020908152604080832094871680845294825291829020805460ff191686151590811790915591519182527f17307eab39ab6107e8899845ad3d59bd9653f200f220920489ca2b5937696c31910160405180910390a3505050565b6001600160a01b038416610b1d57604051632bfa23e760e11b815260006004820152602401610417565b6001600160a01b038516610b4657604051626a0d4560e21b815260006004820152602401610417565b60408051600180825260208201869052818301908152606082018590526080820190925290610b788787848487610b81565b50505050505050565b610b8d85858585610bd4565b6001600160a01b03841615610a565782513390600103610bc65760208481015190840151610bbf838989858589610df1565b5050610625565b610625818787878787610f15565b8051825114610c035781518151604051635b05999160e01b815260048101929092526024820152604401610417565b3360005b8351811015610d12576020818102858101820151908501909101516001600160a01b03881615610cba576000828152602081815260408083206001600160a01b038c16845290915290205481811015610c93576040516303dee4c560e01b81526001600160a01b038a166004820152602481018290526044810183905260648101849052608401610417565b6000838152602081815260408083206001600160a01b038d16845290915290209082900390555b6001600160a01b03871615610cff576000828152602081815260408083206001600160a01b038b16845290915281208054839290610cf990849061158c565b90915550505b505080610d0b906115ee565b9050610c07565b508251600103610d935760208301516000906020840151909150856001600160a01b0316876001600160a01b0316846001600160a01b03167fc3d58168c5ae7397731d063d5bbf3d657854427343f4c083240f7aacaa2d0f628585604051610d84929190918252602082015260400190565b60405180910390a45050610a56565b836001600160a01b0316856001600160a01b0316826001600160a01b03167f4a39dc06d4c0dbc64b70af90fd698a233a518aa5d07e595d983b8c0526c8f7fb8686604051610de292919061175f565b60405180910390a45050505050565b6001600160a01b0384163b156106255760405163f23a6e6160e01b81526001600160a01b0385169063f23a6e6190610e35908990899088908890889060040161178d565b6020604051808303816000875af1925050508015610e70575060408051601f3d908101601f19168201909252610e6d918101906117d2565b60015b610ed9573d808015610e9e576040519150601f19603f3d011682016040523d82523d6000602084013e610ea3565b606091505b508051600003610ed157604051632bfa23e760e11b81526001600160a01b0386166004820152602401610417565b805181602001fd5b6001600160e01b0319811663f23a6e6160e01b14610b7857604051632bfa23e760e11b81526001600160a01b0386166004820152602401610417565b6001600160a01b0384163b156106255760405163bc197c8160e01b81526001600160a01b0385169063bc197c8190610f5990899089908890889088906004016117ef565b6020604051808303816000875af1925050508015610f94575060408051601f3d908101601f19168201909252610f91918101906117d2565b60015b610fc2573d808015610e9e576040519150601f19603f3d011682016040523d82523d6000602084013e610ea3565b6001600160e01b0319811663bc197c8160e01b14610b7857604051632bfa23e760e11b81526001600160a01b0386166004820152602401610417565b80356001600160a01b038116811461101557600080fd5b919050565b6000806040838503121561102d57600080fd5b61103683610ffe565b946020939093013593505050565b6001600160e01b03198116811461042957600080fd5b60006020828403121561106c57600080fd5b813561107781611044565b9392505050565b634e487b7160e01b600052604160045260246000fd5b604051601f8201601f1916810167ffffffffffffffff811182821017156110bd576110bd61107e565b604052919050565b600067ffffffffffffffff8311156110df576110df61107e565b6110f2601f8401601f1916602001611094565b905082815283838301111561110657600080fd5b828260208301376000602084830101529392505050565b60006020828403121561112f57600080fd5b813567ffffffffffffffff81111561114657600080fd5b8201601f8101841361115757600080fd5b611166848235602084016110c5565b949350505050565b60006020828403121561118057600080fd5b5035919050565b6000815180845260005b818110156111ad57602081850181015186830182015201611191565b506000602082860101526020601f19601f83011685010191505092915050565b6020815260006110776020830184611187565b6000602082840312156111f257600080fd5b61107782610ffe565b6000806040838503121561120e57600080fd5b50508035926020909101359150565b600067ffffffffffffffff8211156112375761123761107e565b5060051b60200190565b600082601f83011261125257600080fd5b813560206112676112628361121d565b611094565b82815260059290921b8401810191818101908684111561128657600080fd5b8286015b848110156112a1578035835291830191830161128a565b509695505050505050565b600082601f8301126112bd57600080fd5b611077838335602085016110c5565b600080600080600060a086880312156112e457600080fd5b6112ed86610ffe565b94506112fb60208701610ffe565b9350604086013567ffffffffffffffff8082111561131857600080fd5b61132489838a01611241565b9450606088013591508082111561133a57600080fd5b61134689838a01611241565b9350608088013591508082111561135c57600080fd5b50611369888289016112ac565b9150509295509295909350565b6000806040838503121561138957600080fd5b823567ffffffffffffffff808211156113a157600080fd5b818501915085601f8301126113b557600080fd5b813560206113c56112628361121d565b82815260059290921b840181019181810190898411156113e457600080fd5b948201945b83861015611409576113fa86610ffe565b825294820194908201906113e9565b9650508601359250508082111561141f57600080fd5b5061142c85828601611241565b9150509250929050565b600081518084526020808501945080840160005b838110156114665781518752958201959082019060010161144a565b509495945050505050565b6020815260006110776020830184611436565b6000806040838503121561149757600080fd5b6114a083610ffe565b9150602083013580151581146114b557600080fd5b809150509250929050565b600080604083850312156114d357600080fd5b6114dc83610ffe565b91506105bd60208401610ffe565b600080600080600060a0868803121561150257600080fd5b61150b86610ffe565b945061151960208701610ffe565b93506040860135925060608601359150608086013567ffffffffffffffff81111561154357600080fd5b611369888289016112ac565b6020808252600d908201526c2737ba103a34329037bbb732b960991b604082015260600190565b634e487b7160e01b600052601160045260246000fd5b808201808211156103c2576103c2611576565b80820281158282048414176103c2576103c2611576565b6000826115d357634e487b7160e01b600052601260045260246000fd5b500490565b634e487b7160e01b600052603260045260246000fd5b60006001820161160057611600611576565b5060010190565b818103818111156103c2576103c2611576565b600181811c9082168061162e57607f821691505b60208210810361164e57634e487b7160e01b600052602260045260246000fd5b50919050565b601f82111561169a57600081815260208120601f850160051c8101602086101561167b5750805b601f850160051c820191505b8181101561062557828155600101611687565b505050565b815167ffffffffffffffff8111156116b9576116b961107e565b6116cd816116c7845461161a565b84611654565b602080601f83116001811461170257600084156116ea5750858301515b600019600386901b1c1916600185901b178555610625565b600085815260208120601f198616915b8281101561173157888601518255948401946001909101908401611712565b508582101561174f5787850151600019600388901b60f8161c191681555b5050505050600190811b01905550565b6040815260006117726040830185611436565b82810360208401526117848185611436565b95945050505050565b6001600160a01b03868116825285166020820152604081018490526060810183905260a0608082018190526000906117c790830184611187565b979650505050505050565b6000602082840312156117e457600080fd5b815161107781611044565b6001600160a01b0386811682528516602082015260a06040820181905260009061181b90830186611436565b828103606084015261182d8186611436565b905082810360808401526118418185611187565b9897505050505050505056fe68747470733a2f2f6d656469612e6973746f636b70686f746f2e636f6d2f69642f313438363335373539382f70686f746f2f636f617374616c2d62726f776e2d626561722d66697368696e672d696e2d6b61746d61692e6a70673f733d31303234783130323426773d6973266b3d323026633d434458697349314e46706d48346f442d546d575667474366445555756f53396a52755f6b7a7a50436530673da26469706673582212201bd6c88417950c7773f7a4dcabef8b8014fccd40eddaf39835d070e91ab893ec64736f6c6343000815003368747470733a2f2f6d656469612e6973746f636b70686f746f2e636f6d2f69642f313438363335373539382f70686f746f2f636f617374616c2d62726f776e2d626561722d66697368696e672d696e2d6b61746d61692e6a70673f733d31303234783130323426773d6973266b3d323026633d434458697349314e46706d48346f442d546d575667474366445555756f53396a52755f6b7a7a50436530673d",
    "linkReferences": {}
  },
  "methodIdentifiers": {
    "balanceOf(address,uint256)": "00fdd58e",
    "balanceOfBatch(address[],uint256[])": "4e1273f4",
    "getCurrentPrice()": "eb91d37e",
    "getMintedNFTsCount()": "d5f129ad",
    "getNextNFTPrice()": "e38f18f2",
    "getTotalSupplyCap()": "e88fa189",
    "isApprovedForAll(address,address)": "e985e9c5",
    "mint(uint256,uint256)": "1b2ef1ca",
    "owner()": "8da5cb5b",
    "royaltyInfo(uint256,uint256)": "2a55205a",
    "safeBatchTransferFrom(address,address,uint256[],uint256[],bytes)": "2eb2c2d6",
    "safeTransferFrom(address,address,uint256,uint256,bytes)": "f242432a",
    "setApprovalForAll(address,bool)": "a22cb465",
    "setOwner(address)": "13af4035",
    "setURI(string)": "02fe5305",
    "supportsInterface(bytes4)": "01ffc9a7",
    "totalSupply()": "18160ddd",
    "uri(uint256)": "0e89341c",
    "withdraw()": "3ccfd60b"
  },
  "id": 40
}