{"abi":[{"type":"constructor","inputs":[{"name":"_initialBaseURI","type":"string","internalType":"string"}],"stateMutability":"nonpayable"},{"type":"function","name":"MAX_MINT_AMOUNT","inputs":[],"outputs":[{"name":"","type":"uint256","internalType":"uint256"}],"stateMutability":"view"},{"type":"function","name":"MINT_UNIT_PRICE","inputs":[],"outputs":[{"name":"","type":"uint256","internalType":"uint256"}],"stateMutability":"view"},{"type":"function","name":"PRICE_INCREMENT","inputs":[],"outputs":[{"name":"","type":"uint256","internalType":"uint256"}],"stateMutability":"view"},{"type":"function","name":"TOTAL_SUPPLY_CAP","inputs":[],"outputs":[{"name":"","type":"uint256","internalType":"uint256"}],"stateMutability":"view"},{"type":"function","name":"approve","inputs":[{"name":"to","type":"address","internalType":"address"},{"name":"tokenId","type":"uint256","internalType":"uint256"}],"outputs":[],"stateMutability":"payable"},{"type":"function","name":"balanceOf","inputs":[{"name":"owner","type":"address","internalType":"address"}],"outputs":[{"name":"","type":"uint256","internalType":"uint256"}],"stateMutability":"view"},{"type":"function","name":"baseURI","inputs":[],"outputs":[{"name":"","type":"string","internalType":"string"}],"stateMutability":"view"},{"type":"function","name":"getApproved","inputs":[{"name":"tokenId","type":"uint256","internalType":"uint256"}],"outputs":[{"name":"","type":"address","internalType":"address"}],"stateMutability":"view"},{"type":"function","name":"getCurrentPrice","inputs":[],"outputs":[{"name":"","type":"uint256","internalType":"uint256"}],"stateMutability":"view"},{"type":"function","name":"getNextNFTPrice","inputs":[],"outputs":[{"name":"","type":"uint256","internalType":"uint256"}],"stateMutability":"view"},{"type":"function","name":"getTotalVIPNFTCount","inputs":[],"outputs":[{"name":"","type":"uint256","internalType":"uint256"}],"stateMutability":"pure"},{"type":"function","name":"getVIPMintQuota","inputs":[{"name":"user","type":"address","internalType":"address"}],"outputs":[{"name":"","type":"uint256","internalType":"uint256"}],"stateMutability":"view"},{"type":"function","name":"getVIPPrice","inputs":[],"outputs":[{"name":"","type":"uint256","internalType":"uint256"}],"stateMutability":"pure"},{"type":"function","name":"incrementVIPMintQuota","inputs":[{"name":"user","type":"address[]","internalType":"address[]"},{"name":"amount","type":"uint256[]","internalType":"uint256[]"}],"outputs":[],"stateMutability":"nonpayable"},{"type":"function","name":"isApprovedForAll","inputs":[{"name":"owner","type":"address","internalType":"address"},{"name":"operator","type":"address","internalType":"address"}],"outputs":[{"name":"","type":"bool","internalType":"bool"}],"stateMutability":"view"},{"type":"function","name":"mint","inputs":[{"name":"amount","type":"uint256","internalType":"uint256"}],"outputs":[],"stateMutability":"payable"},{"type":"function","name":"mintVIP","inputs":[{"name":"amount","type":"uint256","internalType":"uint256"}],"outputs":[],"stateMutability":"payable"},{"type":"function","name":"mintbyKingdomly","inputs":[{"name":"amount","type":"uint256","internalType":"uint256"}],"outputs":[],"stateMutability":"payable"},{"type":"function","name":"name","inputs":[],"outputs":[{"name":"","type":"string","internalType":"string"}],"stateMutability":"view"},{"type":"function","name":"owner","inputs":[],"outputs":[{"name":"","type":"address","internalType":"address"}],"stateMutability":"view"},{"type":"function","name":"ownerOf","inputs":[{"name":"tokenId","type":"uint256","internalType":"uint256"}],"outputs":[{"name":"","type":"address","internalType":"address"}],"stateMutability":"view"},{"type":"function","name":"renounceOwnership","inputs":[],"outputs":[],"stateMutability":"nonpayable"},{"type":"function","name":"royaltyInfo","inputs":[{"name":"","type":"uint256","internalType":"uint256"},{"name":"salePrice","type":"uint256","internalType":"uint256"}],"outputs":[{"name":"receiver","type":"address","internalType":"address"},{"name":"royaltyAmount","type":"uint256","internalType":"uint256"}],"stateMutability":"pure"},{"type":"function","name":"safeTransferFrom","inputs":[{"name":"from","type":"address","internalType":"address"},{"name":"to","type":"address","internalType":"address"},{"name":"tokenId","type":"uint256","internalType":"uint256"}],"outputs":[],"stateMutability":"payable"},{"type":"function","name":"safeTransferFrom","inputs":[{"name":"from","type":"address","internalType":"address"},{"name":"to","type":"address","internalType":"address"},{"name":"tokenId","type":"uint256","internalType":"uint256"},{"name":"_data","type":"bytes","internalType":"bytes"}],"outputs":[],"stateMutability":"payable"},{"type":"function","name":"setApprovalForAll","inputs":[{"name":"operator","type":"address","internalType":"address"},{"name":"approved","type":"bool","internalType":"bool"}],"outputs":[],"stateMutability":"nonpayable"},{"type":"function","name":"setBaseURI","inputs":[{"name":"newBaseURI","type":"string","internalType":"string"}],"outputs":[],"stateMutability":"nonpayable"},{"type":"function","name":"supportsInterface","inputs":[{"name":"interfaceId","type":"bytes4","internalType":"bytes4"}],"outputs":[{"name":"","type":"bool","internalType":"bool"}],"stateMutability":"view"},{"type":"function","name":"symbol","inputs":[],"outputs":[{"name":"","type":"string","internalType":"string"}],"stateMutability":"view"},{"type":"function","name":"tokenCountNormal","inputs":[],"outputs":[{"name":"","type":"uint256","internalType":"uint256"}],"stateMutability":"view"},{"type":"function","name":"tokenCountVIP","inputs":[],"outputs":[{"name":"","type":"uint256","internalType":"uint256"}],"stateMutability":"view"},{"type":"function","name":"tokenURI","inputs":[{"name":"tokenId","type":"uint256","internalType":"uint256"}],"outputs":[{"name":"","type":"string","internalType":"string"}],"stateMutability":"view"},{"type":"function","name":"totalSupply","inputs":[],"outputs":[{"name":"result","type":"uint256","internalType":"uint256"}],"stateMutability":"view"},{"type":"function","name":"transferFrom","inputs":[{"name":"from","type":"address","internalType":"address"},{"name":"to","type":"address","internalType":"address"},{"name":"tokenId","type":"uint256","internalType":"uint256"}],"outputs":[],"stateMutability":"payable"},{"type":"function","name":"transferOwnership","inputs":[{"name":"newOwner","type":"address","internalType":"address"}],"outputs":[],"stateMutability":"nonpayable"},{"type":"function","name":"withdraw","inputs":[],"outputs":[],"stateMutability":"nonpayable"},{"type":"function","name":"withdrawDevFeeFunds","inputs":[],"outputs":[],"stateMutability":"nonpayable"},{"type":"function","name":"withdrawFeeFunds","inputs":[],"outputs":[],"stateMutability":"nonpayable"},{"type":"event","name":"Approval","inputs":[{"name":"owner","type":"address","indexed":true,"internalType":"address"},{"name":"approved","type":"address","indexed":true,"internalType":"address"},{"name":"tokenId","type":"uint256","indexed":true,"internalType":"uint256"}],"anonymous":false},{"type":"event","name":"ApprovalForAll","inputs":[{"name":"owner","type":"address","indexed":true,"internalType":"address"},{"name":"operator","type":"address","indexed":true,"internalType":"address"},{"name":"approved","type":"bool","indexed":false,"internalType":"bool"}],"anonymous":false},{"type":"event","name":"BatchMetadataUpdate","inputs":[{"name":"fromTokenId","type":"uint256","indexed":true,"internalType":"uint256"},{"name":"toTokenId","type":"uint256","indexed":true,"internalType":"uint256"}],"anonymous":false},{"type":"event","name":"ConsecutiveTransfer","inputs":[{"name":"fromTokenId","type":"uint256","indexed":true,"internalType":"uint256"},{"name":"toTokenId","type":"uint256","indexed":false,"internalType":"uint256"},{"name":"from","type":"address","indexed":true,"internalType":"address"},{"name":"to","type":"address","indexed":true,"internalType":"address"}],"anonymous":false},{"type":"event","name":"FundWithdrawn","inputs":[{"name":"owner","type":"address","indexed":false,"internalType":"address"},{"name":"amount","type":"uint256","indexed":false,"internalType":"uint256"}],"anonymous":false},{"type":"event","name":"NFTMinted","inputs":[{"name":"minter","type":"address","indexed":true,"internalType":"address"},{"name":"amount","type":"uint256","indexed":false,"internalType":"uint256"},{"name":"value","type":"uint256","indexed":false,"internalType":"uint256"}],"anonymous":false},{"type":"event","name":"OwnershipTransferred","inputs":[{"name":"previousOwner","type":"address","indexed":true,"internalType":"address"},{"name":"newOwner","type":"address","indexed":true,"internalType":"address"}],"anonymous":false},{"type":"event","name":"Transfer","inputs":[{"name":"from","type":"address","indexed":true,"internalType":"address"},{"name":"to","type":"address","indexed":true,"internalType":"address"},{"name":"tokenId","type":"uint256","indexed":true,"internalType":"uint256"}],"anonymous":false},{"type":"error","name":"ApprovalCallerNotOwnerNorApproved","inputs":[]},{"type":"error","name":"ApprovalQueryForNonexistentToken","inputs":[]},{"type":"error","name":"BalanceQueryForZeroAddress","inputs":[]},{"type":"error","name":"ExceedsMaxSupply","inputs":[{"name":"requested","type":"uint256","internalType":"uint256"},{"name":"available","type":"uint256","internalType":"uint256"}]},{"type":"error","name":"ExceedsVIPMaxSupply","inputs":[{"name":"requested","type":"uint256","internalType":"uint256"},{"name":"available","type":"uint256","internalType":"uint256"}]},{"type":"error","name":"InsufficientEther","inputs":[{"name":"required","type":"uint256","internalType":"uint256"},{"name":"provided","type":"uint256","internalType":"uint256"}]},{"type":"error","name":"MintERC2309QuantityExceedsLimit","inputs":[]},{"type":"error","name":"MintToZeroAddress","inputs":[]},{"type":"error","name":"MintZeroQuantity","inputs":[]},{"type":"error","name":"NotCompatibleWithSpotMints","inputs":[]},{"type":"error","name":"Overflow","inputs":[]},{"type":"error","name":"OwnableInvalidOwner","inputs":[{"name":"owner","type":"address","internalType":"address"}]},{"type":"error","name":"OwnableUnauthorizedAccount","inputs":[{"name":"account","type":"address","internalType":"address"}]},{"type":"error","name":"OwnerQueryForNonexistentToken","inputs":[]},{"type":"error","name":"OwnershipNotInitializedForExtraData","inputs":[]},{"type":"error","name":"SequentialMintExceedsLimit","inputs":[]},{"type":"error","name":"SequentialUpToTooSmall","inputs":[]},{"type":"error","name":"SpotMintTokenIdTooSmall","inputs":[]},{"type":"error","name":"TokenAlreadyExists","inputs":[]},{"type":"error","name":"TransferCallerNotOwnerNorApproved","inputs":[]},{"type":"error","name":"TransferFromIncorrectOwner","inputs":[]},{"type":"error","name":"TransferToNonERC721ReceiverImplementer","inputs":[]},{"type":"error","name":"TransferToZeroAddress","inputs":[]},{"type":"error","name":"URIQueryForNonexistentToken","inputs":[]}],"bytecode":{"object":"0x60806040523480156200001157600080fd5b50604051620029253803806200292583398101604081905262000034916200016a565b336040518060400160405280600c81526020016b486f6e657947656e6573697360a01b8152506040518060400160405280600c81526020016b484f4e455947454e4553495360a01b8152508160029081620000909190620002d0565b5060036200009f8282620002d0565b50600160005550506001600160a01b038116620000d657604051631e4fbdf760e01b81526000600482015260240160405180910390fd5b620000e18162000102565b506000600a819055600b55600c620000fa8282620002d0565b50506200039c565b600980546001600160a01b038381166001600160a01b0319831681179093556040519116919082907f8be0079c531659141344cd1fd0a4f28419497f9722a3daafe3b4186f6b6457e090600090a35050565b634e487b7160e01b600052604160045260246000fd5b600060208083850312156200017e57600080fd5b82516001600160401b03808211156200019657600080fd5b818501915085601f830112620001ab57600080fd5b815181811115620001c057620001c062000154565b604051601f8201601f19908116603f01168101908382118183101715620001eb57620001eb62000154565b8160405282815288868487010111156200020457600080fd5b600093505b8284101562000228578484018601518185018701529285019262000209565b600086848301015280965050505050505092915050565b600181811c908216806200025457607f821691505b6020821081036200027557634e487b7160e01b600052602260045260246000fd5b50919050565b601f821115620002cb576000816000526020600020601f850160051c81016020861015620002a65750805b601f850160051c820191505b81811015620002c757828155600101620002b2565b5050505b505050565b81516001600160401b03811115620002ec57620002ec62000154565b6200030481620002fd84546200023f565b846200027b565b602080601f8311600181146200033c5760008415620003235750858301515b600019600386901b1c1916600185901b178555620002c7565b600085815260208120601f198616915b828110156200036d578886015182559484019460019091019084016200034c565b50858210156200038c5787850151600019600388901b60f8161c191681555b5050505050600190811b01905550565b61257980620003ac6000396000f3fe6080604052600436106102255760003560e01c8063715018a611610123578063b88d4fde116100ab578063e985e9c51161006f578063e985e9c5146105e3578063eb91d37e14610603578063ec6533e114610618578063f2fde38b1461062e578063fa9b70181461064e57600080fd5b8063b88d4fde14610570578063c4039f6c14610583578063c87b56dd14610599578063cac3e8cb146105b9578063e38f18f2146105ce57600080fd5b8063a0712d68116100f2578063a0712d68146104d8578063a22cb465146104eb578063a69068271461050b578063a75c3ad914610541578063b6342d5e1461055657600080fd5b8063715018a6146104755780638da5cb5b1461048a57806391b8dbb3146104a857806395d89b41146104c357600080fd5b806331408098116101b157806355f804b31161017557806355f804b3146103e55780636352211e146104055780636c0360eb146104255780636d25d8021461043a57806370a082311461045557600080fd5b806331408098146103725780633ccfd60b1461038757806342842e0e1461039c57806342c4753e146103af57806348931352146103cf57600080fd5b806318160ddd116101f857806318160ddd146102ce5780631a0aa6db146102fa578063231931bd1461030d57806323b872dd146103205780632a55205a1461033357600080fd5b806301ffc9a71461022a57806306fdde031461025f578063081812fc14610281578063095ea7b3146102b9575b600080fd5b34801561023657600080fd5b5061024a610245366004611e8d565b610663565b60405190151581526020015b60405180910390f35b34801561026b57600080fd5b5061027461068e565b6040516102569190611efa565b34801561028d57600080fd5b506102a161029c366004611f0d565b610720565b6040516001600160a01b039091168152602001610256565b6102cc6102c7366004611f3d565b61075b565b005b3480156102da57600080fd5b506102ec600154600054036000190190565b604051908152602001610256565b6102cc610308366004611f0d565b61076b565b6102cc61031b366004611f0d565b6109fa565b6102cc61032e366004611f67565b610c1d565b34801561033f57600080fd5b5061035361034e366004611fa3565b610d7e565b604080516001600160a01b039093168352602083019190915201610256565b34801561037e57600080fd5b506103e86102ec565b34801561039357600080fd5b506102cc610db6565b6102cc6103aa366004611f67565b610fd4565b3480156103bb57600080fd5b506102cc6103ca36600461200a565b610ff4565b3480156103db57600080fd5b506102ec61138881565b3480156103f157600080fd5b506102cc610400366004612102565b6110f7565b34801561041157600080fd5b506102a1610420366004611f0d565b61113f565b34801561043157600080fd5b5061027461114a565b34801561044657600080fd5b506102ec6618de76816d800081565b34801561046157600080fd5b506102ec61047036600461214b565b6111d8565b34801561048157600080fd5b506102cc61121e565b34801561049657600080fd5b506009546001600160a01b03166102a1565b3480156104b457600080fd5b506102ec66f8b0a10e47000081565b3480156104cf57600080fd5b50610274611232565b6102cc6104e6366004611f0d565b611241565b3480156104f757600080fd5b506102cc610506366004612166565b6114fa565b34801561051757600080fd5b506102ec61052636600461214b565b6001600160a01b03166000908152600d602052604090205490565b34801561054d57600080fd5b506102cc611566565b34801561056257600080fd5b5066f52322698080006102ec565b6102cc61057e3660046121a2565b6116e5565b34801561058f57600080fd5b506102ec600a5481565b3480156105a557600080fd5b506102746105b4366004611f0d565b611726565b3480156105c557600080fd5b506102cc6117a1565b3480156105da57600080fd5b506102ec61189f565b3480156105ef57600080fd5b5061024a6105fe36600461221e565b6118e6565b34801561060f57600080fd5b506102ec611914565b34801561062457600080fd5b506102ec600b5481565b34801561063a57600080fd5b506102cc61064936600461214b565b611926565b34801561065a57600080fd5b506102ec601481565b60006001600160e01b0319821663152a902d60e11b1480610688575061068882611964565b92915050565b60606002805461069d90612248565b80601f01602080910402602001604051908101604052809291908181526020018280546106c990612248565b80156107165780601f106106eb57610100808354040283529160200191610716565b820191906000526020600020905b8154815290600101906020018083116106f957829003601f168201915b5050505050905090565b600061072b826119b2565b61073f5761073f6333d1c03960e21b611a00565b506000908152600660205260409020546001600160a01b031690565b61076782826001611a0a565b5050565b6000610778600a54611aad565b905060006107868383612298565b9050600061079b846603328b944c4000612298565b60646107a8846003612298565b6107b291906122af565b6107bc91906122d1565b905060006107ca82846122d1565b9050803410156107fb5760405163c108422360e01b8152600481018290523460248201526044015b60405180910390fd5b61138885600a5461080c91906122d1565b11156108455784600a5461138861082391906122e4565b60405163adc3cee560e01b8152600481019290925260248201526044016107f2565b336000908152600d6020908152604080832054600590925291829020546014921c67ffffffffffffffff1661087a90886122d1565b61088491906122e4565b11156108cc5760405162461bcd60e51b8152602060048201526017602482015276115e18d959591cc81b585e081b5a5b9d08185b5bdd5b9d604a1b60448201526064016107f2565b7362c414e104d0a32c3723b59da5854f8b061168316000908152600e602052600080516020612504833981519152805485929061090a9084906122d1565b909155505073428deb81a93bed820068724eb1fcc7503d71e4176000908152600e6020526000805160206124e4833981519152805484929061094d9084906122d1565b9091555061095d90503386611aeb565b84600a600082825461096f91906122d1565b90915550506040805186815234602082015233917f3a8a89b59a31c39a36febecb987e0657ab7b7c73b60ebacb44dcb9886c2d5c8a91015b60405180910390a260006109bb82346122e4565b905080156109f257604051339082156108fc029083906000818181858888f193505050501580156109f0573d6000803e3d6000fd5b505b505050505050565b336000610a0e66f523226980800084612298565b90506000610a23846603328b944c4000612298565b90506000610a3182846122d1565b905080341015610a5d5760405163c108422360e01b8152600481018290523460248201526044016107f2565b6103e885600b54610a6e91906122d1565b1115610aa75784600b546103e8610a8591906122e4565b604051631b1b5a2360e01b8152600481019290925260248201526044016107f2565b6001600160a01b0384166000908152600d6020526040902054851115610b085760405162461bcd60e51b81526020600482015260166024820152754578636565647320564950206d696e742071756f746160501b60448201526064016107f2565b6001600160a01b0384166000908152600d602052604081208054879290610b309084906122e4565b90915550507362c414e104d0a32c3723b59da5854f8b061168316000908152600e6020526000805160206125048339815191528054859290610b739084906122d1565b909155505073428deb81a93bed820068724eb1fcc7503d71e4176000908152600e6020526000805160206124e48339815191528054849290610bb69084906122d1565b90915550610bc690503386611aeb565b84600b6000828254610bd891906122d1565b9091555050604080518681523460208201526001600160a01b038616917f3a8a89b59a31c39a36febecb987e0657ab7b7c73b60ebacb44dcb9886c2d5c8a91016109a7565b6000610c2882611b05565b6001600160a01b039485169490915081168414610c4e57610c4e62a1148160e81b611a00565b60008281526006602052604090208054338082146001600160a01b03881690911417610c9257610c7e86336118e6565b610c9257610c92632ce44b5f60e11b611a00565b8015610c9d57600082555b6001600160a01b038681166000908152600560205260408082208054600019019055918716808252919020805460010190554260a01b17600160e11b17600085815260046020526040812091909155600160e11b84169003610d2f57600184016000818152600460205260408120549003610d2d576000548114610d2d5760008181526004602052604090208490555b505b6001600160a01b0385168481887fddf252ad1be2c89b69c2b068fc378daa952ba7f163c4a11628f55a4df523b3ef600080a480600003610d7957610d79633a954ecd60e21b611a00565b6109f0565b7362c414e104d0a32c3723b59da5854f8b0611683160006064610da2846005612298565b610dac91906122af565b90505b9250929050565b610dbe611ba6565b7362c414e104d0a32c3723b59da5854f8b06116831600052600e60205260008051602061250483398151915254610e075760405162461bcd60e51b81526004016107f2906122f7565b600e60205260008051602061250483398151915280546000805160206124e4833981519152805460008051602061252483398151915280546000958690559285905573c7be945dfc7e209018e0d5d0d20b2892517a22bb8552849055604051929390927362c414e104d0a32c3723b59da5854f8b061168319085908381818185875af1925050503d8060008114610eba576040519150601f19603f3d011682016040523d82523d6000602084013e610ebf565b606091505b505060405190915060009073428deb81a93bed820068724eb1fcc7503d71e4179085908381818185875af1925050503d8060008114610f1a576040519150601f19603f3d011682016040523d82523d6000602084013e610f1f565b606091505b505060405190915060009073c7be945dfc7e209018e0d5d0d20b2892517a22bb9085908381818185875af1925050503d8060008114610f7a576040519150601f19603f3d011682016040523d82523d6000602084013e610f7f565b606091505b50509050828015610f8d5750815b8015610f965750805b6109f25760405162461bcd60e51b815260206004820152600f60248201526e151c985b9cd9995c8819985a5b1959608a1b60448201526064016107f2565b610fef838383604051806020016040528060008152506116e5565b505050565b610ffc611ba6565b8281146110655760405162461bcd60e51b815260206004820152603160248201527f5573657220616e6420616d6f756e7420617272617973206d757374206265206f6044820152700cc40e8d0ca40e6c2daca40d8cadccee8d607b1b60648201526084016107f2565b60005b838110156110f05782828281811061108257611082612325565b90506020020135600d600087878581811061109f5761109f612325565b90506020020160208101906110b4919061214b565b6001600160a01b03166001600160a01b0316815260200190815260200160002060008282546110e391906122d1565b9091555050600101611068565b5050505050565b6110ff611ba6565b600c61110b8282612383565b50604051600019906001907f6bd5c950a8d8df17f772f5af37cb3655737899cbf903264b9795592da439661c90600090a350565b600061068882611b05565b600c805461115790612248565b80601f016020809104026020016040519081016040528092919081815260200182805461118390612248565b80156111d05780601f106111a5576101008083540402835291602001916111d0565b820191906000526020600020905b8154815290600101906020018083116111b357829003601f168201915b505050505081565b60006001600160a01b0382166111f8576111f86323d3ad8160e21b611a00565b506001600160a01b031660009081526005602052604090205467ffffffffffffffff1690565b611226611ba6565b6112306000611bd3565b565b60606003805461069d90612248565b60003390506000611253600a54611aad565b61125d9084612298565b90506000611272846603328b944c4000612298565b905060006064611283846003612298565b61128d91906122af565b905060008261129c83866122d1565b6112a691906122d1565b9050803410156112d25760405163c108422360e01b8152600481018290523460248201526044016107f2565b61138886600a546112e391906122d1565b11156112fa5785600a5461138861082391906122e4565b336000908152600d6020908152604080832054600590925291829020546014921c67ffffffffffffffff1661132f90896122d1565b61133991906122e4565b11156113815760405162461bcd60e51b8152602060048201526017602482015276115e18d959591cc81b585e081b5a5b9d08185b5bdd5b9d604a1b60448201526064016107f2565b7362c414e104d0a32c3723b59da5854f8b061168316000908152600e60205260008051602061250483398151915280548692906113bf9084906122d1565b909155505073c7be945dfc7e209018e0d5d0d20b2892517a22bb6000908152600e60205260008051602061252483398151915280548492906114029084906122d1565b909155505073428deb81a93bed820068724eb1fcc7503d71e4176000908152600e6020526000805160206124e483398151915280548592906114459084906122d1565b9091555061145590503387611aeb565b85600a600082825461146791906122d1565b9091555050604080518781523460208201526001600160a01b038716917f3a8a89b59a31c39a36febecb987e0657ab7b7c73b60ebacb44dcb9886c2d5c8a910160405180910390a260006114bb82346122e4565b905080156109f057604051339082156108fc029083906000818181858888f193505050501580156114f0573d6000803e3d6000fd5b5050505050505050565b3360008181526007602090815260408083206001600160a01b03871680855290835292819020805460ff191686151590811790915590519081529192917f17307eab39ab6107e8899845ad3d59bd9653f200f220920489ca2b5937696c31910160405180910390a35050565b73428deb81a93bed820068724eb1fcc7503d71e4161933016115da5760405162461bcd60e51b815260206004820152602760248201527f556e617574686f72697a65642c206e6f7420746865204b696e67646f6d6c79206044820152664164647265737360c81b60648201526084016107f2565b73428deb81a93bed820068724eb1fcc7503d71e417600052600e6020526000805160206124e4833981519152546116235760405162461bcd60e51b81526004016107f2906122f7565b73428deb81a93bed820068724eb1fcc7503d71e4176000818152600e6020526000805160206124e483398151915280549082905560405190929083905b60006040518083038185875af1925050503d806000811461169d576040519150601f19603f3d011682016040523d82523d6000602084013e6116a2565b606091505b50509050806107675760405162461bcd60e51b815260206004820152600f60248201526e151c985b9cd9995c8819985a5b1959608a1b60448201526064016107f2565b6116f0848484610c1d565b6001600160a01b0383163b156117205761170c84848484611c25565b611720576117206368d2bf6b60e11b611a00565b50505050565b6060611731826119b2565b61174557611745630a14c4b560e41b611a00565b600061174f611d08565b9050805160000361176f576040518060200160405280600081525061179a565b8061177984611d17565b60405160200161178a929190612443565b6040516020818303038152906040525b9392505050565b73c7be945dfc7e209018e0d5d0d20b2892517a22ba1933016118155760405162461bcd60e51b815260206004820152602760248201527f556e617574686f72697a65642c206e6f742074686520446576204167656e74206044820152664164647265737360c81b60648201526084016107f2565b73c7be945dfc7e209018e0d5d0d20b2892517a22bb600052600e6020526000805160206125248339815191525461185e5760405162461bcd60e51b81526004016107f2906122f7565b73c7be945dfc7e209018e0d5d0d20b2892517a22bb6000818152600e6020526000805160206125248339815191528054908290556040519092908390611660565b6000806101f4600a546118b291906122d1565b90506113888111156118d757604051631a93c68960e11b815260040160405180910390fd5b6118e081611aad565b91505090565b6001600160a01b03918216600090815260076020908152604080832093909416825291909152205460ff1690565b6000611921600a54611aad565b905090565b61192e611ba6565b6001600160a01b03811661195857604051631e4fbdf760e01b8152600060048201526024016107f2565b61196181611bd3565b50565b60006301ffc9a760e01b6001600160e01b03198316148061199557506380ac58cd60e01b6001600160e01b03198316145b806106885750506001600160e01b031916635b5e139f60e01b1490565b6000816001116119fb576000548210156119fb5760005b50600082815260046020526040812054908190036119f1576119ea83612472565b92506119c9565b600160e01b161590505b919050565b8060005260046000fd5b6000611a158361113f565b9050818015611a2d5750336001600160a01b03821614155b15611a5057611a3c81336118e6565b611a5057611a506367d9dca160e11b611a00565b60008381526006602052604080822080546001600160a01b0319166001600160a01b0388811691821790925591518693918516917f8c5be1e5ebec7d5bd14f71427d1e84f3dd0314c0f7b2291e5b200ac8c7c3b92591a450505050565b600080611abc6101f4846122af565b611ac79060016122d1565b9050611ada6618de76816d800082612298565b61179a9066f8b0a10e4700006122d1565b610767828260405180602001604052806000815250611d5b565b600081600111611b96575060008181526004602052604090205480600003611b83576000548210611b4057611b40636f96cda160e11b611a00565b5b50600019016000818152600460205260409020548015611b4157600160e01b8116600003611b6e57919050565b611b7e636f96cda160e11b611a00565b611b41565b600160e01b8116600003611b9657919050565b6119fb636f96cda160e11b611a00565b6009546001600160a01b031633146112305760405163118cdaa760e01b81523360048201526024016107f2565b600980546001600160a01b038381166001600160a01b0319831681179093556040519116919082907f8be0079c531659141344cd1fd0a4f28419497f9722a3daafe3b4186f6b6457e090600090a35050565b604051630a85bd0160e11b81526000906001600160a01b0385169063150b7a0290611c5a903390899088908890600401612489565b6020604051808303816000875af1925050508015611c95575060408051601f3d908101601f19168201909252611c92918101906124c6565b60015b611cea573d808015611cc3576040519150601f19603f3d011682016040523d82523d6000602084013e611cc8565b606091505b508051600003611ce257611ce26368d2bf6b60e11b611a00565b805181602001fd5b6001600160e01b031916630a85bd0160e11b1490505b949350505050565b6060600c805461069d90612248565b606060a06040510180604052602081039150506000815280825b600183039250600a81066030018353600a900480611d315750819003601f19909101908152919050565b611d658383611db8565b6001600160a01b0383163b15610fef576000548281035b611d8f6000868380600101945086611c25565b611da357611da36368d2bf6b60e11b611a00565b818110611d7c5781600054146110f057600080fd5b6000805490829003611dd457611dd463b562e8dd60e01b611a00565b60008181526004602090815260408083206001600160a01b0387164260a01b6001881460e11b17811790915580845260059092528220805468010000000000000001860201905590819003611e3257611e32622e076360e81b611a00565b818301825b808360007fddf252ad1be2c89b69c2b068fc378daa952ba7f163c4a11628f55a4df523b3ef600080a4818160010191508103611e37575060005550505050565b6001600160e01b03198116811461196157600080fd5b600060208284031215611e9f57600080fd5b813561179a81611e77565b60005b83811015611ec5578181015183820152602001611ead565b50506000910152565b60008151808452611ee6816020860160208601611eaa565b601f01601f19169290920160200192915050565b60208152600061179a6020830184611ece565b600060208284031215611f1f57600080fd5b5035919050565b80356001600160a01b03811681146119fb57600080fd5b60008060408385031215611f5057600080fd5b611f5983611f26565b946020939093013593505050565b600080600060608486031215611f7c57600080fd5b611f8584611f26565b9250611f9360208501611f26565b9150604084013590509250925092565b60008060408385031215611fb657600080fd5b50508035926020909101359150565b60008083601f840112611fd757600080fd5b50813567ffffffffffffffff811115611fef57600080fd5b6020830191508360208260051b8501011115610daf57600080fd5b6000806000806040858703121561202057600080fd5b843567ffffffffffffffff8082111561203857600080fd5b61204488838901611fc5565b9096509450602087013591508082111561205d57600080fd5b5061206a87828801611fc5565b95989497509550505050565b634e487b7160e01b600052604160045260246000fd5b600067ffffffffffffffff808411156120a7576120a7612076565b604051601f8501601f19908116603f011681019082821181831017156120cf576120cf612076565b816040528093508581528686860111156120e857600080fd5b858560208301376000602087830101525050509392505050565b60006020828403121561211457600080fd5b813567ffffffffffffffff81111561212b57600080fd5b8201601f8101841361213c57600080fd5b611d008482356020840161208c565b60006020828403121561215d57600080fd5b61179a82611f26565b6000806040838503121561217957600080fd5b61218283611f26565b91506020830135801515811461219757600080fd5b809150509250929050565b600080600080608085870312156121b857600080fd5b6121c185611f26565b93506121cf60208601611f26565b925060408501359150606085013567ffffffffffffffff8111156121f257600080fd5b8501601f8101871361220357600080fd5b6122128782356020840161208c565b91505092959194509250565b6000806040838503121561223157600080fd5b61223a83611f26565b9150610dac60208401611f26565b600181811c9082168061225c57607f821691505b60208210810361227c57634e487b7160e01b600052602260045260246000fd5b50919050565b634e487b7160e01b600052601160045260246000fd5b808202811582820484141761068857610688612282565b6000826122cc57634e487b7160e01b600052601260045260246000fd5b500490565b8082018082111561068857610688612282565b8181038181111561068857610688612282565b6020808252601490820152734e6f2066756e647320746f20776974686472617760601b604082015260600190565b634e487b7160e01b600052603260045260246000fd5b601f821115610fef576000816000526020600020601f850160051c810160208610156123645750805b601f850160051c820191505b818110156109f257828155600101612370565b815167ffffffffffffffff81111561239d5761239d612076565b6123b1816123ab8454612248565b8461233b565b602080601f8311600181146123e657600084156123ce5750858301515b600019600386901b1c1916600185901b1785556109f2565b600085815260208120601f198616915b82811015612415578886015182559484019460019091019084016123f6565b50858210156124335787850151600019600388901b60f8161c191681555b5050505050600190811b01905550565b60008351612455818460208801611eaa565b835190830190612469818360208801611eaa565b01949350505050565b60008161248157612481612282565b506000190190565b6001600160a01b03858116825284166020820152604081018390526080606082018190526000906124bc90830184611ece565b9695505050505050565b6000602082840312156124d857600080fd5b815161179a81611e7756fe6bed103f89a0acc40f835de3087219f307dff646e85f0952f1e510d136c638f32c65f52be73870b89a4c8496f5b5bbe4dba3258d4e914671429535ae1769c7de9f100d7857e1690705977e2e630c14e37ab1705ed6dedcf229dab4dd974973d5a2646970667358221220951be936301b29d0123ac23dd8b2b527148b126ddca8c8b342fd16ce131c8a4464736f6c63430008180033","linkReferences":{}},"methodIdentifiers":{"MAX_MINT_AMOUNT()":"fa9b7018","MINT_UNIT_PRICE()":"91b8dbb3","PRICE_INCREMENT()":"6d25d802","TOTAL_SUPPLY_CAP()":"48931352","approve(address,uint256)":"095ea7b3","balanceOf(address)":"70a08231","baseURI()":"6c0360eb","getApproved(uint256)":"081812fc","getCurrentPrice()":"eb91d37e","getNextNFTPrice()":"e38f18f2","getTotalVIPNFTCount()":"31408098","getVIPMintQuota(address)":"a6906827","getVIPPrice()":"b6342d5e","incrementVIPMintQuota(address[],uint256[])":"42c4753e","isApprovedForAll(address,address)":"e985e9c5","mint(uint256)":"a0712d68","mintVIP(uint256)":"231931bd","mintbyKingdomly(uint256)":"1a0aa6db","name()":"06fdde03","owner()":"8da5cb5b","ownerOf(uint256)":"6352211e","renounceOwnership()":"715018a6","royaltyInfo(uint256,uint256)":"2a55205a","safeTransferFrom(address,address,uint256)":"42842e0e","safeTransferFrom(address,address,uint256,bytes)":"b88d4fde","setApprovalForAll(address,bool)":"a22cb465","setBaseURI(string)":"55f804b3","supportsInterface(bytes4)":"01ffc9a7","symbol()":"95d89b41","tokenCountNormal()":"c4039f6c","tokenCountVIP()":"ec6533e1","tokenURI(uint256)":"c87b56dd","totalSupply()":"18160ddd","transferFrom(address,address,uint256)":"23b872dd","transferOwnership(address)":"f2fde38b","withdraw()":"3ccfd60b","withdrawDevFeeFunds()":"cac3e8cb","withdrawFeeFunds()":"a75c3ad9"},"id":7}