{"abi":[{"type":"constructor","inputs":[{"name":"_initialBaseURI","type":"string","internalType":"string"}],"stateMutability":"nonpayable"},{"type":"function","name":"MAX_MINT_AMOUNT","inputs":[],"outputs":[{"name":"","type":"uint256","internalType":"uint256"}],"stateMutability":"view"},{"type":"function","name":"MINT_UNIT_PRICE","inputs":[],"outputs":[{"name":"","type":"uint256","internalType":"uint256"}],"stateMutability":"view"},{"type":"function","name":"PRICE_INCREMENT","inputs":[],"outputs":[{"name":"","type":"uint256","internalType":"uint256"}],"stateMutability":"view"},{"type":"function","name":"TOTAL_SUPPLY_CAP","inputs":[],"outputs":[{"name":"","type":"uint256","internalType":"uint256"}],"stateMutability":"view"},{"type":"function","name":"approve","inputs":[{"name":"to","type":"address","internalType":"address"},{"name":"tokenId","type":"uint256","internalType":"uint256"}],"outputs":[],"stateMutability":"payable"},{"type":"function","name":"balanceOf","inputs":[{"name":"owner","type":"address","internalType":"address"}],"outputs":[{"name":"","type":"uint256","internalType":"uint256"}],"stateMutability":"view"},{"type":"function","name":"baseURI","inputs":[],"outputs":[{"name":"","type":"string","internalType":"string"}],"stateMutability":"view"},{"type":"function","name":"getApproved","inputs":[{"name":"tokenId","type":"uint256","internalType":"uint256"}],"outputs":[{"name":"","type":"address","internalType":"address"}],"stateMutability":"view"},{"type":"function","name":"getCurrentPrice","inputs":[],"outputs":[{"name":"","type":"uint256","internalType":"uint256"}],"stateMutability":"view"},{"type":"function","name":"getNextNFTPrice","inputs":[],"outputs":[{"name":"","type":"uint256","internalType":"uint256"}],"stateMutability":"view"},{"type":"function","name":"getTotalVIPNFTCount","inputs":[],"outputs":[{"name":"","type":"uint256","internalType":"uint256"}],"stateMutability":"pure"},{"type":"function","name":"getVIPMintQuota","inputs":[{"name":"user","type":"address","internalType":"address"}],"outputs":[{"name":"","type":"uint256","internalType":"uint256"}],"stateMutability":"view"},{"type":"function","name":"getVIPPrice","inputs":[],"outputs":[{"name":"","type":"uint256","internalType":"uint256"}],"stateMutability":"pure"},{"type":"function","name":"incrementVIPMintQuota","inputs":[{"name":"user","type":"address[]","internalType":"address[]"},{"name":"amount","type":"uint256[]","internalType":"uint256[]"}],"outputs":[],"stateMutability":"nonpayable"},{"type":"function","name":"isApprovedForAll","inputs":[{"name":"owner","type":"address","internalType":"address"},{"name":"operator","type":"address","internalType":"address"}],"outputs":[{"name":"","type":"bool","internalType":"bool"}],"stateMutability":"view"},{"type":"function","name":"mint","inputs":[{"name":"amount","type":"uint256","internalType":"uint256"}],"outputs":[],"stateMutability":"payable"},{"type":"function","name":"mintVIP","inputs":[{"name":"amount","type":"uint256","internalType":"uint256"}],"outputs":[],"stateMutability":"payable"},{"type":"function","name":"mintbyKingdomly","inputs":[{"name":"amount","type":"uint256","internalType":"uint256"}],"outputs":[],"stateMutability":"payable"},{"type":"function","name":"name","inputs":[],"outputs":[{"name":"","type":"string","internalType":"string"}],"stateMutability":"view"},{"type":"function","name":"owner","inputs":[],"outputs":[{"name":"","type":"address","internalType":"address"}],"stateMutability":"view"},{"type":"function","name":"ownerOf","inputs":[{"name":"tokenId","type":"uint256","internalType":"uint256"}],"outputs":[{"name":"","type":"address","internalType":"address"}],"stateMutability":"view"},{"type":"function","name":"renounceOwnership","inputs":[],"outputs":[],"stateMutability":"nonpayable"},{"type":"function","name":"royaltyInfo","inputs":[{"name":"","type":"uint256","internalType":"uint256"},{"name":"salePrice","type":"uint256","internalType":"uint256"}],"outputs":[{"name":"receiver","type":"address","internalType":"address"},{"name":"royaltyAmount","type":"uint256","internalType":"uint256"}],"stateMutability":"pure"},{"type":"function","name":"safeTransferFrom","inputs":[{"name":"from","type":"address","internalType":"address"},{"name":"to","type":"address","internalType":"address"},{"name":"tokenId","type":"uint256","internalType":"uint256"}],"outputs":[],"stateMutability":"payable"},{"type":"function","name":"safeTransferFrom","inputs":[{"name":"from","type":"address","internalType":"address"},{"name":"to","type":"address","internalType":"address"},{"name":"tokenId","type":"uint256","internalType":"uint256"},{"name":"_data","type":"bytes","internalType":"bytes"}],"outputs":[],"stateMutability":"payable"},{"type":"function","name":"setApprovalForAll","inputs":[{"name":"operator","type":"address","internalType":"address"},{"name":"approved","type":"bool","internalType":"bool"}],"outputs":[],"stateMutability":"nonpayable"},{"type":"function","name":"setBaseURI","inputs":[{"name":"newBaseURI","type":"string","internalType":"string"}],"outputs":[],"stateMutability":"nonpayable"},{"type":"function","name":"supportsInterface","inputs":[{"name":"interfaceId","type":"bytes4","internalType":"bytes4"}],"outputs":[{"name":"","type":"bool","internalType":"bool"}],"stateMutability":"view"},{"type":"function","name":"symbol","inputs":[],"outputs":[{"name":"","type":"string","internalType":"string"}],"stateMutability":"view"},{"type":"function","name":"tokenCountNormal","inputs":[],"outputs":[{"name":"","type":"uint256","internalType":"uint256"}],"stateMutability":"view"},{"type":"function","name":"tokenCountVIP","inputs":[],"outputs":[{"name":"","type":"uint256","internalType":"uint256"}],"stateMutability":"view"},{"type":"function","name":"tokenURI","inputs":[{"name":"tokenId","type":"uint256","internalType":"uint256"}],"outputs":[{"name":"","type":"string","internalType":"string"}],"stateMutability":"view"},{"type":"function","name":"totalSupply","inputs":[],"outputs":[{"name":"result","type":"uint256","internalType":"uint256"}],"stateMutability":"view"},{"type":"function","name":"transferFrom","inputs":[{"name":"from","type":"address","internalType":"address"},{"name":"to","type":"address","internalType":"address"},{"name":"tokenId","type":"uint256","internalType":"uint256"}],"outputs":[],"stateMutability":"payable"},{"type":"function","name":"transferOwnership","inputs":[{"name":"newOwner","type":"address","internalType":"address"}],"outputs":[],"stateMutability":"nonpayable"},{"type":"function","name":"withdraw","inputs":[],"outputs":[],"stateMutability":"nonpayable"},{"type":"function","name":"withdrawFeeFunds","inputs":[],"outputs":[],"stateMutability":"nonpayable"},{"type":"event","name":"Approval","inputs":[{"name":"owner","type":"address","indexed":true,"internalType":"address"},{"name":"approved","type":"address","indexed":true,"internalType":"address"},{"name":"tokenId","type":"uint256","indexed":true,"internalType":"uint256"}],"anonymous":false},{"type":"event","name":"ApprovalForAll","inputs":[{"name":"owner","type":"address","indexed":true,"internalType":"address"},{"name":"operator","type":"address","indexed":true,"internalType":"address"},{"name":"approved","type":"bool","indexed":false,"internalType":"bool"}],"anonymous":false},{"type":"event","name":"BatchMetadataUpdate","inputs":[{"name":"fromTokenId","type":"uint256","indexed":true,"internalType":"uint256"},{"name":"toTokenId","type":"uint256","indexed":true,"internalType":"uint256"}],"anonymous":false},{"type":"event","name":"ConsecutiveTransfer","inputs":[{"name":"fromTokenId","type":"uint256","indexed":true,"internalType":"uint256"},{"name":"toTokenId","type":"uint256","indexed":false,"internalType":"uint256"},{"name":"from","type":"address","indexed":true,"internalType":"address"},{"name":"to","type":"address","indexed":true,"internalType":"address"}],"anonymous":false},{"type":"event","name":"FundWithdrawn","inputs":[{"name":"owner","type":"address","indexed":false,"internalType":"address"},{"name":"amount","type":"uint256","indexed":false,"internalType":"uint256"}],"anonymous":false},{"type":"event","name":"NFTMinted","inputs":[{"name":"minter","type":"address","indexed":true,"internalType":"address"},{"name":"amount","type":"uint256","indexed":false,"internalType":"uint256"},{"name":"value","type":"uint256","indexed":false,"internalType":"uint256"}],"anonymous":false},{"type":"event","name":"OwnershipTransferred","inputs":[{"name":"previousOwner","type":"address","indexed":true,"internalType":"address"},{"name":"newOwner","type":"address","indexed":true,"internalType":"address"}],"anonymous":false},{"type":"event","name":"Transfer","inputs":[{"name":"from","type":"address","indexed":true,"internalType":"address"},{"name":"to","type":"address","indexed":true,"internalType":"address"},{"name":"tokenId","type":"uint256","indexed":true,"internalType":"uint256"}],"anonymous":false},{"type":"error","name":"ApprovalCallerNotOwnerNorApproved","inputs":[]},{"type":"error","name":"ApprovalQueryForNonexistentToken","inputs":[]},{"type":"error","name":"BalanceQueryForZeroAddress","inputs":[]},{"type":"error","name":"ExceedsMaxSupply","inputs":[{"name":"requested","type":"uint256","internalType":"uint256"},{"name":"available","type":"uint256","internalType":"uint256"}]},{"type":"error","name":"ExceedsVIPMaxSupply","inputs":[{"name":"requested","type":"uint256","internalType":"uint256"},{"name":"available","type":"uint256","internalType":"uint256"}]},{"type":"error","name":"InsufficientEther","inputs":[{"name":"required","type":"uint256","internalType":"uint256"},{"name":"provided","type":"uint256","internalType":"uint256"}]},{"type":"error","name":"MintERC2309QuantityExceedsLimit","inputs":[]},{"type":"error","name":"MintToZeroAddress","inputs":[]},{"type":"error","name":"MintZeroQuantity","inputs":[]},{"type":"error","name":"NotCompatibleWithSpotMints","inputs":[]},{"type":"error","name":"Overflow","inputs":[]},{"type":"error","name":"OwnableInvalidOwner","inputs":[{"name":"owner","type":"address","internalType":"address"}]},{"type":"error","name":"OwnableUnauthorizedAccount","inputs":[{"name":"account","type":"address","internalType":"address"}]},{"type":"error","name":"OwnerQueryForNonexistentToken","inputs":[]},{"type":"error","name":"OwnershipNotInitializedForExtraData","inputs":[]},{"type":"error","name":"SequentialMintExceedsLimit","inputs":[]},{"type":"error","name":"SequentialUpToTooSmall","inputs":[]},{"type":"error","name":"SpotMintTokenIdTooSmall","inputs":[]},{"type":"error","name":"TokenAlreadyExists","inputs":[]},{"type":"error","name":"TransferCallerNotOwnerNorApproved","inputs":[]},{"type":"error","name":"TransferFromIncorrectOwner","inputs":[]},{"type":"error","name":"TransferToNonERC721ReceiverImplementer","inputs":[]},{"type":"error","name":"TransferToZeroAddress","inputs":[]},{"type":"error","name":"URIQueryForNonexistentToken","inputs":[]}],"bytecode":{"object":"0x60806040523480156200001157600080fd5b50604051620027963803806200279683398101604081905262000034916200016a565b336040518060400160405280600c81526020016b486f6e657947656e6573697360a01b8152506040518060400160405280600c81526020016b484f4e455947454e4553495360a01b8152508160029081620000909190620002d0565b5060036200009f8282620002d0565b50600160005550506001600160a01b038116620000d657604051631e4fbdf760e01b81526000600482015260240160405180910390fd5b620000e18162000102565b506000600a819055600b55600c620000fa8282620002d0565b50506200039c565b600980546001600160a01b038381166001600160a01b0319831681179093556040519116919082907f8be0079c531659141344cd1fd0a4f28419497f9722a3daafe3b4186f6b6457e090600090a35050565b634e487b7160e01b600052604160045260246000fd5b600060208083850312156200017e57600080fd5b82516001600160401b03808211156200019657600080fd5b818501915085601f830112620001ab57600080fd5b815181811115620001c057620001c062000154565b604051601f8201601f19908116603f01168101908382118183101715620001eb57620001eb62000154565b8160405282815288868487010111156200020457600080fd5b600093505b8284101562000228578484018601518185018701529285019262000209565b600086848301015280965050505050505092915050565b600181811c908216806200025457607f821691505b6020821081036200027557634e487b7160e01b600052602260045260246000fd5b50919050565b601f821115620002cb576000816000526020600020601f850160051c81016020861015620002a65750805b601f850160051c820191505b81811015620002c757828155600101620002b2565b5050505b505050565b81516001600160401b03811115620002ec57620002ec62000154565b6200030481620002fd84546200023f565b846200027b565b602080601f8311600181146200033c5760008415620003235750858301515b600019600386901b1c1916600185901b178555620002c7565b600085815260208120601f198616915b828110156200036d578886015182559484019460019091019084016200034c565b50858210156200038c5787850151600019600388901b60f8161c191681555b5050505050600190811b01905550565b6123ea80620003ac6000396000f3fe60806040526004361061021a5760003560e01c806370a0823111610123578063b6342d5e116100ab578063e985e9c51161006f578063e985e9c5146105c3578063eb91d37e146105e3578063ec6533e1146105f8578063f2fde38b1461060e578063fa9b70181461062e57600080fd5b8063b6342d5e1461054b578063b88d4fde14610565578063c4039f6c14610578578063c87b56dd1461058e578063e38f18f2146105ae57600080fd5b806395d89b41116100f257806395d89b41146104b8578063a0712d68146104cd578063a22cb465146104e0578063a690682714610500578063a75c3ad91461053657600080fd5b806370a082311461044a578063715018a61461046a5780638da5cb5b1461047f57806391b8dbb31461049d57600080fd5b806331408098116101a6578063489313521161017557806348931352146103c457806355f804b3146103da5780636352211e146103fa5780636c0360eb1461041a5780636d25d8021461042f57600080fd5b806331408098146103675780633ccfd60b1461037c57806342842e0e1461039157806342c4753e146103a457600080fd5b806318160ddd116101ed57806318160ddd146102c35780631a0aa6db146102ef578063231931bd1461030257806323b872dd146103155780632a55205a1461032857600080fd5b806301ffc9a71461021f57806306fdde0314610254578063081812fc14610276578063095ea7b3146102ae575b600080fd5b34801561022b57600080fd5b5061023f61023a366004611d4c565b610643565b60405190151581526020015b60405180910390f35b34801561026057600080fd5b5061026961066e565b60405161024b9190611db9565b34801561028257600080fd5b50610296610291366004611dcc565b610700565b6040516001600160a01b03909116815260200161024b565b6102c16102bc366004611dfc565b61073b565b005b3480156102cf57600080fd5b506102e1600154600054036000190190565b60405190815260200161024b565b6102c16102fd366004611dcc565b61074b565b6102c1610310366004611dcc565b6109da565b6102c1610323366004611e26565b610bfd565b34801561033457600080fd5b50610348610343366004611e62565b610d5e565b604080516001600160a01b03909316835260208301919091520161024b565b34801561037357600080fd5b506103e86102e1565b34801561038857600080fd5b506102c1610d96565b6102c161039f366004611e26565b610f64565b3480156103b057600080fd5b506102c16103bf366004611ec9565b610f84565b3480156103d057600080fd5b506102e161138881565b3480156103e657600080fd5b506102c16103f5366004611fc1565b611087565b34801561040657600080fd5b50610296610415366004611dcc565b6110cf565b34801561042657600080fd5b506102696110da565b34801561043b57600080fd5b506102e16618de76816d800081565b34801561045657600080fd5b506102e161046536600461200a565b611168565b34801561047657600080fd5b506102c16111ae565b34801561048b57600080fd5b506009546001600160a01b0316610296565b3480156104a957600080fd5b506102e166f8b0a10e47000081565b3480156104c457600080fd5b506102696111c2565b6102c16104db366004611dcc565b6111d1565b3480156104ec57600080fd5b506102c16104fb366004612025565b61149c565b34801561050c57600080fd5b506102e161051b36600461200a565b6001600160a01b03166000908152600d602052604090205490565b34801561054257600080fd5b506102c1611508565b34801561055757600080fd5b5066f52322698080006102e1565b6102c1610573366004612061565b6116a8565b34801561058457600080fd5b506102e1600a5481565b34801561059a57600080fd5b506102696105a9366004611dcc565b6116e3565b3480156105ba57600080fd5b506102e161175e565b3480156105cf57600080fd5b5061023f6105de3660046120dd565b6117a5565b3480156105ef57600080fd5b506102e16117d3565b34801561060457600080fd5b506102e1600b5481565b34801561061a57600080fd5b506102c161062936600461200a565b6117e5565b34801561063a57600080fd5b506102e1601481565b60006001600160e01b0319821663152a902d60e11b1480610668575061066882611823565b92915050565b60606002805461067d90612107565b80601f01602080910402602001604051908101604052809291908181526020018280546106a990612107565b80156106f65780601f106106cb576101008083540402835291602001916106f6565b820191906000526020600020905b8154815290600101906020018083116106d957829003601f168201915b5050505050905090565b600061070b82611871565b61071f5761071f6333d1c03960e21b6118bf565b506000908152600660205260409020546001600160a01b031690565b610747828260016118c9565b5050565b6000610758600a5461196c565b905060006107668383612157565b9050600061077b846603328b944c4000612157565b6064610788846003612157565b610792919061216e565b61079c9190612190565b905060006107aa8284612190565b9050803410156107db5760405163c108422360e01b8152600481018290523460248201526044015b60405180910390fd5b61138885600a546107ec9190612190565b11156108255784600a5461138861080391906121a3565b60405163adc3cee560e01b8152600481019290925260248201526044016107d2565b336000908152600d6020908152604080832054600590925291829020546014921c67ffffffffffffffff1661085a9088612190565b61086491906121a3565b11156108ac5760405162461bcd60e51b8152602060048201526017602482015276115e18d959591cc81b585e081b5a5b9d08185b5bdd5b9d604a1b60448201526064016107d2565b7362c414e104d0a32c3723b59da5854f8b061168316000908152600e60205260008051602061239583398151915280548592906108ea908490612190565b909155505073428deb81a93bed820068724eb1fcc7503d71e4176000908152600e602052600080516020612375833981519152805484929061092d908490612190565b9091555061093d905033866119aa565b84600a600082825461094f9190612190565b90915550506040805186815234602082015233917f3a8a89b59a31c39a36febecb987e0657ab7b7c73b60ebacb44dcb9886c2d5c8a91015b60405180910390a2600061099b82346121a3565b905080156109d257604051339082156108fc029083906000818181858888f193505050501580156109d0573d6000803e3d6000fd5b505b505050505050565b3360006109ee66f523226980800084612157565b90506000610a03846603328b944c4000612157565b90506000610a118284612190565b905080341015610a3d5760405163c108422360e01b8152600481018290523460248201526044016107d2565b6103e885600b54610a4e9190612190565b1115610a875784600b546103e8610a6591906121a3565b604051631b1b5a2360e01b8152600481019290925260248201526044016107d2565b6001600160a01b0384166000908152600d6020526040902054851115610ae85760405162461bcd60e51b81526020600482015260166024820152754578636565647320564950206d696e742071756f746160501b60448201526064016107d2565b6001600160a01b0384166000908152600d602052604081208054879290610b109084906121a3565b90915550507362c414e104d0a32c3723b59da5854f8b061168316000908152600e6020526000805160206123958339815191528054859290610b53908490612190565b909155505073428deb81a93bed820068724eb1fcc7503d71e4176000908152600e6020526000805160206123758339815191528054849290610b96908490612190565b90915550610ba6905033866119aa565b84600b6000828254610bb89190612190565b9091555050604080518681523460208201526001600160a01b038616917f3a8a89b59a31c39a36febecb987e0657ab7b7c73b60ebacb44dcb9886c2d5c8a9101610987565b6000610c08826119c4565b6001600160a01b039485169490915081168414610c2e57610c2e62a1148160e81b6118bf565b60008281526006602052604090208054338082146001600160a01b03881690911417610c7257610c5e86336117a5565b610c7257610c72632ce44b5f60e11b6118bf565b8015610c7d57600082555b6001600160a01b038681166000908152600560205260408082208054600019019055918716808252919020805460010190554260a01b17600160e11b17600085815260046020526040812091909155600160e11b84169003610d0f57600184016000818152600460205260408120549003610d0d576000548114610d0d5760008181526004602052604090208490555b505b6001600160a01b0385168481887fddf252ad1be2c89b69c2b068fc378daa952ba7f163c4a11628f55a4df523b3ef600080a480600003610d5957610d59633a954ecd60e21b6118bf565b6109d0565b7362c414e104d0a32c3723b59da5854f8b0611683160006064610d82846005612157565b610d8c919061216e565b90505b9250929050565b610d9e611a65565b7362c414e104d0a32c3723b59da5854f8b06116831600052600e60205260008051602061239583398151915254610e0e5760405162461bcd60e51b81526020600482015260146024820152734e6f2066756e647320746f20776974686472617760601b60448201526064016107d2565b600e6020526000805160206123958339815191528054600080516020612375833981519152805460009384905573428deb81a93bed820068724eb1fcc7503d71e417845290839055604051919290917362c414e104d0a32c3723b59da5854f8b061168319084908381818185875af1925050503d8060008114610ead576040519150601f19603f3d011682016040523d82523d6000602084013e610eb2565b606091505b505060405190915060009073428deb81a93bed820068724eb1fcc7503d71e4179084908381818185875af1925050503d8060008114610f0d576040519150601f19603f3d011682016040523d82523d6000602084013e610f12565b606091505b50509050818015610f205750805b610f5e5760405162461bcd60e51b815260206004820152600f60248201526e151c985b9cd9995c8819985a5b1959608a1b60448201526064016107d2565b50505050565b610f7f838383604051806020016040528060008152506116a8565b505050565b610f8c611a65565b828114610ff55760405162461bcd60e51b815260206004820152603160248201527f5573657220616e6420616d6f756e7420617272617973206d757374206265206f6044820152700cc40e8d0ca40e6c2daca40d8cadccee8d607b1b60648201526084016107d2565b60005b8381101561108057828282818110611012576110126121b6565b90506020020135600d600087878581811061102f5761102f6121b6565b9050602002016020810190611044919061200a565b6001600160a01b03166001600160a01b0316815260200190815260200160002060008282546110739190612190565b9091555050600101610ff8565b5050505050565b61108f611a65565b600c61109b8282612214565b50604051600019906001907f6bd5c950a8d8df17f772f5af37cb3655737899cbf903264b9795592da439661c90600090a350565b6000610668826119c4565b600c80546110e790612107565b80601f016020809104026020016040519081016040528092919081815260200182805461111390612107565b80156111605780601f1061113557610100808354040283529160200191611160565b820191906000526020600020905b81548152906001019060200180831161114357829003601f168201915b505050505081565b60006001600160a01b038216611188576111886323d3ad8160e21b6118bf565b506001600160a01b031660009081526005602052604090205467ffffffffffffffff1690565b6111b6611a65565b6111c06000611a92565b565b60606003805461067d90612107565b600033905060006111e3600a5461196c565b6111ed9084612157565b90506000611202846603328b944c4000612157565b905060006064611213846003612157565b61121d919061216e565b905060008261122c8386612190565b6112369190612190565b9050803410156112625760405163c108422360e01b8152600481018290523460248201526044016107d2565b61138886600a546112739190612190565b111561128a5785600a5461138861080391906121a3565b336000908152600d6020908152604080832054600590925291829020546014921c67ffffffffffffffff166112bf9089612190565b6112c991906121a3565b11156113115760405162461bcd60e51b8152602060048201526017602482015276115e18d959591cc81b585e081b5a5b9d08185b5bdd5b9d604a1b60448201526064016107d2565b7362c414e104d0a32c3723b59da5854f8b061168316000908152600e602052600080516020612395833981519152805486929061134f908490612190565b90915550507334493029223af065bf14ca0667bcda2e350878af6000908152600e6020527f3b73a9e0d487de59ccad734bbf2273e694473342428f793283b3a25ddde28fa980548492906113a4908490612190565b909155505073428deb81a93bed820068724eb1fcc7503d71e4176000908152600e60205260008051602061237583398151915280548592906113e7908490612190565b909155506113f7905033876119aa565b85600a60008282546114099190612190565b9091555050604080518781523460208201526001600160a01b038716917f3a8a89b59a31c39a36febecb987e0657ab7b7c73b60ebacb44dcb9886c2d5c8a910160405180910390a2600061145d82346121a3565b905080156109d057604051339082156108fc029083906000818181858888f19350505050158015611492573d6000803e3d6000fd5b5050505050505050565b3360008181526007602090815260408083206001600160a01b03871680855290835292819020805460ff191686151590811790915590519081529192917f17307eab39ab6107e8899845ad3d59bd9653f200f220920489ca2b5937696c31910160405180910390a35050565b73428deb81a93bed820068724eb1fcc7503d71e41619330161157c5760405162461bcd60e51b815260206004820152602760248201527f556e617574686f72697a65642c206e6f7420746865204b696e67646f6d6c79206044820152664164647265737360c81b60648201526084016107d2565b73428deb81a93bed820068724eb1fcc7503d71e417600052600e602052600080516020612375833981519152546115ec5760405162461bcd60e51b81526020600482015260146024820152734e6f2066756e647320746f20776974686472617760601b60448201526064016107d2565b73428deb81a93bed820068724eb1fcc7503d71e4176000818152600e60205260008051602061237583398151915280549082905560405190929083908381818185875af1925050503d8060008114611660576040519150601f19603f3d011682016040523d82523d6000602084013e611665565b606091505b50509050806107475760405162461bcd60e51b815260206004820152600f60248201526e151c985b9cd9995c8819985a5b1959608a1b60448201526064016107d2565b6116b3848484610bfd565b6001600160a01b0383163b15610f5e576116cf84848484611ae4565b610f5e57610f5e6368d2bf6b60e11b6118bf565b60606116ee82611871565b61170257611702630a14c4b560e41b6118bf565b600061170c611bc7565b9050805160000361172c5760405180602001604052806000815250611757565b8061173684611bd6565b6040516020016117479291906122d4565b6040516020818303038152906040525b9392505050565b6000806101f4600a546117719190612190565b905061138881111561179657604051631a93c68960e11b815260040160405180910390fd5b61179f8161196c565b91505090565b6001600160a01b03918216600090815260076020908152604080832093909416825291909152205460ff1690565b60006117e0600a5461196c565b905090565b6117ed611a65565b6001600160a01b03811661181757604051631e4fbdf760e01b8152600060048201526024016107d2565b61182081611a92565b50565b60006301ffc9a760e01b6001600160e01b03198316148061185457506380ac58cd60e01b6001600160e01b03198316145b806106685750506001600160e01b031916635b5e139f60e01b1490565b6000816001116118ba576000548210156118ba5760005b50600082815260046020526040812054908190036118b0576118a983612303565b9250611888565b600160e01b161590505b919050565b8060005260046000fd5b60006118d4836110cf565b90508180156118ec5750336001600160a01b03821614155b1561190f576118fb81336117a5565b61190f5761190f6367d9dca160e11b6118bf565b60008381526006602052604080822080546001600160a01b0319166001600160a01b0388811691821790925591518693918516917f8c5be1e5ebec7d5bd14f71427d1e84f3dd0314c0f7b2291e5b200ac8c7c3b92591a450505050565b60008061197b6101f48461216e565b611986906001612190565b90506119996618de76816d800082612157565b6117579066f8b0a10e470000612190565b610747828260405180602001604052806000815250611c1a565b600081600111611a55575060008181526004602052604090205480600003611a425760005482106119ff576119ff636f96cda160e11b6118bf565b5b50600019016000818152600460205260409020548015611a0057600160e01b8116600003611a2d57919050565b611a3d636f96cda160e11b6118bf565b611a00565b600160e01b8116600003611a5557919050565b6118ba636f96cda160e11b6118bf565b6009546001600160a01b031633146111c05760405163118cdaa760e01b81523360048201526024016107d2565b600980546001600160a01b038381166001600160a01b0319831681179093556040519116919082907f8be0079c531659141344cd1fd0a4f28419497f9722a3daafe3b4186f6b6457e090600090a35050565b604051630a85bd0160e11b81526000906001600160a01b0385169063150b7a0290611b1990339089908890889060040161231a565b6020604051808303816000875af1925050508015611b54575060408051601f3d908101601f19168201909252611b5191810190612357565b60015b611ba9573d808015611b82576040519150601f19603f3d011682016040523d82523d6000602084013e611b87565b606091505b508051600003611ba157611ba16368d2bf6b60e11b6118bf565b805181602001fd5b6001600160e01b031916630a85bd0160e11b1490505b949350505050565b6060600c805461067d90612107565b606060a06040510180604052602081039150506000815280825b600183039250600a81066030018353600a900480611bf05750819003601f19909101908152919050565b611c248383611c77565b6001600160a01b0383163b15610f7f576000548281035b611c4e6000868380600101945086611ae4565b611c6257611c626368d2bf6b60e11b6118bf565b818110611c3b57816000541461108057600080fd5b6000805490829003611c9357611c9363b562e8dd60e01b6118bf565b60008181526004602090815260408083206001600160a01b0387164260a01b6001881460e11b17811790915580845260059092528220805468010000000000000001860201905590819003611cf157611cf1622e076360e81b6118bf565b818301825b808360007fddf252ad1be2c89b69c2b068fc378daa952ba7f163c4a11628f55a4df523b3ef600080a4818160010191508103611cf6575060005550505050565b6001600160e01b03198116811461182057600080fd5b600060208284031215611d5e57600080fd5b813561175781611d36565b60005b83811015611d84578181015183820152602001611d6c565b50506000910152565b60008151808452611da5816020860160208601611d69565b601f01601f19169290920160200192915050565b6020815260006117576020830184611d8d565b600060208284031215611dde57600080fd5b5035919050565b80356001600160a01b03811681146118ba57600080fd5b60008060408385031215611e0f57600080fd5b611e1883611de5565b946020939093013593505050565b600080600060608486031215611e3b57600080fd5b611e4484611de5565b9250611e5260208501611de5565b9150604084013590509250925092565b60008060408385031215611e7557600080fd5b50508035926020909101359150565b60008083601f840112611e9657600080fd5b50813567ffffffffffffffff811115611eae57600080fd5b6020830191508360208260051b8501011115610d8f57600080fd5b60008060008060408587031215611edf57600080fd5b843567ffffffffffffffff80821115611ef757600080fd5b611f0388838901611e84565b90965094506020870135915080821115611f1c57600080fd5b50611f2987828801611e84565b95989497509550505050565b634e487b7160e01b600052604160045260246000fd5b600067ffffffffffffffff80841115611f6657611f66611f35565b604051601f8501601f19908116603f01168101908282118183101715611f8e57611f8e611f35565b81604052809350858152868686011115611fa757600080fd5b858560208301376000602087830101525050509392505050565b600060208284031215611fd357600080fd5b813567ffffffffffffffff811115611fea57600080fd5b8201601f81018413611ffb57600080fd5b611bbf84823560208401611f4b565b60006020828403121561201c57600080fd5b61175782611de5565b6000806040838503121561203857600080fd5b61204183611de5565b91506020830135801515811461205657600080fd5b809150509250929050565b6000806000806080858703121561207757600080fd5b61208085611de5565b935061208e60208601611de5565b925060408501359150606085013567ffffffffffffffff8111156120b157600080fd5b8501601f810187136120c257600080fd5b6120d187823560208401611f4b565b91505092959194509250565b600080604083850312156120f057600080fd5b6120f983611de5565b9150610d8c60208401611de5565b600181811c9082168061211b57607f821691505b60208210810361213b57634e487b7160e01b600052602260045260246000fd5b50919050565b634e487b7160e01b600052601160045260246000fd5b808202811582820484141761066857610668612141565b60008261218b57634e487b7160e01b600052601260045260246000fd5b500490565b8082018082111561066857610668612141565b8181038181111561066857610668612141565b634e487b7160e01b600052603260045260246000fd5b601f821115610f7f576000816000526020600020601f850160051c810160208610156121f55750805b601f850160051c820191505b818110156109d257828155600101612201565b815167ffffffffffffffff81111561222e5761222e611f35565b6122428161223c8454612107565b846121cc565b602080601f831160018114612277576000841561225f5750858301515b600019600386901b1c1916600185901b1785556109d2565b600085815260208120601f198616915b828110156122a657888601518255948401946001909101908401612287565b50858210156122c45787850151600019600388901b60f8161c191681555b5050505050600190811b01905550565b600083516122e6818460208801611d69565b8351908301906122fa818360208801611d69565b01949350505050565b60008161231257612312612141565b506000190190565b6001600160a01b038581168252841660208201526040810183905260806060820181905260009061234d90830184611d8d565b9695505050505050565b60006020828403121561236957600080fd5b815161175781611d3656fe6bed103f89a0acc40f835de3087219f307dff646e85f0952f1e510d136c638f32c65f52be73870b89a4c8496f5b5bbe4dba3258d4e914671429535ae1769c7dea2646970667358221220ba130c3f2f4c44ddf27ec9907a102242ae9a2aabcd327826ce6ce6f85bbcf17364736f6c63430008180033","linkReferences":{}},"methodIdentifiers":{"MAX_MINT_AMOUNT()":"fa9b7018","MINT_UNIT_PRICE()":"91b8dbb3","PRICE_INCREMENT()":"6d25d802","TOTAL_SUPPLY_CAP()":"48931352","approve(address,uint256)":"095ea7b3","balanceOf(address)":"70a08231","baseURI()":"6c0360eb","getApproved(uint256)":"081812fc","getCurrentPrice()":"eb91d37e","getNextNFTPrice()":"e38f18f2","getTotalVIPNFTCount()":"31408098","getVIPMintQuota(address)":"a6906827","getVIPPrice()":"b6342d5e","incrementVIPMintQuota(address[],uint256[])":"42c4753e","isApprovedForAll(address,address)":"e985e9c5","mint(uint256)":"a0712d68","mintVIP(uint256)":"231931bd","mintbyKingdomly(uint256)":"1a0aa6db","name()":"06fdde03","owner()":"8da5cb5b","ownerOf(uint256)":"6352211e","renounceOwnership()":"715018a6","royaltyInfo(uint256,uint256)":"2a55205a","safeTransferFrom(address,address,uint256)":"42842e0e","safeTransferFrom(address,address,uint256,bytes)":"b88d4fde","setApprovalForAll(address,bool)":"a22cb465","setBaseURI(string)":"55f804b3","supportsInterface(bytes4)":"01ffc9a7","symbol()":"95d89b41","tokenCountNormal()":"c4039f6c","tokenCountVIP()":"ec6533e1","tokenURI(uint256)":"c87b56dd","totalSupply()":"18160ddd","transferFrom(address,address,uint256)":"23b872dd","transferOwnership(address)":"f2fde38b","withdraw()":"3ccfd60b","withdrawFeeFunds()":"a75c3ad9"},"id":7}