{"abi":[{"type":"constructor","inputs":[],"stateMutability":"nonpayable"},{"type":"function","name":"addVIPMinter","inputs":[{"name":"minter","type":"address","internalType":"address"},{"name":"amount","type":"uint256","internalType":"uint256"}],"outputs":[],"stateMutability":"nonpayable"},{"type":"function","name":"addVIPMinterTestnet","inputs":[{"name":"minter","type":"address","internalType":"address"},{"name":"amount","type":"uint256","internalType":"uint256"}],"outputs":[],"stateMutability":"nonpayable"},{"type":"function","name":"approve","inputs":[{"name":"to","type":"address","internalType":"address"},{"name":"tokenId","type":"uint256","internalType":"uint256"}],"outputs":[],"stateMutability":"payable"},{"type":"function","name":"balanceOf","inputs":[{"name":"owner","type":"address","internalType":"address"}],"outputs":[{"name":"","type":"uint256","internalType":"uint256"}],"stateMutability":"view"},{"type":"function","name":"getApproved","inputs":[{"name":"tokenId","type":"uint256","internalType":"uint256"}],"outputs":[{"name":"","type":"address","internalType":"address"}],"stateMutability":"view"},{"type":"function","name":"getCurrentPrice","inputs":[],"outputs":[{"name":"","type":"uint256","internalType":"uint256"}],"stateMutability":"view"},{"type":"function","name":"getMintedNFTsCount","inputs":[],"outputs":[{"name":"","type":"uint256","internalType":"uint256"}],"stateMutability":"view"},{"type":"function","name":"getMintedVIPNFTsCount","inputs":[],"outputs":[{"name":"","type":"uint256","internalType":"uint256"}],"stateMutability":"view"},{"type":"function","name":"getNextNFTPrice","inputs":[],"outputs":[{"name":"","type":"uint256","internalType":"uint256"}],"stateMutability":"view"},{"type":"function","name":"getTotalNFTCount","inputs":[],"outputs":[{"name":"","type":"uint256","internalType":"uint256"}],"stateMutability":"pure"},{"type":"function","name":"getTotalVIPNFTCount","inputs":[],"outputs":[{"name":"","type":"uint256","internalType":"uint256"}],"stateMutability":"pure"},{"type":"function","name":"getVIPMintQuota","inputs":[{"name":"user","type":"address","internalType":"address"}],"outputs":[{"name":"","type":"uint256","internalType":"uint256"}],"stateMutability":"view"},{"type":"function","name":"getVIPPrice","inputs":[],"outputs":[{"name":"","type":"uint256","internalType":"uint256"}],"stateMutability":"pure"},{"type":"function","name":"isApprovedForAll","inputs":[{"name":"owner","type":"address","internalType":"address"},{"name":"operator","type":"address","internalType":"address"}],"outputs":[{"name":"","type":"bool","internalType":"bool"}],"stateMutability":"view"},{"type":"function","name":"mint","inputs":[{"name":"amount","type":"uint256","internalType":"uint256"}],"outputs":[],"stateMutability":"payable"},{"type":"function","name":"mintVIP","inputs":[{"name":"amount","type":"uint256","internalType":"uint256"}],"outputs":[],"stateMutability":"payable"},{"type":"function","name":"mintbyKingdomly","inputs":[{"name":"amount","type":"uint256","internalType":"uint256"}],"outputs":[],"stateMutability":"payable"},{"type":"function","name":"name","inputs":[],"outputs":[{"name":"","type":"string","internalType":"string"}],"stateMutability":"view"},{"type":"function","name":"owner","inputs":[],"outputs":[{"name":"","type":"address","internalType":"address"}],"stateMutability":"view"},{"type":"function","name":"ownerOf","inputs":[{"name":"tokenId","type":"uint256","internalType":"uint256"}],"outputs":[{"name":"","type":"address","internalType":"address"}],"stateMutability":"view"},{"type":"function","name":"renounceOwnership","inputs":[],"outputs":[],"stateMutability":"nonpayable"},{"type":"function","name":"royaltyInfo","inputs":[{"name":"","type":"uint256","internalType":"uint256"},{"name":"salePrice","type":"uint256","internalType":"uint256"}],"outputs":[{"name":"receiver","type":"address","internalType":"address"},{"name":"royaltyAmount","type":"uint256","internalType":"uint256"}],"stateMutability":"view"},{"type":"function","name":"safeTransferFrom","inputs":[{"name":"from","type":"address","internalType":"address"},{"name":"to","type":"address","internalType":"address"},{"name":"tokenId","type":"uint256","internalType":"uint256"}],"outputs":[],"stateMutability":"payable"},{"type":"function","name":"safeTransferFrom","inputs":[{"name":"from","type":"address","internalType":"address"},{"name":"to","type":"address","internalType":"address"},{"name":"tokenId","type":"uint256","internalType":"uint256"},{"name":"_data","type":"bytes","internalType":"bytes"}],"outputs":[],"stateMutability":"payable"},{"type":"function","name":"setApprovalForAll","inputs":[{"name":"operator","type":"address","internalType":"address"},{"name":"approved","type":"bool","internalType":"bool"}],"outputs":[],"stateMutability":"nonpayable"},{"type":"function","name":"supportsInterface","inputs":[{"name":"interfaceId","type":"bytes4","internalType":"bytes4"}],"outputs":[{"name":"","type":"bool","internalType":"bool"}],"stateMutability":"view"},{"type":"function","name":"symbol","inputs":[],"outputs":[{"name":"","type":"string","internalType":"string"}],"stateMutability":"view"},{"type":"function","name":"tokenCountNormal","inputs":[],"outputs":[{"name":"","type":"uint256","internalType":"uint256"}],"stateMutability":"view"},{"type":"function","name":"tokenCountVIP","inputs":[],"outputs":[{"name":"","type":"uint256","internalType":"uint256"}],"stateMutability":"view"},{"type":"function","name":"tokenURI","inputs":[{"name":"tokenId","type":"uint256","internalType":"uint256"}],"outputs":[{"name":"","type":"string","internalType":"string"}],"stateMutability":"view"},{"type":"function","name":"totalSupply","inputs":[],"outputs":[{"name":"result","type":"uint256","internalType":"uint256"}],"stateMutability":"view"},{"type":"function","name":"transferFrom","inputs":[{"name":"from","type":"address","internalType":"address"},{"name":"to","type":"address","internalType":"address"},{"name":"tokenId","type":"uint256","internalType":"uint256"}],"outputs":[],"stateMutability":"payable"},{"type":"function","name":"transferOwnership","inputs":[{"name":"newOwner","type":"address","internalType":"address"}],"outputs":[],"stateMutability":"nonpayable"},{"type":"function","name":"withdraw","inputs":[],"outputs":[],"stateMutability":"nonpayable"},{"type":"function","name":"withdrawTestnet","inputs":[],"outputs":[],"stateMutability":"nonpayable"},{"type":"event","name":"Approval","inputs":[{"name":"owner","type":"address","indexed":true,"internalType":"address"},{"name":"approved","type":"address","indexed":true,"internalType":"address"},{"name":"tokenId","type":"uint256","indexed":true,"internalType":"uint256"}],"anonymous":false},{"type":"event","name":"ApprovalForAll","inputs":[{"name":"owner","type":"address","indexed":true,"internalType":"address"},{"name":"operator","type":"address","indexed":true,"internalType":"address"},{"name":"approved","type":"bool","indexed":false,"internalType":"bool"}],"anonymous":false},{"type":"event","name":"ConsecutiveTransfer","inputs":[{"name":"fromTokenId","type":"uint256","indexed":true,"internalType":"uint256"},{"name":"toTokenId","type":"uint256","indexed":false,"internalType":"uint256"},{"name":"from","type":"address","indexed":true,"internalType":"address"},{"name":"to","type":"address","indexed":true,"internalType":"address"}],"anonymous":false},{"type":"event","name":"FundWithdrawn","inputs":[{"name":"owner","type":"address","indexed":false,"internalType":"address"},{"name":"amount","type":"uint256","indexed":false,"internalType":"uint256"}],"anonymous":false},{"type":"event","name":"NFTMinted","inputs":[{"name":"minter","type":"address","indexed":true,"internalType":"address"},{"name":"amount","type":"uint256","indexed":false,"internalType":"uint256"},{"name":"value","type":"uint256","indexed":false,"internalType":"uint256"}],"anonymous":false},{"type":"event","name":"OwnershipTransferred","inputs":[{"name":"previousOwner","type":"address","indexed":true,"internalType":"address"},{"name":"newOwner","type":"address","indexed":true,"internalType":"address"}],"anonymous":false},{"type":"event","name":"Transfer","inputs":[{"name":"from","type":"address","indexed":true,"internalType":"address"},{"name":"to","type":"address","indexed":true,"internalType":"address"},{"name":"tokenId","type":"uint256","indexed":true,"internalType":"uint256"}],"anonymous":false},{"type":"error","name":"ApprovalCallerNotOwnerNorApproved","inputs":[]},{"type":"error","name":"ApprovalQueryForNonexistentToken","inputs":[]},{"type":"error","name":"BalanceQueryForZeroAddress","inputs":[]},{"type":"error","name":"ExceedsMaxAvailable","inputs":[{"name":"requested","type":"uint256","internalType":"uint256"},{"name":"available","type":"uint256","internalType":"uint256"}]},{"type":"error","name":"ExceedsMaxSupply","inputs":[{"name":"requested","type":"uint256","internalType":"uint256"},{"name":"available","type":"uint256","internalType":"uint256"}]},{"type":"error","name":"ExceedsVIPMaxSupply","inputs":[{"name":"requested","type":"uint256","internalType":"uint256"},{"name":"available","type":"uint256","internalType":"uint256"}]},{"type":"error","name":"InsufficientEther","inputs":[{"name":"required","type":"uint256","internalType":"uint256"},{"name":"provided","type":"uint256","internalType":"uint256"}]},{"type":"error","name":"MintERC2309QuantityExceedsLimit","inputs":[]},{"type":"error","name":"MintToZeroAddress","inputs":[]},{"type":"error","name":"MintZeroQuantity","inputs":[]},{"type":"error","name":"NotCompatibleWithSpotMints","inputs":[]},{"type":"error","name":"Overflow","inputs":[]},{"type":"error","name":"OwnableInvalidOwner","inputs":[{"name":"owner","type":"address","internalType":"address"}]},{"type":"error","name":"OwnableUnauthorizedAccount","inputs":[{"name":"account","type":"address","internalType":"address"}]},{"type":"error","name":"OwnerQueryForNonexistentToken","inputs":[]},{"type":"error","name":"OwnershipNotInitializedForExtraData","inputs":[]},{"type":"error","name":"SequentialMintExceedsLimit","inputs":[]},{"type":"error","name":"SequentialUpToTooSmall","inputs":[]},{"type":"error","name":"SpotMintTokenIdTooSmall","inputs":[]},{"type":"error","name":"TokenAlreadyExists","inputs":[]},{"type":"error","name":"TransferCallerNotOwnerNorApproved","inputs":[]},{"type":"error","name":"TransferFromIncorrectOwner","inputs":[]},{"type":"error","name":"TransferToNonERC721ReceiverImplementer","inputs":[]},{"type":"error","name":"TransferToZeroAddress","inputs":[]},{"type":"error","name":"URIQueryForNonexistentToken","inputs":[]}],"bytecode":{"object":"0x60806040523480156200001157600080fd5b50336040518060400160405280600c81526020016b486f6e657947656e6573697360a01b8152506040518060400160405280600c81526020016b484f4e455947454e4553495360a01b81525081600290816200006e9190620001c8565b5060036200007d8282620001c8565b505060008055506001600160a01b038116620000b357604051631e4fbdf760e01b81526000600482015260240160405180910390fd5b620000be81620000cf565b506000600a819055600b5562000294565b600980546001600160a01b038381166001600160a01b0319831681179093556040519116919082907f8be0079c531659141344cd1fd0a4f28419497f9722a3daafe3b4186f6b6457e090600090a35050565b634e487b7160e01b600052604160045260246000fd5b600181811c908216806200014c57607f821691505b6020821081036200016d57634e487b7160e01b600052602260045260246000fd5b50919050565b601f821115620001c3576000816000526020600020601f850160051c810160208610156200019e5750805b601f850160051c820191505b81811015620001bf57828155600101620001aa565b5050505b505050565b81516001600160401b03811115620001e457620001e462000121565b620001fc81620001f5845462000137565b8462000173565b602080601f8311600181146200023457600084156200021b5750858301515b600019600386901b1c1916600185901b178555620001bf565b600085815260208120601f198616915b82811015620002655788860151825594840194600190910190840162000244565b5085821015620002845787850151600019600388901b60f8161c191681555b5050505050600190811b01905550565b611a1180620002a46000396000f3fe6080604052600436106102045760003560e01c80638da5cb5b11610118578063c4039f6c116100a0578063e38f18f21161006f578063e38f18f21461056b578063e985e9c514610580578063eb91d37e146105a0578063ec6533e1146105b5578063f2fde38b146105cb57600080fd5b8063c4039f6c14610500578063c87b56dd14610516578063d5f129ad14610536578063dffab7e41461054b57600080fd5b8063a4f6c8ae116100e7578063a4f6c8ae14610474578063a690682714610489578063b6342d5e146104bf578063b88d4fde146104d8578063bc50c9c1146104eb57600080fd5b80638da5cb5b1461040e57806395d89b411461042c578063a0712d6814610441578063a22cb4651461045457600080fd5b80632660aabc1161019b5780633db190351161016a5780633db190351461038657806342842e0e146103a65780636352211e146103b957806370a08231146103d9578063715018a6146103f957600080fd5b80632660aabc146103095780632a55205a1461031e578063314080981461035d5780633ccfd60b1461037157600080fd5b806318160ddd116101d757806318160ddd146102ad5780631a0aa6db146102d0578063231931bd146102e357806323b872dd146102f657600080fd5b806301ffc9a71461020957806306fdde031461023e578063081812fc14610260578063095ea7b314610298575b600080fd5b34801561021557600080fd5b5061022961022436600461159e565b6105eb565b60405190151581526020015b60405180910390f35b34801561024a57600080fd5b50610253610616565b604051610235919061160b565b34801561026c57600080fd5b5061028061027b36600461161e565b6106a8565b6040516001600160a01b039091168152602001610235565b6102ab6102a636600461164e565b6106e3565b005b3480156102b957600080fd5b50600154600054035b604051908152602001610235565b6102ab6102de36600461161e565b6106f3565b6102ab6102f136600461161e565b6108ee565b6102ab610304366004611678565b610ab1565b34801561031557600080fd5b50600b546102c2565b34801561032a57600080fd5b5061033e6103393660046116b4565b610c12565b604080516001600160a01b039093168352602083019190915201610235565b34801561036957600080fd5b5060326102c2565b34801561037d57600080fd5b506102ab610c49565b34801561039257600080fd5b506102ab6103a136600461164e565b610d90565b6102ab6103b4366004611678565b610dc1565b3480156103c557600080fd5b506102806103d436600461161e565b610de1565b3480156103e557600080fd5b506102c26103f43660046116d6565b610dec565b34801561040557600080fd5b506102ab610e32565b34801561041a57600080fd5b506009546001600160a01b0316610280565b34801561043857600080fd5b50610253610e46565b6102ab61044f36600461161e565b610e55565b34801561046057600080fd5b506102ab61046f3660046116f1565b610e8f565b34801561048057600080fd5b506102ab610c51565b34801561049557600080fd5b506102c26104a43660046116d6565b6001600160a01b03166000908152600c602052604090205490565b3480156104cb57600080fd5b50650646880c88006102c2565b6102ab6104e6366004611743565b610efb565b3480156104f757600080fd5b506103e86102c2565b34801561050c57600080fd5b506102c2600a5481565b34801561052257600080fd5b5061025361053136600461161e565b610f36565b34801561054257600080fd5b50600a546102c2565b34801561055757600080fd5b506102ab61056636600461164e565b610fb1565b34801561057757600080fd5b506102c2610fb9565b34801561058c57600080fd5b5061022961059b36600461181f565b610fff565b3480156105ac57600080fd5b506102c261102d565b3480156105c157600080fd5b506102c2600b5481565b3480156105d757600080fd5b506102ab6105e63660046116d6565b61103f565b60006001600160e01b0319821663152a902d60e11b148061061057506106108261107d565b92915050565b60606002805461062590611849565b80601f016020809104026020016040519081016040528092919081815260200182805461065190611849565b801561069e5780601f106106735761010080835404028352916020019161069e565b820191906000526020600020905b81548152906001019060200180831161068157829003601f168201915b5050505050905090565b60006106b3826110cb565b6106c7576106c76333d1c03960e21b611110565b506000908152600660205260409020546001600160a01b031690565b6106ef8282600161111a565b5050565b6000610700600a546111bd565b9050600061070e8383611899565b905060006107238466038d7ea4c68000611899565b6064610730846003611899565b61073a91906118b0565b61074491906118d2565b9050600061075282846118d2565b9050803410156107835760405163c108422360e01b8152600481018290523460248201526044015b60405180910390fd5b6103e885600a5461079491906118d2565b11156107cd5784600a546103e86107ab91906118e5565b60405163adc3cee560e01b81526004810192909252602482015260440161077a565b336000908152600c60205260409020546107e890600a6118d2565b33600090815260056020526040908190205461080f911c67ffffffffffffffff16876118d2565b1161085f5733600090815260056020526040908190205486911c67ffffffffffffffff1661083e90600a6118e5565b60405162becc9760e81b81526004810192909252602482015260440161077a565b61086933866111f7565b6040805186815234602082015233917f3a8a89b59a31c39a36febecb987e0657ab7b7c73b60ebacb44dcb9886c2d5c8a910160405180910390a260006108af82346118e5565b905080156108e657604051339082156108fc029083906000818181858888f193505050501580156108e4573d6000803e3d6000fd5b505b505050505050565b336000610901650646880c880084611899565b90508034101561092d5760405163c108422360e01b81526004810182905234602482015260440161077a565b603283600b5461093d91906118d2565b11156109755782600b54603261095391906118e5565b604051631b1b5a2360e01b81526004810192909252602482015260440161077a565b6001600160a01b0382166000908152600c60205260409020548311156109d65760405162461bcd60e51b81526020600482015260166024820152754578636565647320564950206d696e742071756f746160501b604482015260640161077a565b6001600160a01b0382166000908152600c6020526040812080548592906109fe9084906118e5565b90915550610a0e905033846111f7565b82600b6000828254610a2091906118d2565b9091555050604080518481523460208201526001600160a01b038416917f3a8a89b59a31c39a36febecb987e0657ab7b7c73b60ebacb44dcb9886c2d5c8a910160405180910390a26000610a7482346118e5565b90508015610aab57604051339082156108fc029083906000818181858888f19350505050158015610aa9573d6000803e3d6000fd5b505b50505050565b6000610abc82611211565b6001600160a01b039485169490915081168414610ae257610ae262a1148160e81b611110565b60008281526006602052604090208054338082146001600160a01b03881690911417610b2657610b128633610fff565b610b2657610b26632ce44b5f60e11b611110565b8015610b3157600082555b6001600160a01b038681166000908152600560205260408082208054600019019055918716808252919020805460010190554260a01b17600160e11b17600085815260046020526040812091909155600160e11b84169003610bc357600184016000818152600460205260408120549003610bc1576000548114610bc15760008181526004602052604090208490555b505b6001600160a01b0385168481887fddf252ad1be2c89b69c2b068fc378daa952ba7f163c4a11628f55a4df523b3ef600080a480600003610c0d57610c0d633a954ecd60e21b611110565b6108e4565b600080610c276009546001600160a01b031690565b91506064610c36846005611899565b610c4091906118b0565b90509250929050565b610c516112a7565b4780610c965760405162461bcd60e51b81526020600482015260146024820152734e6f2066756e647320746f20776974686472617760601b604482015260640161077a565b7fa692503bc54c9f1d1483729b6058a24987097ff492084b1a8adf8cae08e4fb43610cc96009546001600160a01b031690565b604080516001600160a01b039092168252602082018490520160405180910390a16000610cfe6009546001600160a01b031690565b6001600160a01b03164760405160006040518083038185875af1925050503d8060008114610d48576040519150601f19603f3d011682016040523d82523d6000602084013e610d4d565b606091505b50509050806106ef5760405162461bcd60e51b815260206004820152600f60248201526e151c985b9cd9995c8819985a5b1959608a1b604482015260640161077a565b6001600160a01b0382166000908152600c602052604081208054839290610db89084906118d2565b90915550505050565b610ddc83838360405180602001604052806000815250610efb565b505050565b600061061082611211565b60006001600160a01b038216610e0c57610e0c6323d3ad8160e21b611110565b506001600160a01b031660009081526005602052604090205467ffffffffffffffff1690565b610e3a6112a7565b610e4460006112d4565b565b60606003805461062590611849565b60003390506000610e67600a546111bd565b610e719084611899565b9050610e7d33846111f7565b82600a6000828254610a2091906118d2565b3360008181526007602090815260408083206001600160a01b03871680855290835292819020805460ff191686151590811790915590519081529192917f17307eab39ab6107e8899845ad3d59bd9653f200f220920489ca2b5937696c31910160405180910390a35050565b610f06848484610ab1565b6001600160a01b0383163b15610aab57610f2284848484611326565b610aab57610aab6368d2bf6b60e11b611110565b6060610f41826110cb565b610f5557610f55630a14c4b560e41b611110565b6000610f5f611408565b90508051600003610f7f5760405180602001604052806000815250610faa565b80610f8984611428565b604051602001610f9a9291906118f8565b6040516020818303038152906040525b9392505050565b610d906112a7565b6000806064600a54610fcb91906118d2565b90506103e8811115610ff057604051631a93c68960e11b815260040160405180910390fd5b610ff9816111bd565b91505090565b6001600160a01b03918216600090815260076020908152604080832093909416825291909152205460ff1690565b600061103a600a546111bd565b905090565b6110476112a7565b6001600160a01b03811661107157604051631e4fbdf760e01b81526000600482015260240161077a565b61107a816112d4565b50565b60006301ffc9a760e01b6001600160e01b0319831614806110ae57506380ac58cd60e01b6001600160e01b03198316145b806106105750506001600160e01b031916635b5e139f60e01b1490565b6000805482101561110b5760005b5060008281526004602052604081205490819003611101576110fa83611927565b92506110d9565b600160e01b161590505b919050565b8060005260046000fd5b600061112583610de1565b905081801561113d5750336001600160a01b03821614155b156111605761114c8133610fff565b611160576111606367d9dca160e11b611110565b60008381526006602052604080822080546001600160a01b0319166001600160a01b0388811691821790925591518693918516917f8c5be1e5ebec7d5bd14f71427d1e84f3dd0314c0f7b2291e5b200ac8c7c3b92591a450505050565b6000806111cb6064846118b0565b6111d69060016118d2565b90506111e764a2fb40580082611899565b610faa9065065dd08370006118d2565b6106ef82826040518060200160405280600081525061146c565b6000818152600460205260409020548060000361128457600054821061124157611241636f96cda160e11b611110565b5b5060001901600081815260046020526040902054801561124257600160e01b811660000361126f57919050565b61127f636f96cda160e11b611110565b611242565b600160e01b811660000361129757919050565b61110b636f96cda160e11b611110565b6009546001600160a01b03163314610e445760405163118cdaa760e01b815233600482015260240161077a565b600980546001600160a01b038381166001600160a01b0319831681179093556040519116919082907f8be0079c531659141344cd1fd0a4f28419497f9722a3daafe3b4186f6b6457e090600090a35050565b604051630a85bd0160e11b81526000906001600160a01b0385169063150b7a029061135b90339089908890889060040161193e565b6020604051808303816000875af1925050508015611396575060408051601f3d908101601f191682019092526113939181019061197b565b60015b6113eb573d8080156113c4576040519150601f19603f3d011682016040523d82523d6000602084013e6113c9565b606091505b5080516000036113e3576113e36368d2bf6b60e11b611110565b805181602001fd5b6001600160e01b031916630a85bd0160e11b149050949350505050565b606060405180608001604052806043815260200161199960439139905090565b606060a06040510180604052602081039150506000815280825b600183039250600a81066030018353600a9004806114425750819003601f19909101908152919050565b61147683836114c9565b6001600160a01b0383163b15610ddc576000548281035b6114a06000868380600101945086611326565b6114b4576114b46368d2bf6b60e11b611110565b81811061148d578160005414610aa957600080fd5b60008054908290036114e5576114e563b562e8dd60e01b611110565b60008181526004602090815260408083206001600160a01b0387164260a01b6001881460e11b1781179091558084526005909252822080546801000000000000000186020190559081900361154357611543622e076360e81b611110565b818301825b808360007fddf252ad1be2c89b69c2b068fc378daa952ba7f163c4a11628f55a4df523b3ef600080a4818160010191508103611548575060005550505050565b6001600160e01b03198116811461107a57600080fd5b6000602082840312156115b057600080fd5b8135610faa81611588565b60005b838110156115d65781810151838201526020016115be565b50506000910152565b600081518084526115f78160208601602086016115bb565b601f01601f19169290920160200192915050565b602081526000610faa60208301846115df565b60006020828403121561163057600080fd5b5035919050565b80356001600160a01b038116811461110b57600080fd5b6000806040838503121561166157600080fd5b61166a83611637565b946020939093013593505050565b60008060006060848603121561168d57600080fd5b61169684611637565b92506116a460208501611637565b9150604084013590509250925092565b600080604083850312156116c757600080fd5b50508035926020909101359150565b6000602082840312156116e857600080fd5b610faa82611637565b6000806040838503121561170457600080fd5b61170d83611637565b91506020830135801515811461172257600080fd5b809150509250929050565b634e487b7160e01b600052604160045260246000fd5b6000806000806080858703121561175957600080fd5b61176285611637565b935061177060208601611637565b925060408501359150606085013567ffffffffffffffff8082111561179457600080fd5b818701915087601f8301126117a857600080fd5b8135818111156117ba576117ba61172d565b604051601f8201601f19908116603f011681019083821181831017156117e2576117e261172d565b816040528281528a60208487010111156117fb57600080fd5b82602086016020830137600060208483010152809550505050505092959194509250565b6000806040838503121561183257600080fd5b61183b83611637565b9150610c4060208401611637565b600181811c9082168061185d57607f821691505b60208210810361187d57634e487b7160e01b600052602260045260246000fd5b50919050565b634e487b7160e01b600052601160045260246000fd5b808202811582820484141761061057610610611883565b6000826118cd57634e487b7160e01b600052601260045260246000fd5b500490565b8082018082111561061057610610611883565b8181038181111561061057610610611883565b6000835161190a8184602088016115bb565b83519083019061191e8183602088016115bb565b01949350505050565b60008161193657611936611883565b506000190190565b6001600160a01b0385811682528416602082015260408101839052608060608201819052600090611971908301846115df565b9695505050505050565b60006020828403121561198d57600080fd5b8151610faa8161158856fe68747470733a2f2f697066732e696f2f697066732f516d554662556a416966763947774a6f3775665442357363636e724e71454c68444d61666f456d5a6450506e6737a2646970667358221220849bb3d9a0e631899c87c56a39699796116addfd903f6754e982dab9e348d79c64736f6c63430008180033","linkReferences":{}},"methodIdentifiers":{"addVIPMinter(address,uint256)":"dffab7e4","addVIPMinterTestnet(address,uint256)":"3db19035","approve(address,uint256)":"095ea7b3","balanceOf(address)":"70a08231","getApproved(uint256)":"081812fc","getCurrentPrice()":"eb91d37e","getMintedNFTsCount()":"d5f129ad","getMintedVIPNFTsCount()":"2660aabc","getNextNFTPrice()":"e38f18f2","getTotalNFTCount()":"bc50c9c1","getTotalVIPNFTCount()":"31408098","getVIPMintQuota(address)":"a6906827","getVIPPrice()":"b6342d5e","isApprovedForAll(address,address)":"e985e9c5","mint(uint256)":"a0712d68","mintVIP(uint256)":"231931bd","mintbyKingdomly(uint256)":"1a0aa6db","name()":"06fdde03","owner()":"8da5cb5b","ownerOf(uint256)":"6352211e","renounceOwnership()":"715018a6","royaltyInfo(uint256,uint256)":"2a55205a","safeTransferFrom(address,address,uint256)":"42842e0e","safeTransferFrom(address,address,uint256,bytes)":"b88d4fde","setApprovalForAll(address,bool)":"a22cb465","supportsInterface(bytes4)":"01ffc9a7","symbol()":"95d89b41","tokenCountNormal()":"c4039f6c","tokenCountVIP()":"ec6533e1","tokenURI(uint256)":"c87b56dd","totalSupply()":"18160ddd","transferFrom(address,address,uint256)":"23b872dd","transferOwnership(address)":"f2fde38b","withdraw()":"3ccfd60b","withdrawTestnet()":"a4f6c8ae"},"id":41}