{"abi":[{"type":"constructor","inputs":[],"stateMutability":"nonpayable"},{"type":"function","name":"addVIPMinter","inputs":[{"name":"minter","type":"address","internalType":"address"},{"name":"amount","type":"uint256","internalType":"uint256"}],"outputs":[],"stateMutability":"nonpayable"},{"type":"function","name":"addVIPMinterTestnet","inputs":[{"name":"minter","type":"address","internalType":"address"},{"name":"amount","type":"uint256","internalType":"uint256"}],"outputs":[],"stateMutability":"nonpayable"},{"type":"function","name":"approve","inputs":[{"name":"to","type":"address","internalType":"address"},{"name":"tokenId","type":"uint256","internalType":"uint256"}],"outputs":[],"stateMutability":"nonpayable"},{"type":"function","name":"balanceOf","inputs":[{"name":"owner","type":"address","internalType":"address"}],"outputs":[{"name":"","type":"uint256","internalType":"uint256"}],"stateMutability":"view"},{"type":"function","name":"getApproved","inputs":[{"name":"tokenId","type":"uint256","internalType":"uint256"}],"outputs":[{"name":"","type":"address","internalType":"address"}],"stateMutability":"view"},{"type":"function","name":"getCurrentPrice","inputs":[],"outputs":[{"name":"","type":"uint256","internalType":"uint256"}],"stateMutability":"view"},{"type":"function","name":"getMintedNFTsCount","inputs":[],"outputs":[{"name":"","type":"uint256","internalType":"uint256"}],"stateMutability":"view"},{"type":"function","name":"getMintedVIPNFTsCount","inputs":[],"outputs":[{"name":"","type":"uint256","internalType":"uint256"}],"stateMutability":"view"},{"type":"function","name":"getNextNFTPrice","inputs":[],"outputs":[{"name":"","type":"uint256","internalType":"uint256"}],"stateMutability":"view"},{"type":"function","name":"getTotalNFTCount","inputs":[],"outputs":[{"name":"","type":"uint256","internalType":"uint256"}],"stateMutability":"pure"},{"type":"function","name":"getTotalVIPNFTCount","inputs":[],"outputs":[{"name":"","type":"uint256","internalType":"uint256"}],"stateMutability":"pure"},{"type":"function","name":"getVIPMintQuota","inputs":[{"name":"user","type":"address","internalType":"address"}],"outputs":[{"name":"","type":"uint256","internalType":"uint256"}],"stateMutability":"view"},{"type":"function","name":"getVIPPrice","inputs":[],"outputs":[{"name":"","type":"uint256","internalType":"uint256"}],"stateMutability":"pure"},{"type":"function","name":"isApprovedForAll","inputs":[{"name":"owner","type":"address","internalType":"address"},{"name":"operator","type":"address","internalType":"address"}],"outputs":[{"name":"","type":"bool","internalType":"bool"}],"stateMutability":"view"},{"type":"function","name":"mint","inputs":[{"name":"amount","type":"uint256","internalType":"uint256"}],"outputs":[],"stateMutability":"payable"},{"type":"function","name":"mintVIP","inputs":[{"name":"amount","type":"uint256","internalType":"uint256"}],"outputs":[],"stateMutability":"payable"},{"type":"function","name":"mintbyKingdomly","inputs":[{"name":"amount","type":"uint256","internalType":"uint256"}],"outputs":[],"stateMutability":"payable"},{"type":"function","name":"name","inputs":[],"outputs":[{"name":"","type":"string","internalType":"string"}],"stateMutability":"view"},{"type":"function","name":"owner","inputs":[],"outputs":[{"name":"","type":"address","internalType":"address"}],"stateMutability":"view"},{"type":"function","name":"ownerOf","inputs":[{"name":"tokenId","type":"uint256","internalType":"uint256"}],"outputs":[{"name":"","type":"address","internalType":"address"}],"stateMutability":"view"},{"type":"function","name":"renounceOwnership","inputs":[],"outputs":[],"stateMutability":"nonpayable"},{"type":"function","name":"royaltyInfo","inputs":[{"name":"","type":"uint256","internalType":"uint256"},{"name":"salePrice","type":"uint256","internalType":"uint256"}],"outputs":[{"name":"receiver","type":"address","internalType":"address"},{"name":"royaltyAmount","type":"uint256","internalType":"uint256"}],"stateMutability":"view"},{"type":"function","name":"safeTransferFrom","inputs":[{"name":"from","type":"address","internalType":"address"},{"name":"to","type":"address","internalType":"address"},{"name":"tokenId","type":"uint256","internalType":"uint256"}],"outputs":[],"stateMutability":"nonpayable"},{"type":"function","name":"safeTransferFrom","inputs":[{"name":"from","type":"address","internalType":"address"},{"name":"to","type":"address","internalType":"address"},{"name":"tokenId","type":"uint256","internalType":"uint256"},{"name":"data","type":"bytes","internalType":"bytes"}],"outputs":[],"stateMutability":"nonpayable"},{"type":"function","name":"setApprovalForAll","inputs":[{"name":"operator","type":"address","internalType":"address"},{"name":"approved","type":"bool","internalType":"bool"}],"outputs":[],"stateMutability":"nonpayable"},{"type":"function","name":"supportsInterface","inputs":[{"name":"interfaceId","type":"bytes4","internalType":"bytes4"}],"outputs":[{"name":"","type":"bool","internalType":"bool"}],"stateMutability":"view"},{"type":"function","name":"symbol","inputs":[],"outputs":[{"name":"","type":"string","internalType":"string"}],"stateMutability":"view"},{"type":"function","name":"tokenCountNormal","inputs":[],"outputs":[{"name":"","type":"uint256","internalType":"uint256"}],"stateMutability":"view"},{"type":"function","name":"tokenCountVIP","inputs":[],"outputs":[{"name":"","type":"uint256","internalType":"uint256"}],"stateMutability":"view"},{"type":"function","name":"tokenURI","inputs":[{"name":"tokenId","type":"uint256","internalType":"uint256"}],"outputs":[{"name":"","type":"string","internalType":"string"}],"stateMutability":"view"},{"type":"function","name":"transferFrom","inputs":[{"name":"from","type":"address","internalType":"address"},{"name":"to","type":"address","internalType":"address"},{"name":"tokenId","type":"uint256","internalType":"uint256"}],"outputs":[],"stateMutability":"nonpayable"},{"type":"function","name":"transferOwnership","inputs":[{"name":"newOwner","type":"address","internalType":"address"}],"outputs":[],"stateMutability":"nonpayable"},{"type":"function","name":"withdraw","inputs":[],"outputs":[],"stateMutability":"nonpayable"},{"type":"function","name":"withdrawTestnet","inputs":[],"outputs":[],"stateMutability":"nonpayable"},{"type":"event","name":"Approval","inputs":[{"name":"owner","type":"address","indexed":true,"internalType":"address"},{"name":"approved","type":"address","indexed":true,"internalType":"address"},{"name":"tokenId","type":"uint256","indexed":true,"internalType":"uint256"}],"anonymous":false},{"type":"event","name":"ApprovalForAll","inputs":[{"name":"owner","type":"address","indexed":true,"internalType":"address"},{"name":"operator","type":"address","indexed":true,"internalType":"address"},{"name":"approved","type":"bool","indexed":false,"internalType":"bool"}],"anonymous":false},{"type":"event","name":"FundWithdrawn","inputs":[{"name":"owner","type":"address","indexed":false,"internalType":"address"},{"name":"amount","type":"uint256","indexed":false,"internalType":"uint256"}],"anonymous":false},{"type":"event","name":"NFTMinted","inputs":[{"name":"minter","type":"address","indexed":true,"internalType":"address"},{"name":"amount","type":"uint256","indexed":false,"internalType":"uint256"},{"name":"value","type":"uint256","indexed":false,"internalType":"uint256"}],"anonymous":false},{"type":"event","name":"OwnershipTransferred","inputs":[{"name":"previousOwner","type":"address","indexed":true,"internalType":"address"},{"name":"newOwner","type":"address","indexed":true,"internalType":"address"}],"anonymous":false},{"type":"event","name":"Transfer","inputs":[{"name":"from","type":"address","indexed":true,"internalType":"address"},{"name":"to","type":"address","indexed":true,"internalType":"address"},{"name":"tokenId","type":"uint256","indexed":true,"internalType":"uint256"}],"anonymous":false},{"type":"error","name":"ERC721IncorrectOwner","inputs":[{"name":"sender","type":"address","internalType":"address"},{"name":"tokenId","type":"uint256","internalType":"uint256"},{"name":"owner","type":"address","internalType":"address"}]},{"type":"error","name":"ERC721InsufficientApproval","inputs":[{"name":"operator","type":"address","internalType":"address"},{"name":"tokenId","type":"uint256","internalType":"uint256"}]},{"type":"error","name":"ERC721InvalidApprover","inputs":[{"name":"approver","type":"address","internalType":"address"}]},{"type":"error","name":"ERC721InvalidOperator","inputs":[{"name":"operator","type":"address","internalType":"address"}]},{"type":"error","name":"ERC721InvalidOwner","inputs":[{"name":"owner","type":"address","internalType":"address"}]},{"type":"error","name":"ERC721InvalidReceiver","inputs":[{"name":"receiver","type":"address","internalType":"address"}]},{"type":"error","name":"ERC721InvalidSender","inputs":[{"name":"sender","type":"address","internalType":"address"}]},{"type":"error","name":"ERC721NonexistentToken","inputs":[{"name":"tokenId","type":"uint256","internalType":"uint256"}]},{"type":"error","name":"ExceedsMaxAvailable","inputs":[{"name":"requested","type":"uint256","internalType":"uint256"},{"name":"available","type":"uint256","internalType":"uint256"}]},{"type":"error","name":"ExceedsMaxSupply","inputs":[{"name":"requested","type":"uint256","internalType":"uint256"},{"name":"available","type":"uint256","internalType":"uint256"}]},{"type":"error","name":"ExceedsVIPMaxSupply","inputs":[{"name":"requested","type":"uint256","internalType":"uint256"},{"name":"available","type":"uint256","internalType":"uint256"}]},{"type":"error","name":"InsufficientEther","inputs":[{"name":"required","type":"uint256","internalType":"uint256"},{"name":"provided","type":"uint256","internalType":"uint256"}]},{"type":"error","name":"Overflow","inputs":[]},{"type":"error","name":"OwnableInvalidOwner","inputs":[{"name":"owner","type":"address","internalType":"address"}]},{"type":"error","name":"OwnableUnauthorizedAccount","inputs":[{"name":"account","type":"address","internalType":"address"}]}],"bytecode":{"object":"0x60806040523480156200001157600080fd5b50336040518060400160405280600c81526020016b486f6e657947656e6573697360a01b8152506040518060400160405280600c81526020016b484f4e455947454e4553495360a01b81525081600090816200006e9190620001c4565b5060016200007d8282620001c4565b5050506001600160a01b038116620000af57604051631e4fbdf760e01b81526000600482015260240160405180910390fd5b620000ba81620000cb565b506000600781905560085562000290565b600680546001600160a01b038381166001600160a01b0319831681179093556040519116919082907f8be0079c531659141344cd1fd0a4f28419497f9722a3daafe3b4186f6b6457e090600090a35050565b634e487b7160e01b600052604160045260246000fd5b600181811c908216806200014857607f821691505b6020821081036200016957634e487b7160e01b600052602260045260246000fd5b50919050565b601f821115620001bf576000816000526020600020601f850160051c810160208610156200019a5750805b601f850160051c820191505b81811015620001bb57828155600101620001a6565b5050505b505050565b81516001600160401b03811115620001e057620001e06200011d565b620001f881620001f1845462000133565b846200016f565b602080601f831160018114620002305760008415620002175750858301515b600019600386901b1c1916600185901b178555620001bb565b600085815260208120601f198616915b82811015620002615788860151825594840194600190910190840162000240565b5085821015620002805787850151600019600388901b60f8161c191681555b5050505050600190811b01905550565b611b3180620002a06000396000f3fe6080604052600436106101f95760003560e01c806395d89b411161010d578063c4039f6c116100a0578063e38f18f21161006f578063e38f18f21461057b578063e985e9c514610590578063eb91d37e146105b0578063ec6533e1146105c5578063f2fde38b146105db57600080fd5b8063c4039f6c14610510578063c87b56dd14610526578063d5f129ad14610546578063dffab7e41461055b57600080fd5b8063a6906827116100dc578063a69068271461048c578063b6342d5e146104c2578063b88d4fde146104db578063bc50c9c1146104fb57600080fd5b806395d89b411461042f578063a0712d6814610444578063a22cb46514610457578063a4f6c8ae1461047757600080fd5b80632a55205a1161019057806342842e0e1161015f57806342842e0e1461039c5780636352211e146103bc57806370a08231146103dc578063715018a6146103fc5780638da5cb5b1461041157600080fd5b80632a55205a1461031457806331408098146103535780633ccfd60b146103675780633db190351461037c57600080fd5b80631a0aa6db116101cc5780631a0aa6db146102af578063231931bd146102c257806323b872dd146102d55780632660aabc146102f557600080fd5b806301ffc9a7146101fe57806306fdde0314610233578063081812fc14610255578063095ea7b31461028d575b600080fd5b34801561020a57600080fd5b5061021e6102193660046116d0565b6105fb565b60405190151581526020015b60405180910390f35b34801561023f57600080fd5b50610248610626565b60405161022a919061173d565b34801561026157600080fd5b50610275610270366004611750565b6106b8565b6040516001600160a01b03909116815260200161022a565b34801561029957600080fd5b506102ad6102a8366004611785565b6106e1565b005b6102ad6102bd366004611750565b6106f0565b6102ad6102d0366004611750565b61089e565b3480156102e157600080fd5b506102ad6102f03660046117af565b610a64565b34801561030157600080fd5b506008545b60405190815260200161022a565b34801561032057600080fd5b5061033461032f3660046117eb565b610ae9565b604080516001600160a01b03909316835260208301919091520161022a565b34801561035f57600080fd5b506032610306565b34801561037357600080fd5b506102ad610b20565b34801561038857600080fd5b506102ad610397366004611785565b610c67565b3480156103a857600080fd5b506102ad6103b73660046117af565b610c98565b3480156103c857600080fd5b506102756103d7366004611750565b610cb8565b3480156103e857600080fd5b506103066103f736600461180d565b610cc3565b34801561040857600080fd5b506102ad610d0b565b34801561041d57600080fd5b506006546001600160a01b0316610275565b34801561043b57600080fd5b50610248610d1f565b6102ad610452366004611750565b610d2e565b34801561046357600080fd5b506102ad610472366004611828565b610d6a565b34801561048357600080fd5b506102ad610b28565b34801561049857600080fd5b506103066104a736600461180d565b6001600160a01b031660009081526009602052604090205490565b3480156104ce57600080fd5b50650646880c8800610306565b3480156104e757600080fd5b506102ad6104f636600461187a565b610d75565b34801561050757600080fd5b506103e8610306565b34801561051c57600080fd5b5061030660075481565b34801561053257600080fd5b50610248610541366004611750565b610d8c565b34801561055257600080fd5b50600754610306565b34801561056757600080fd5b506102ad610576366004611785565b610df4565b34801561058757600080fd5b50610306610dfc565b34801561059c57600080fd5b5061021e6105ab366004611956565b610e42565b3480156105bc57600080fd5b50610306610e70565b3480156105d157600080fd5b5061030660085481565b3480156105e757600080fd5b506102ad6105f636600461180d565b610e82565b60006001600160e01b0319821663152a902d60e11b1480610620575061062082610ec0565b92915050565b60606000805461063590611980565b80601f016020809104026020016040519081016040528092919081815260200182805461066190611980565b80156106ae5780601f10610683576101008083540402835291602001916106ae565b820191906000526020600020905b81548152906001019060200180831161069157829003601f168201915b5050505050905090565b60006106c382610f10565b506000828152600460205260409020546001600160a01b0316610620565b6106ec828233610f49565b5050565b60006106fd600754610f56565b9050600061070b83836119d0565b905060006107208466038d7ea4c680006119d0565b606461072d8460036119d0565b61073791906119e7565b6107419190611a09565b9050600061074f8284611a09565b9050803410156107805760405163c108422360e01b8152600481018290523460248201526044015b60405180910390fd5b6103e8856007546107919190611a09565b11156107ca57846007546103e86107a89190611a1c565b60405163adc3cee560e01b815260048101929092526024820152604401610777565b336000908152600960205260409020546107e590600a611a09565b851161080d5760405162becc9760e81b815260048101869052600a6024820152604401610777565b61081933600754610f90565b6040805186815234602082015233917f3a8a89b59a31c39a36febecb987e0657ab7b7c73b60ebacb44dcb9886c2d5c8a910160405180910390a2600061085f8234611a1c565b9050801561089657604051339082156108fc029083906000818181858888f19350505050158015610894573d6000803e3d6000fd5b505b505050505050565b3360006108b1650646880c8800846119d0565b9050803410156108dd5760405163c108422360e01b815260048101829052346024820152604401610777565b6032836008546108ed9190611a09565b1115610925578260085460326109039190611a1c565b604051631b1b5a2360e01b815260048101929092526024820152604401610777565b6001600160a01b0382166000908152600960205260409020548311156109865760405162461bcd60e51b81526020600482015260166024820152754578636565647320564950206d696e742071756f746160501b6044820152606401610777565b6001600160a01b038216600090815260096020526040812080548592906109ae908490611a1c565b925050819055506109c133600754610f90565b82600860008282546109d39190611a09565b9091555050604080518481523460208201526001600160a01b038416917f3a8a89b59a31c39a36febecb987e0657ab7b7c73b60ebacb44dcb9886c2d5c8a910160405180910390a26000610a278234611a1c565b90508015610a5e57604051339082156108fc029083906000818181858888f19350505050158015610a5c573d6000803e3d6000fd5b505b50505050565b6001600160a01b038216610a8e57604051633250574960e11b815260006004820152602401610777565b6000610a9b838333610faa565b9050836001600160a01b0316816001600160a01b031614610a5e576040516364283d7b60e01b81526001600160a01b0380861660048301526024820184905282166044820152606401610777565b600080610afe6006546001600160a01b031690565b91506064610b0d8460056119d0565b610b1791906119e7565b90509250929050565b610b286110a3565b4780610b6d5760405162461bcd60e51b81526020600482015260146024820152734e6f2066756e647320746f20776974686472617760601b6044820152606401610777565b7fa692503bc54c9f1d1483729b6058a24987097ff492084b1a8adf8cae08e4fb43610ba06006546001600160a01b031690565b604080516001600160a01b039092168252602082018490520160405180910390a16000610bd56006546001600160a01b031690565b6001600160a01b03164760405160006040518083038185875af1925050503d8060008114610c1f576040519150601f19603f3d011682016040523d82523d6000602084013e610c24565b606091505b50509050806106ec5760405162461bcd60e51b815260206004820152600f60248201526e151c985b9cd9995c8819985a5b1959608a1b6044820152606401610777565b6001600160a01b03821660009081526009602052604081208054839290610c8f908490611a09565b90915550505050565b610cb383838360405180602001604052806000815250610d75565b505050565b600061062082610f10565b60006001600160a01b038216610cef576040516322718ad960e21b815260006004820152602401610777565b506001600160a01b031660009081526003602052604090205490565b610d136110a3565b610d1d60006110d0565b565b60606001805461063590611980565b60003390506000610d40600754610f56565b610d4a90846119d0565b9050610d5833600754610f90565b82600760008282546109d39190611a09565b6106ec338383611122565b610d80848484610a64565b610a5e848484846111c1565b6060610d9782610f10565b506000610da26112e3565b90506000815111610dc25760405180602001604052806000815250610ded565b80610dcc84611303565b604051602001610ddd929190611a2f565b6040516020818303038152906040525b9392505050565b610c676110a3565b6000806064600754610e0e9190611a09565b90506103e8811115610e3357604051631a93c68960e11b815260040160405180910390fd5b610e3c81610f56565b91505090565b6001600160a01b03918216600090815260056020908152604080832093909416825291909152205460ff1690565b6000610e7d600754610f56565b905090565b610e8a6110a3565b6001600160a01b038116610eb457604051631e4fbdf760e01b815260006004820152602401610777565b610ebd816110d0565b50565b60006001600160e01b031982166380ac58cd60e01b1480610ef157506001600160e01b03198216635b5e139f60e01b145b8061062057506301ffc9a760e01b6001600160e01b0319831614610620565b6000818152600260205260408120546001600160a01b03168061062057604051637e27328960e01b815260048101849052602401610777565b610cb38383836001611396565b600080610f646064846119e7565b610f6f906001611a09565b9050610f8064a2fb405800826119d0565b610ded9065065dd0837000611a09565b6106ec82826040518060200160405280600081525061149c565b6000828152600260205260408120546001600160a01b0390811690831615610fd757610fd78184866114b3565b6001600160a01b0381161561101557610ff4600085600080611396565b6001600160a01b038116600090815260036020526040902080546000190190555b6001600160a01b03851615611044576001600160a01b0385166000908152600360205260409020805460010190555b60008481526002602052604080822080546001600160a01b0319166001600160a01b0389811691821790925591518793918516917fddf252ad1be2c89b69c2b068fc378daa952ba7f163c4a11628f55a4df523b3ef91a4949350505050565b6006546001600160a01b03163314610d1d5760405163118cdaa760e01b8152336004820152602401610777565b600680546001600160a01b038381166001600160a01b0319831681179093556040519116919082907f8be0079c531659141344cd1fd0a4f28419497f9722a3daafe3b4186f6b6457e090600090a35050565b6001600160a01b03821661115457604051630b61174360e31b81526001600160a01b0383166004820152602401610777565b6001600160a01b03838116600081815260056020908152604080832094871680845294825291829020805460ff191686151590811790915591519182527f17307eab39ab6107e8899845ad3d59bd9653f200f220920489ca2b5937696c31910160405180910390a3505050565b6001600160a01b0383163b15610a5e57604051630a85bd0160e11b81526001600160a01b0384169063150b7a0290611203903390889087908790600401611a5e565b6020604051808303816000875af192505050801561123e575060408051601f3d908101601f1916820190925261123b91810190611a9b565b60015b6112a7573d80801561126c576040519150601f19603f3d011682016040523d82523d6000602084013e611271565b606091505b50805160000361129f57604051633250574960e11b81526001600160a01b0385166004820152602401610777565b805181602001fd5b6001600160e01b03198116630a85bd0160e11b14610a5c57604051633250574960e11b81526001600160a01b0385166004820152602401610777565b6060604051806080016040528060438152602001611ab960439139905090565b6060600061131083611517565b600101905060008167ffffffffffffffff81111561133057611330611864565b6040519080825280601f01601f19166020018201604052801561135a576020820181803683370190505b5090508181016020015b600019016f181899199a1a9b1b9c1cb0b131b232b360811b600a86061a8153600a850494508461136457509392505050565b80806113aa57506001600160a01b03821615155b1561146c5760006113ba84610f10565b90506001600160a01b038316158015906113e65750826001600160a01b0316816001600160a01b031614155b80156113f957506113f78184610e42565b155b156114225760405163a9fbf51f60e01b81526001600160a01b0384166004820152602401610777565b811561146a5783856001600160a01b0316826001600160a01b03167f8c5be1e5ebec7d5bd14f71427d1e84f3dd0314c0f7b2291e5b200ac8c7c3b92560405160405180910390a45b505b5050600090815260046020526040902080546001600160a01b0319166001600160a01b0392909216919091179055565b6114a683836115ef565b610cb360008484846111c1565b6114be838383611654565b610cb3576001600160a01b0383166114ec57604051637e27328960e01b815260048101829052602401610777565b60405163177e802f60e01b81526001600160a01b038316600482015260248101829052604401610777565b60008072184f03e93ff9f4daa797ed6e38ed64bf6a1f0160401b83106115565772184f03e93ff9f4daa797ed6e38ed64bf6a1f0160401b830492506040015b6d04ee2d6d415b85acef81000000008310611582576d04ee2d6d415b85acef8100000000830492506020015b662386f26fc1000083106115a057662386f26fc10000830492506010015b6305f5e10083106115b8576305f5e100830492506008015b61271083106115cc57612710830492506004015b606483106115de576064830492506002015b600a83106106205760010192915050565b6001600160a01b03821661161957604051633250574960e11b815260006004820152602401610777565b600061162783836000610faa565b90506001600160a01b03811615610cb3576040516339e3563760e11b815260006004820152602401610777565b60006001600160a01b038316158015906116b25750826001600160a01b0316846001600160a01b0316148061168e575061168e8484610e42565b806116b257506000828152600460205260409020546001600160a01b038481169116145b949350505050565b6001600160e01b031981168114610ebd57600080fd5b6000602082840312156116e257600080fd5b8135610ded816116ba565b60005b838110156117085781810151838201526020016116f0565b50506000910152565b600081518084526117298160208601602086016116ed565b601f01601f19169290920160200192915050565b602081526000610ded6020830184611711565b60006020828403121561176257600080fd5b5035919050565b80356001600160a01b038116811461178057600080fd5b919050565b6000806040838503121561179857600080fd5b6117a183611769565b946020939093013593505050565b6000806000606084860312156117c457600080fd5b6117cd84611769565b92506117db60208501611769565b9150604084013590509250925092565b600080604083850312156117fe57600080fd5b50508035926020909101359150565b60006020828403121561181f57600080fd5b610ded82611769565b6000806040838503121561183b57600080fd5b61184483611769565b91506020830135801515811461185957600080fd5b809150509250929050565b634e487b7160e01b600052604160045260246000fd5b6000806000806080858703121561189057600080fd5b61189985611769565b93506118a760208601611769565b925060408501359150606085013567ffffffffffffffff808211156118cb57600080fd5b818701915087601f8301126118df57600080fd5b8135818111156118f1576118f1611864565b604051601f8201601f19908116603f0116810190838211818310171561191957611919611864565b816040528281528a602084870101111561193257600080fd5b82602086016020830137600060208483010152809550505050505092959194509250565b6000806040838503121561196957600080fd5b61197283611769565b9150610b1760208401611769565b600181811c9082168061199457607f821691505b6020821081036119b457634e487b7160e01b600052602260045260246000fd5b50919050565b634e487b7160e01b600052601160045260246000fd5b8082028115828204841417610620576106206119ba565b600082611a0457634e487b7160e01b600052601260045260246000fd5b500490565b80820180821115610620576106206119ba565b81810381811115610620576106206119ba565b60008351611a418184602088016116ed565b835190830190611a558183602088016116ed565b01949350505050565b6001600160a01b0385811682528416602082015260408101839052608060608201819052600090611a9190830184611711565b9695505050505050565b600060208284031215611aad57600080fd5b8151610ded816116ba56fe68747470733a2f2f697066732e696f2f697066732f516d554662556a416966763947774a6f3775665442357363636e724e71454c68444d61666f456d5a6450506e6737a2646970667358221220f022f27a6efcaadfed8e1923bfa258ed0d27872e9aefb5f5d76530d7d0f274de64736f6c63430008180033","linkReferences":{}},"methodIdentifiers":{"addVIPMinter(address,uint256)":"dffab7e4","addVIPMinterTestnet(address,uint256)":"3db19035","approve(address,uint256)":"095ea7b3","balanceOf(address)":"70a08231","getApproved(uint256)":"081812fc","getCurrentPrice()":"eb91d37e","getMintedNFTsCount()":"d5f129ad","getMintedVIPNFTsCount()":"2660aabc","getNextNFTPrice()":"e38f18f2","getTotalNFTCount()":"bc50c9c1","getTotalVIPNFTCount()":"31408098","getVIPMintQuota(address)":"a6906827","getVIPPrice()":"b6342d5e","isApprovedForAll(address,address)":"e985e9c5","mint(uint256)":"a0712d68","mintVIP(uint256)":"231931bd","mintbyKingdomly(uint256)":"1a0aa6db","name()":"06fdde03","owner()":"8da5cb5b","ownerOf(uint256)":"6352211e","renounceOwnership()":"715018a6","royaltyInfo(uint256,uint256)":"2a55205a","safeTransferFrom(address,address,uint256)":"42842e0e","safeTransferFrom(address,address,uint256,bytes)":"b88d4fde","setApprovalForAll(address,bool)":"a22cb465","supportsInterface(bytes4)":"01ffc9a7","symbol()":"95d89b41","tokenCountNormal()":"c4039f6c","tokenCountVIP()":"ec6533e1","tokenURI(uint256)":"c87b56dd","transferFrom(address,address,uint256)":"23b872dd","transferOwnership(address)":"f2fde38b","withdraw()":"3ccfd60b","withdrawTestnet()":"a4f6c8ae"},"id":42}