{"abi":[{"type":"constructor","inputs":[],"stateMutability":"nonpayable"},{"type":"function","name":"approve","inputs":[{"name":"to","type":"address","internalType":"address"},{"name":"tokenId","type":"uint256","internalType":"uint256"}],"outputs":[],"stateMutability":"nonpayable"},{"type":"function","name":"balanceOf","inputs":[{"name":"owner","type":"address","internalType":"address"}],"outputs":[{"name":"","type":"uint256","internalType":"uint256"}],"stateMutability":"view"},{"type":"function","name":"getApproved","inputs":[{"name":"tokenId","type":"uint256","internalType":"uint256"}],"outputs":[{"name":"","type":"address","internalType":"address"}],"stateMutability":"view"},{"type":"function","name":"getCurrentPrice","inputs":[],"outputs":[{"name":"","type":"uint256","internalType":"uint256"}],"stateMutability":"view"},{"type":"function","name":"getMintedNFTsCount","inputs":[],"outputs":[{"name":"","type":"uint256","internalType":"uint256"}],"stateMutability":"view"},{"type":"function","name":"getMintedVIPNFTsCount","inputs":[],"outputs":[{"name":"","type":"uint256","internalType":"uint256"}],"stateMutability":"view"},{"type":"function","name":"getNextNFTPrice","inputs":[],"outputs":[{"name":"","type":"uint256","internalType":"uint256"}],"stateMutability":"view"},{"type":"function","name":"getTotalNFTCount","inputs":[],"outputs":[{"name":"","type":"uint256","internalType":"uint256"}],"stateMutability":"pure"},{"type":"function","name":"getTotalVIPNFTCount","inputs":[],"outputs":[{"name":"","type":"uint256","internalType":"uint256"}],"stateMutability":"pure"},{"type":"function","name":"getVIPMintQuota","inputs":[{"name":"user","type":"address","internalType":"address"}],"outputs":[{"name":"","type":"uint256","internalType":"uint256"}],"stateMutability":"view"},{"type":"function","name":"getVIPPrice","inputs":[],"outputs":[{"name":"","type":"uint256","internalType":"uint256"}],"stateMutability":"pure"},{"type":"function","name":"incrementVIPMintQuota","inputs":[{"name":"user","type":"address","internalType":"address"},{"name":"amount","type":"uint256","internalType":"uint256"}],"outputs":[],"stateMutability":"nonpayable"},{"type":"function","name":"isApprovedForAll","inputs":[{"name":"owner","type":"address","internalType":"address"},{"name":"operator","type":"address","internalType":"address"}],"outputs":[{"name":"","type":"bool","internalType":"bool"}],"stateMutability":"view"},{"type":"function","name":"merkleRoot","inputs":[],"outputs":[{"name":"","type":"bytes32","internalType":"bytes32"}],"stateMutability":"view"},{"type":"function","name":"mint","inputs":[{"name":"amount","type":"uint256","internalType":"uint256"}],"outputs":[],"stateMutability":"payable"},{"type":"function","name":"mintVIP","inputs":[{"name":"amount","type":"uint256","internalType":"uint256"}],"outputs":[],"stateMutability":"payable"},{"type":"function","name":"name","inputs":[],"outputs":[{"name":"","type":"string","internalType":"string"}],"stateMutability":"view"},{"type":"function","name":"owner","inputs":[],"outputs":[{"name":"","type":"address","internalType":"address"}],"stateMutability":"view"},{"type":"function","name":"ownerOf","inputs":[{"name":"tokenId","type":"uint256","internalType":"uint256"}],"outputs":[{"name":"","type":"address","internalType":"address"}],"stateMutability":"view"},{"type":"function","name":"renounceOwnership","inputs":[],"outputs":[],"stateMutability":"nonpayable"},{"type":"function","name":"royaltyInfo","inputs":[{"name":"","type":"uint256","internalType":"uint256"},{"name":"salePrice","type":"uint256","internalType":"uint256"}],"outputs":[{"name":"receiver","type":"address","internalType":"address"},{"name":"royaltyAmount","type":"uint256","internalType":"uint256"}],"stateMutability":"view"},{"type":"function","name":"safeTransferFrom","inputs":[{"name":"from","type":"address","internalType":"address"},{"name":"to","type":"address","internalType":"address"},{"name":"tokenId","type":"uint256","internalType":"uint256"}],"outputs":[],"stateMutability":"nonpayable"},{"type":"function","name":"safeTransferFrom","inputs":[{"name":"from","type":"address","internalType":"address"},{"name":"to","type":"address","internalType":"address"},{"name":"tokenId","type":"uint256","internalType":"uint256"},{"name":"data","type":"bytes","internalType":"bytes"}],"outputs":[],"stateMutability":"nonpayable"},{"type":"function","name":"setApprovalForAll","inputs":[{"name":"operator","type":"address","internalType":"address"},{"name":"approved","type":"bool","internalType":"bool"}],"outputs":[],"stateMutability":"nonpayable"},{"type":"function","name":"supportsInterface","inputs":[{"name":"interfaceId","type":"bytes4","internalType":"bytes4"}],"outputs":[{"name":"","type":"bool","internalType":"bool"}],"stateMutability":"view"},{"type":"function","name":"symbol","inputs":[],"outputs":[{"name":"","type":"string","internalType":"string"}],"stateMutability":"view"},{"type":"function","name":"tokenCountNormal","inputs":[],"outputs":[{"name":"","type":"uint256","internalType":"uint256"}],"stateMutability":"view"},{"type":"function","name":"tokenCountVIP","inputs":[],"outputs":[{"name":"","type":"uint256","internalType":"uint256"}],"stateMutability":"view"},{"type":"function","name":"tokenId","inputs":[],"outputs":[{"name":"","type":"uint256","internalType":"uint256"}],"stateMutability":"view"},{"type":"function","name":"tokenURI","inputs":[{"name":"tokenId","type":"uint256","internalType":"uint256"}],"outputs":[{"name":"","type":"string","internalType":"string"}],"stateMutability":"view"},{"type":"function","name":"transferFrom","inputs":[{"name":"from","type":"address","internalType":"address"},{"name":"to","type":"address","internalType":"address"},{"name":"tokenId","type":"uint256","internalType":"uint256"}],"outputs":[],"stateMutability":"nonpayable"},{"type":"function","name":"transferOwnership","inputs":[{"name":"newOwner","type":"address","internalType":"address"}],"outputs":[],"stateMutability":"nonpayable"},{"type":"function","name":"withdraw","inputs":[],"outputs":[],"stateMutability":"nonpayable"},{"type":"event","name":"Approval","inputs":[{"name":"owner","type":"address","indexed":true,"internalType":"address"},{"name":"approved","type":"address","indexed":true,"internalType":"address"},{"name":"tokenId","type":"uint256","indexed":true,"internalType":"uint256"}],"anonymous":false},{"type":"event","name":"ApprovalForAll","inputs":[{"name":"owner","type":"address","indexed":true,"internalType":"address"},{"name":"operator","type":"address","indexed":true,"internalType":"address"},{"name":"approved","type":"bool","indexed":false,"internalType":"bool"}],"anonymous":false},{"type":"event","name":"FundWithdrawn","inputs":[{"name":"owner","type":"address","indexed":false,"internalType":"address"},{"name":"amount","type":"uint256","indexed":false,"internalType":"uint256"}],"anonymous":false},{"type":"event","name":"NFTMinted","inputs":[{"name":"minter","type":"address","indexed":true,"internalType":"address"},{"name":"amount","type":"uint256","indexed":false,"internalType":"uint256"},{"name":"value","type":"uint256","indexed":false,"internalType":"uint256"}],"anonymous":false},{"type":"event","name":"OwnershipTransferred","inputs":[{"name":"previousOwner","type":"address","indexed":true,"internalType":"address"},{"name":"newOwner","type":"address","indexed":true,"internalType":"address"}],"anonymous":false},{"type":"event","name":"Transfer","inputs":[{"name":"from","type":"address","indexed":true,"internalType":"address"},{"name":"to","type":"address","indexed":true,"internalType":"address"},{"name":"tokenId","type":"uint256","indexed":true,"internalType":"uint256"}],"anonymous":false},{"type":"error","name":"ERC721IncorrectOwner","inputs":[{"name":"sender","type":"address","internalType":"address"},{"name":"tokenId","type":"uint256","internalType":"uint256"},{"name":"owner","type":"address","internalType":"address"}]},{"type":"error","name":"ERC721InsufficientApproval","inputs":[{"name":"operator","type":"address","internalType":"address"},{"name":"tokenId","type":"uint256","internalType":"uint256"}]},{"type":"error","name":"ERC721InvalidApprover","inputs":[{"name":"approver","type":"address","internalType":"address"}]},{"type":"error","name":"ERC721InvalidOperator","inputs":[{"name":"operator","type":"address","internalType":"address"}]},{"type":"error","name":"ERC721InvalidOwner","inputs":[{"name":"owner","type":"address","internalType":"address"}]},{"type":"error","name":"ERC721InvalidReceiver","inputs":[{"name":"receiver","type":"address","internalType":"address"}]},{"type":"error","name":"ERC721InvalidSender","inputs":[{"name":"sender","type":"address","internalType":"address"}]},{"type":"error","name":"ERC721NonexistentToken","inputs":[{"name":"tokenId","type":"uint256","internalType":"uint256"}]},{"type":"error","name":"OwnableInvalidOwner","inputs":[{"name":"owner","type":"address","internalType":"address"}]},{"type":"error","name":"OwnableUnauthorizedAccount","inputs":[{"name":"account","type":"address","internalType":"address"}]}],"bytecode":{"object":"0x60806040523480156200001157600080fd5b50336040518060400160405280600c81526020016b486f6e657947656e6573697360a01b81525060405180604001604052806005815260200164484f4e455960d81b8152508160009081620000679190620001c2565b506001620000768282620001c2565b5050506001600160a01b038116620000a857604051631e4fbdf760e01b81526000600482015260240160405180910390fd5b620000b381620000c9565b50600060088190556009819055600a556200028e565b600680546001600160a01b038381166001600160a01b0319831681179093556040519116919082907f8be0079c531659141344cd1fd0a4f28419497f9722a3daafe3b4186f6b6457e090600090a35050565b634e487b7160e01b600052604160045260246000fd5b600181811c908216806200014657607f821691505b6020821081036200016757634e487b7160e01b600052602260045260246000fd5b50919050565b601f821115620001bd576000816000526020600020601f850160051c81016020861015620001985750805b601f850160051c820191505b81811015620001b957828155600101620001a4565b5050505b505050565b81516001600160401b03811115620001de57620001de6200011b565b620001f681620001ef845462000131565b846200016d565b602080601f8311600181146200022e5760008415620002155750858301515b600019600386901b1c1916600185901b178555620001b9565b600085815260208120601f198616915b828110156200025f578886015182559484019460019091019084016200023e565b50858210156200027e5787850151600019600388901b60f8161c191681555b5050505050600190811b01905550565b611b1c806200029e6000396000f3fe6080604052600436106101ee5760003560e01c80638da5cb5b1161010d578063c4039f6c116100a0578063e38f18f21161006f578063e38f18f21461055a578063e985e9c51461056f578063eb91d37e1461058f578063ec6533e1146105a4578063f2fde38b146105ba57600080fd5b8063c4039f6c146104ef578063c87b56dd14610505578063d5f129ad14610525578063da6329261461053a57600080fd5b8063a6906827116100dc578063a69068271461046a578063b6342d5e146104a0578063b88d4fde146104ba578063bc50c9c1146104da57600080fd5b80638da5cb5b1461040457806395d89b4114610422578063a0712d6814610437578063a22cb4651461044a57600080fd5b80632a55205a1161018557806342842e0e1161015457806342842e0e1461038f5780636352211e146103af57806370a08231146103cf578063715018a6146103ef57600080fd5b80632a55205a146103105780632eb4a7ab1461034f57806331408098146103655780633ccfd60b1461037a57600080fd5b806317d70f7c116101c157806317d70f7c146102a4578063231931bd146102c857806323b872dd146102db5780632660aabc146102fb57600080fd5b806301ffc9a7146101f357806306fdde0314610228578063081812fc1461024a578063095ea7b314610282575b600080fd5b3480156101ff57600080fd5b5061021361020e366004611646565b6105da565b60405190151581526020015b60405180910390f35b34801561023457600080fd5b5061023d610605565b60405161021f91906116b3565b34801561025657600080fd5b5061026a6102653660046116c6565b610697565b6040516001600160a01b03909116815260200161021f565b34801561028e57600080fd5b506102a261029d3660046116fb565b6106c0565b005b3480156102b057600080fd5b506102ba60085481565b60405190815260200161021f565b6102a26102d63660046116c6565b6106cf565b3480156102e757600080fd5b506102a26102f6366004611725565b6108a8565b34801561030757600080fd5b50600a546102ba565b34801561031c57600080fd5b5061033061032b366004611761565b610933565b604080516001600160a01b03909316835260208301919091520161021f565b34801561035b57600080fd5b506102ba60075481565b34801561037157600080fd5b506103e86102ba565b34801561038657600080fd5b506102a261096a565b34801561039b57600080fd5b506102a26103aa366004611725565b610a6e565b3480156103bb57600080fd5b5061026a6103ca3660046116c6565b610a8e565b3480156103db57600080fd5b506102ba6103ea366004611783565b610a99565b3480156103fb57600080fd5b506102a2610ae1565b34801561041057600080fd5b506006546001600160a01b031661026a565b34801561042e57600080fd5b5061023d610af5565b6102a26104453660046116c6565b610b04565b34801561045657600080fd5b506102a261046536600461179e565b610c53565b34801561047657600080fd5b506102ba610485366004611783565b6001600160a01b03166000908152600b602052604090205490565b3480156104ac57600080fd5b5066f52322698080006102ba565b3480156104c657600080fd5b506102a26104d53660046117f0565b610c5e565b3480156104e657600080fd5b506113886102ba565b3480156104fb57600080fd5b506102ba60095481565b34801561051157600080fd5b5061023d6105203660046116c6565b610c75565b34801561053157600080fd5b506009546102ba565b34801561054657600080fd5b506102a26105553660046116fb565b610cdd565b34801561056657600080fd5b506102ba610d16565b34801561057b57600080fd5b5061021361058a3660046118cc565b610db5565b34801561059b57600080fd5b506102ba610de3565b3480156105b057600080fd5b506102ba600a5481565b3480156105c657600080fd5b506102a26105d5366004611783565b610e2b565b60006001600160e01b0319821663152a902d60e11b14806105ff57506105ff82610e69565b92915050565b606060008054610614906118f6565b80601f0160208091040260200160405190810160405280929190818152602001828054610640906118f6565b801561068d5780601f106106625761010080835404028352916020019161068d565b820191906000526020600020905b81548152906001019060200180831161067057829003601f168201915b5050505050905090565b60006106a282610eb9565b506000828152600460205260409020546001600160a01b03166105ff565b6106cb828233610ef2565b5050565b336106e166f523226980800083611946565b34101561072a5760405162461bcd60e51b8152602060048201526012602482015271496e73756666696369656e742066756e647360701b60448201526064015b60405180910390fd5b6103e88260085461073b919061195d565b11156107895760405162461bcd60e51b815260206004820152601c60248201527f4578636565647320746f74616c2056495020737570706c7920636170000000006044820152606401610721565b6001600160a01b0381166000908152600b60205260409020548211156107ea5760405162461bcd60e51b81526020600482015260166024820152754578636565647320564950206d696e742071756f746160501b6044820152606401610721565b6001600160a01b0381166000908152600b602052604081208054849290610812908490611970565b90915550600090505b828110156108605760086000815461083290611983565b90915550600a805460009061084690611983565b90915550600854610858908390610eff565b60010161081b565b50604080518381523460208201526001600160a01b038316917f3a8a89b59a31c39a36febecb987e0657ab7b7c73b60ebacb44dcb9886c2d5c8a910160405180910390a25050565b6001600160a01b0382166108d257604051633250574960e11b815260006004820152602401610721565b60006108df838333610f19565b9050836001600160a01b0316816001600160a01b03161461092d576040516364283d7b60e01b81526001600160a01b0380861660048301526024820184905282166044820152606401610721565b50505050565b6000806109486006546001600160a01b031690565b91506064610957846005611946565b610961919061199c565b90509250929050565b610972611012565b60006109866006546001600160a01b031690565b6001600160a01b03164760405160006040518083038185875af1925050503d80600081146109d0576040519150601f19603f3d011682016040523d82523d6000602084013e6109d5565b606091505b5050905080610a185760405162461bcd60e51b815260206004820152600f60248201526e151c985b9cd9995c8819985a5b1959608a1b6044820152606401610721565b7fa692503bc54c9f1d1483729b6058a24987097ff492084b1a8adf8cae08e4fb43610a4b6006546001600160a01b031690565b604080516001600160a01b0390921682524760208301520160405180910390a150565b610a8983838360405180602001604052806000815250610c5e565b505050565b60006105ff82610eb9565b60006001600160a01b038216610ac5576040516322718ad960e21b815260006004820152602401610721565b506001600160a01b031660009081526003602052604090205490565b610ae9611012565b610af3600061103f565b565b606060018054610614906118f6565b33610b0d610de3565b610b179083611946565b341015610b5b5760405162461bcd60e51b8152602060048201526012602482015271496e73756666696369656e742066756e647360701b6044820152606401610721565b61138882600854610b6c919061195d565b1115610bba5760405162461bcd60e51b815260206004820152601860248201527f4578636565647320746f74616c20737570706c792063617000000000000000006044820152606401610721565b6014821115610c0b5760405162461bcd60e51b815260206004820152601760248201527f45786365656473206d6178206d696e7420616d6f756e740000000000000000006044820152606401610721565b60005b8281101561086057600960008154610c2590611983565b9091555060088054600090610c3990611983565b90915550600854610c4b908390610eff565b600101610c0e565b6106cb338383611091565b610c698484846108a8565b61092d84848484611130565b6060610c8082610eb9565b506000610c8b611259565b90506000815111610cab5760405180602001604052806000815250610cd6565b80610cb584611279565b604051602001610cc69291906119be565b6040516020818303038152906040525b9392505050565b610ce5611012565b6001600160a01b0382166000908152600b602052604081208054839290610d0d90849061195d565b90915550505050565b6000806101f4600954610d29919061195d565b90506113888111610d78576000610d426101f48361199c565b610d4d90600161195d565b9050610d606618de76816d800082611946565b610d719066f8b0a10e47000061195d565b9250505090565b60405162461bcd60e51b815260206004820152601260248201527113585e081cdd5c1c1b1e481c995858da195960721b6044820152606401610721565b6001600160a01b03918216600090815260056020908152604080832093909416825291909152205460ff1690565b6000806101f4600954610df6919061199c565b610e0190600161195d565b9050610e146618de76816d800082611946565b610e259066f8b0a10e47000061195d565b91505090565b610e33611012565b6001600160a01b038116610e5d57604051631e4fbdf760e01b815260006004820152602401610721565b610e668161103f565b50565b60006001600160e01b031982166380ac58cd60e01b1480610e9a57506001600160e01b03198216635b5e139f60e01b145b806105ff57506301ffc9a760e01b6001600160e01b03198316146105ff565b6000818152600260205260408120546001600160a01b0316806105ff57604051637e27328960e01b815260048101849052602401610721565b610a89838383600161130c565b6106cb828260405180602001604052806000815250611412565b6000828152600260205260408120546001600160a01b0390811690831615610f4657610f46818486611429565b6001600160a01b03811615610f8457610f6360008560008061130c565b6001600160a01b038116600090815260036020526040902080546000190190555b6001600160a01b03851615610fb3576001600160a01b0385166000908152600360205260409020805460010190555b60008481526002602052604080822080546001600160a01b0319166001600160a01b0389811691821790925591518793918516917fddf252ad1be2c89b69c2b068fc378daa952ba7f163c4a11628f55a4df523b3ef91a4949350505050565b6006546001600160a01b03163314610af35760405163118cdaa760e01b8152336004820152602401610721565b600680546001600160a01b038381166001600160a01b0319831681179093556040519116919082907f8be0079c531659141344cd1fd0a4f28419497f9722a3daafe3b4186f6b6457e090600090a35050565b6001600160a01b0382166110c357604051630b61174360e31b81526001600160a01b0383166004820152602401610721565b6001600160a01b03838116600081815260056020908152604080832094871680845294825291829020805460ff191686151590811790915591519182527f17307eab39ab6107e8899845ad3d59bd9653f200f220920489ca2b5937696c31910160405180910390a3505050565b6001600160a01b0383163b1561092d57604051630a85bd0160e11b81526001600160a01b0384169063150b7a02906111729033908890879087906004016119ed565b6020604051808303816000875af19250505080156111ad575060408051601f3d908101601f191682019092526111aa91810190611a2a565b60015b611216573d8080156111db576040519150601f19603f3d011682016040523d82523d6000602084013e6111e0565b606091505b50805160000361120e57604051633250574960e11b81526001600160a01b0385166004820152602401610721565b805181602001fd5b6001600160e01b03198116630a85bd0160e11b1461125257604051633250574960e11b81526001600160a01b0385166004820152602401610721565b5050505050565b60606040518060c00160405280609f8152602001611a48609f9139905090565b606060006112868361148d565b600101905060008167ffffffffffffffff8111156112a6576112a66117da565b6040519080825280601f01601f1916602001820160405280156112d0576020820181803683370190505b5090508181016020015b600019016f181899199a1a9b1b9c1cb0b131b232b360811b600a86061a8153600a85049450846112da57509392505050565b808061132057506001600160a01b03821615155b156113e257600061133084610eb9565b90506001600160a01b0383161580159061135c5750826001600160a01b0316816001600160a01b031614155b801561136f575061136d8184610db5565b155b156113985760405163a9fbf51f60e01b81526001600160a01b0384166004820152602401610721565b81156113e05783856001600160a01b0316826001600160a01b03167f8c5be1e5ebec7d5bd14f71427d1e84f3dd0314c0f7b2291e5b200ac8c7c3b92560405160405180910390a45b505b5050600090815260046020526040902080546001600160a01b0319166001600160a01b0392909216919091179055565b61141c8383611565565b610a896000848484611130565b6114348383836115ca565b610a89576001600160a01b03831661146257604051637e27328960e01b815260048101829052602401610721565b60405163177e802f60e01b81526001600160a01b038316600482015260248101829052604401610721565b60008072184f03e93ff9f4daa797ed6e38ed64bf6a1f0160401b83106114cc5772184f03e93ff9f4daa797ed6e38ed64bf6a1f0160401b830492506040015b6d04ee2d6d415b85acef810000000083106114f8576d04ee2d6d415b85acef8100000000830492506020015b662386f26fc10000831061151657662386f26fc10000830492506010015b6305f5e100831061152e576305f5e100830492506008015b612710831061154257612710830492506004015b60648310611554576064830492506002015b600a83106105ff5760010192915050565b6001600160a01b03821661158f57604051633250574960e11b815260006004820152602401610721565b600061159d83836000610f19565b90506001600160a01b03811615610a89576040516339e3563760e11b815260006004820152602401610721565b60006001600160a01b038316158015906116285750826001600160a01b0316846001600160a01b0316148061160457506116048484610db5565b8061162857506000828152600460205260409020546001600160a01b038481169116145b949350505050565b6001600160e01b031981168114610e6657600080fd5b60006020828403121561165857600080fd5b8135610cd681611630565b60005b8381101561167e578181015183820152602001611666565b50506000910152565b6000815180845261169f816020860160208601611663565b601f01601f19169290920160200192915050565b602081526000610cd66020830184611687565b6000602082840312156116d857600080fd5b5035919050565b80356001600160a01b03811681146116f657600080fd5b919050565b6000806040838503121561170e57600080fd5b611717836116df565b946020939093013593505050565b60008060006060848603121561173a57600080fd5b611743846116df565b9250611751602085016116df565b9150604084013590509250925092565b6000806040838503121561177457600080fd5b50508035926020909101359150565b60006020828403121561179557600080fd5b610cd6826116df565b600080604083850312156117b157600080fd5b6117ba836116df565b9150602083013580151581146117cf57600080fd5b809150509250929050565b634e487b7160e01b600052604160045260246000fd5b6000806000806080858703121561180657600080fd5b61180f856116df565b935061181d602086016116df565b925060408501359150606085013567ffffffffffffffff8082111561184157600080fd5b818701915087601f83011261185557600080fd5b813581811115611867576118676117da565b604051601f8201601f19908116603f0116810190838211818310171561188f5761188f6117da565b816040528281528a60208487010111156118a857600080fd5b82602086016020830137600060208483010152809550505050505092959194509250565b600080604083850312156118df57600080fd5b6118e8836116df565b9150610961602084016116df565b600181811c9082168061190a57607f821691505b60208210810361192a57634e487b7160e01b600052602260045260246000fd5b50919050565b634e487b7160e01b600052601160045260246000fd5b80820281158282048414176105ff576105ff611930565b808201808211156105ff576105ff611930565b818103818111156105ff576105ff611930565b60006001820161199557611995611930565b5060010190565b6000826119b957634e487b7160e01b600052601260045260246000fd5b500490565b600083516119d0818460208801611663565b8351908301906119e4818360208801611663565b01949350505050565b6001600160a01b0385811682528416602082015260408101839052608060608201819052600090611a2090830184611687565b9695505050505050565b600060208284031215611a3c57600080fd5b8151610cd68161163056fe68747470733a2f2f6d656469612e6973746f636b70686f746f2e636f6d2f69642f313438363335373539382f70686f746f2f636f617374616c2d62726f776e2d626561722d66697368696e672d696e2d6b61746d61692e6a70673f733d31303234783130323426773d6973266b3d323026633d434458697349314e46706d48346f442d546d575667474366445555756f53396a52755f6b7a7a50436530673da26469706673582212205413283e48738e850b7bffaa7c78f0f9e57f075b50b7e25bf1422c2456104fdb64736f6c63430008180033","linkReferences":{}},"methodIdentifiers":{"approve(address,uint256)":"095ea7b3","balanceOf(address)":"70a08231","getApproved(uint256)":"081812fc","getCurrentPrice()":"eb91d37e","getMintedNFTsCount()":"d5f129ad","getMintedVIPNFTsCount()":"2660aabc","getNextNFTPrice()":"e38f18f2","getTotalNFTCount()":"bc50c9c1","getTotalVIPNFTCount()":"31408098","getVIPMintQuota(address)":"a6906827","getVIPPrice()":"b6342d5e","incrementVIPMintQuota(address,uint256)":"da632926","isApprovedForAll(address,address)":"e985e9c5","merkleRoot()":"2eb4a7ab","mint(uint256)":"a0712d68","mintVIP(uint256)":"231931bd","name()":"06fdde03","owner()":"8da5cb5b","ownerOf(uint256)":"6352211e","renounceOwnership()":"715018a6","royaltyInfo(uint256,uint256)":"2a55205a","safeTransferFrom(address,address,uint256)":"42842e0e","safeTransferFrom(address,address,uint256,bytes)":"b88d4fde","setApprovalForAll(address,bool)":"a22cb465","supportsInterface(bytes4)":"01ffc9a7","symbol()":"95d89b41","tokenCountNormal()":"c4039f6c","tokenCountVIP()":"ec6533e1","tokenId()":"17d70f7c","tokenURI(uint256)":"c87b56dd","transferFrom(address,address,uint256)":"23b872dd","transferOwnership(address)":"f2fde38b","withdraw()":"3ccfd60b"},"id":35}