{"abi":[{"type":"constructor","inputs":[],"stateMutability":"nonpayable"},{"type":"function","name":"approve","inputs":[{"name":"to","type":"address","internalType":"address"},{"name":"tokenId","type":"uint256","internalType":"uint256"}],"outputs":[],"stateMutability":"payable"},{"type":"function","name":"balanceOf","inputs":[{"name":"owner","type":"address","internalType":"address"}],"outputs":[{"name":"","type":"uint256","internalType":"uint256"}],"stateMutability":"view"},{"type":"function","name":"getApproved","inputs":[{"name":"tokenId","type":"uint256","internalType":"uint256"}],"outputs":[{"name":"","type":"address","internalType":"address"}],"stateMutability":"view"},{"type":"function","name":"getCurrentPrice","inputs":[],"outputs":[{"name":"","type":"uint256","internalType":"uint256"}],"stateMutability":"view"},{"type":"function","name":"getMintedNFTsCount","inputs":[],"outputs":[{"name":"","type":"uint256","internalType":"uint256"}],"stateMutability":"view"},{"type":"function","name":"getMintedVIPNFTsCount","inputs":[],"outputs":[{"name":"","type":"uint256","internalType":"uint256"}],"stateMutability":"view"},{"type":"function","name":"getNextNFTPrice","inputs":[],"outputs":[{"name":"","type":"uint256","internalType":"uint256"}],"stateMutability":"view"},{"type":"function","name":"getTotalNFTCount","inputs":[],"outputs":[{"name":"","type":"uint256","internalType":"uint256"}],"stateMutability":"pure"},{"type":"function","name":"getTotalVIPNFTCount","inputs":[],"outputs":[{"name":"","type":"uint256","internalType":"uint256"}],"stateMutability":"pure"},{"type":"function","name":"getVIPMintQuota","inputs":[{"name":"user","type":"address","internalType":"address"}],"outputs":[{"name":"","type":"uint256","internalType":"uint256"}],"stateMutability":"view"},{"type":"function","name":"getVIPPrice","inputs":[],"outputs":[{"name":"","type":"uint256","internalType":"uint256"}],"stateMutability":"pure"},{"type":"function","name":"incrementVIPMintQuota","inputs":[{"name":"user","type":"address","internalType":"address"},{"name":"amount","type":"uint256","internalType":"uint256"}],"outputs":[],"stateMutability":"nonpayable"},{"type":"function","name":"isApprovedForAll","inputs":[{"name":"owner","type":"address","internalType":"address"},{"name":"operator","type":"address","internalType":"address"}],"outputs":[{"name":"","type":"bool","internalType":"bool"}],"stateMutability":"view"},{"type":"function","name":"mint","inputs":[{"name":"amount","type":"uint256","internalType":"uint256"}],"outputs":[],"stateMutability":"payable"},{"type":"function","name":"mintVIP","inputs":[{"name":"amount","type":"uint256","internalType":"uint256"}],"outputs":[],"stateMutability":"payable"},{"type":"function","name":"mintbyKingdomly","inputs":[{"name":"amount","type":"uint256","internalType":"uint256"}],"outputs":[],"stateMutability":"payable"},{"type":"function","name":"name","inputs":[],"outputs":[{"name":"","type":"string","internalType":"string"}],"stateMutability":"view"},{"type":"function","name":"owner","inputs":[],"outputs":[{"name":"","type":"address","internalType":"address"}],"stateMutability":"view"},{"type":"function","name":"ownerOf","inputs":[{"name":"tokenId","type":"uint256","internalType":"uint256"}],"outputs":[{"name":"","type":"address","internalType":"address"}],"stateMutability":"view"},{"type":"function","name":"renounceOwnership","inputs":[],"outputs":[],"stateMutability":"nonpayable"},{"type":"function","name":"royaltyInfo","inputs":[{"name":"","type":"uint256","internalType":"uint256"},{"name":"salePrice","type":"uint256","internalType":"uint256"}],"outputs":[{"name":"receiver","type":"address","internalType":"address"},{"name":"royaltyAmount","type":"uint256","internalType":"uint256"}],"stateMutability":"view"},{"type":"function","name":"safeTransferFrom","inputs":[{"name":"from","type":"address","internalType":"address"},{"name":"to","type":"address","internalType":"address"},{"name":"tokenId","type":"uint256","internalType":"uint256"}],"outputs":[],"stateMutability":"payable"},{"type":"function","name":"safeTransferFrom","inputs":[{"name":"from","type":"address","internalType":"address"},{"name":"to","type":"address","internalType":"address"},{"name":"tokenId","type":"uint256","internalType":"uint256"},{"name":"_data","type":"bytes","internalType":"bytes"}],"outputs":[],"stateMutability":"payable"},{"type":"function","name":"setApprovalForAll","inputs":[{"name":"operator","type":"address","internalType":"address"},{"name":"approved","type":"bool","internalType":"bool"}],"outputs":[],"stateMutability":"nonpayable"},{"type":"function","name":"supportsInterface","inputs":[{"name":"interfaceId","type":"bytes4","internalType":"bytes4"}],"outputs":[{"name":"","type":"bool","internalType":"bool"}],"stateMutability":"view"},{"type":"function","name":"symbol","inputs":[],"outputs":[{"name":"","type":"string","internalType":"string"}],"stateMutability":"view"},{"type":"function","name":"tokenCountNormal","inputs":[],"outputs":[{"name":"","type":"uint256","internalType":"uint256"}],"stateMutability":"view"},{"type":"function","name":"tokenCountVIP","inputs":[],"outputs":[{"name":"","type":"uint256","internalType":"uint256"}],"stateMutability":"view"},{"type":"function","name":"tokenURI","inputs":[{"name":"tokenId","type":"uint256","internalType":"uint256"}],"outputs":[{"name":"","type":"string","internalType":"string"}],"stateMutability":"view"},{"type":"function","name":"totalSupply","inputs":[],"outputs":[{"name":"result","type":"uint256","internalType":"uint256"}],"stateMutability":"view"},{"type":"function","name":"transferFrom","inputs":[{"name":"from","type":"address","internalType":"address"},{"name":"to","type":"address","internalType":"address"},{"name":"tokenId","type":"uint256","internalType":"uint256"}],"outputs":[],"stateMutability":"payable"},{"type":"function","name":"transferOwnership","inputs":[{"name":"newOwner","type":"address","internalType":"address"}],"outputs":[],"stateMutability":"nonpayable"},{"type":"function","name":"withdraw","inputs":[],"outputs":[],"stateMutability":"nonpayable"},{"type":"event","name":"Approval","inputs":[{"name":"owner","type":"address","indexed":true,"internalType":"address"},{"name":"approved","type":"address","indexed":true,"internalType":"address"},{"name":"tokenId","type":"uint256","indexed":true,"internalType":"uint256"}],"anonymous":false},{"type":"event","name":"ApprovalForAll","inputs":[{"name":"owner","type":"address","indexed":true,"internalType":"address"},{"name":"operator","type":"address","indexed":true,"internalType":"address"},{"name":"approved","type":"bool","indexed":false,"internalType":"bool"}],"anonymous":false},{"type":"event","name":"ConsecutiveTransfer","inputs":[{"name":"fromTokenId","type":"uint256","indexed":true,"internalType":"uint256"},{"name":"toTokenId","type":"uint256","indexed":false,"internalType":"uint256"},{"name":"from","type":"address","indexed":true,"internalType":"address"},{"name":"to","type":"address","indexed":true,"internalType":"address"}],"anonymous":false},{"type":"event","name":"FundWithdrawn","inputs":[{"name":"owner","type":"address","indexed":false,"internalType":"address"},{"name":"amount","type":"uint256","indexed":false,"internalType":"uint256"}],"anonymous":false},{"type":"event","name":"NFTMinted","inputs":[{"name":"minter","type":"address","indexed":true,"internalType":"address"},{"name":"amount","type":"uint256","indexed":false,"internalType":"uint256"},{"name":"value","type":"uint256","indexed":false,"internalType":"uint256"}],"anonymous":false},{"type":"event","name":"OwnershipTransferred","inputs":[{"name":"previousOwner","type":"address","indexed":true,"internalType":"address"},{"name":"newOwner","type":"address","indexed":true,"internalType":"address"}],"anonymous":false},{"type":"event","name":"Transfer","inputs":[{"name":"from","type":"address","indexed":true,"internalType":"address"},{"name":"to","type":"address","indexed":true,"internalType":"address"},{"name":"tokenId","type":"uint256","indexed":true,"internalType":"uint256"}],"anonymous":false},{"type":"error","name":"ApprovalCallerNotOwnerNorApproved","inputs":[]},{"type":"error","name":"ApprovalQueryForNonexistentToken","inputs":[]},{"type":"error","name":"BalanceQueryForZeroAddress","inputs":[]},{"type":"error","name":"ExceedsMaxSupply","inputs":[{"name":"requested","type":"uint256","internalType":"uint256"},{"name":"available","type":"uint256","internalType":"uint256"}]},{"type":"error","name":"ExceedsVIPMaxSupply","inputs":[{"name":"requested","type":"uint256","internalType":"uint256"},{"name":"available","type":"uint256","internalType":"uint256"}]},{"type":"error","name":"InsufficientEther","inputs":[{"name":"required","type":"uint256","internalType":"uint256"},{"name":"provided","type":"uint256","internalType":"uint256"}]},{"type":"error","name":"MintERC2309QuantityExceedsLimit","inputs":[]},{"type":"error","name":"MintToZeroAddress","inputs":[]},{"type":"error","name":"MintZeroQuantity","inputs":[]},{"type":"error","name":"NotCompatibleWithSpotMints","inputs":[]},{"type":"error","name":"Overflow","inputs":[]},{"type":"error","name":"OwnableInvalidOwner","inputs":[{"name":"owner","type":"address","internalType":"address"}]},{"type":"error","name":"OwnableUnauthorizedAccount","inputs":[{"name":"account","type":"address","internalType":"address"}]},{"type":"error","name":"OwnerQueryForNonexistentToken","inputs":[]},{"type":"error","name":"OwnershipNotInitializedForExtraData","inputs":[]},{"type":"error","name":"SequentialMintExceedsLimit","inputs":[]},{"type":"error","name":"SequentialUpToTooSmall","inputs":[]},{"type":"error","name":"SpotMintTokenIdTooSmall","inputs":[]},{"type":"error","name":"TokenAlreadyExists","inputs":[]},{"type":"error","name":"TransferCallerNotOwnerNorApproved","inputs":[]},{"type":"error","name":"TransferFromIncorrectOwner","inputs":[]},{"type":"error","name":"TransferToNonERC721ReceiverImplementer","inputs":[]},{"type":"error","name":"TransferToZeroAddress","inputs":[]},{"type":"error","name":"URIQueryForNonexistentToken","inputs":[]}],"bytecode":{"object":"0x60806040523480156200001157600080fd5b50336040518060400160405280600c81526020016b486f6e657947656e6573697360a01b81525060405180604001604052806005815260200164484f4e455960d81b8152508160029081620000679190620001c1565b506003620000768282620001c1565b505060008055506001600160a01b038116620000ac57604051631e4fbdf760e01b81526000600482015260240160405180910390fd5b620000b781620000c8565b506000600a819055600b556200028d565b600980546001600160a01b038381166001600160a01b0319831681179093556040519116919082907f8be0079c531659141344cd1fd0a4f28419497f9722a3daafe3b4186f6b6457e090600090a35050565b634e487b7160e01b600052604160045260246000fd5b600181811c908216806200014557607f821691505b6020821081036200016657634e487b7160e01b600052602260045260246000fd5b50919050565b601f821115620001bc576000816000526020600020601f850160051c81016020861015620001975750805b601f850160051c820191505b81811015620001b857828155600101620001a3565b5050505b505050565b81516001600160401b03811115620001dd57620001dd6200011a565b620001f581620001ee845462000130565b846200016c565b602080601f8311600181146200022d5760008415620002145750858301515b600019600386901b1c1916600185901b178555620001b8565b600085815260208120601f198616915b828110156200025e578886015182559484019460019091019084016200023d565b50858210156200027d5787850151600019600388901b60f8161c191681555b5050505050600190811b01905550565b611ab1806200029d6000396000f3fe6080604052600436106101ee5760003560e01c80638da5cb5b1161010d578063c4039f6c116100a0578063e38f18f21161006f578063e38f18f214610522578063e985e9c514610537578063eb91d37e14610557578063ec6533e11461056c578063f2fde38b1461058257600080fd5b8063c4039f6c146104b7578063c87b56dd146104cd578063d5f129ad146104ed578063da6329261461050257600080fd5b8063a6906827116100dc578063a69068271461043f578063b6342d5e14610475578063b88d4fde1461048f578063bc50c9c1146104a257600080fd5b80638da5cb5b146103d957806395d89b41146103f7578063a0712d681461040c578063a22cb4651461041f57600080fd5b80632660aabc1161018557806342842e0e1161015457806342842e0e146103715780636352211e1461038457806370a08231146103a4578063715018a6146103c457600080fd5b80632660aabc146102f35780632a55205a1461030857806331408098146103475780633ccfd60b1461035c57600080fd5b806318160ddd116101c157806318160ddd146102975780631a0aa6db146102ba578063231931bd146102cd57806323b872dd146102e057600080fd5b806301ffc9a7146101f357806306fdde0314610228578063081812fc1461024a578063095ea7b314610282575b600080fd5b3480156101ff57600080fd5b5061021361020e366004611629565b6105a2565b60405190151581526020015b60405180910390f35b34801561023457600080fd5b5061023d6105cd565b60405161021f9190611696565b34801561025657600080fd5b5061026a6102653660046116a9565b61065f565b6040516001600160a01b03909116815260200161021f565b6102956102903660046116d9565b61069a565b005b3480156102a357600080fd5b50600154600054035b60405190815260200161021f565b6102956102c83660046116a9565b6106aa565b6102956102db3660046116a9565b610875565b6102956102ee366004611703565b610a3b565b3480156102ff57600080fd5b50600b546102ac565b34801561031457600080fd5b5061032861032336600461173f565b610b9c565b604080516001600160a01b03909316835260208301919091520161021f565b34801561035357600080fd5b506103e86102ac565b34801561036857600080fd5b50610295610bd3565b61029561037f366004611703565b610d1a565b34801561039057600080fd5b5061026a61039f3660046116a9565b610d3a565b3480156103b057600080fd5b506102ac6103bf366004611761565b610d45565b3480156103d057600080fd5b50610295610d8b565b3480156103e557600080fd5b506009546001600160a01b031661026a565b34801561040357600080fd5b5061023d610d9f565b61029561041a3660046116a9565b610dae565b34801561042b57600080fd5b5061029561043a36600461177c565b610e85565b34801561044b57600080fd5b506102ac61045a366004611761565b6001600160a01b03166000908152600c602052604090205490565b34801561048157600080fd5b5066f52322698080006102ac565b61029561049d3660046117ce565b610ef1565b3480156104ae57600080fd5b506113886102ac565b3480156104c357600080fd5b506102ac600a5481565b3480156104d957600080fd5b5061023d6104e83660046116a9565b610f2c565b3480156104f957600080fd5b50600a546102ac565b34801561050e57600080fd5b5061029561051d3660046116d9565b610fa7565b34801561052e57600080fd5b506102ac61103f565b34801561054357600080fd5b506102136105523660046118aa565b611086565b34801561056357600080fd5b506102ac6110b4565b34801561057857600080fd5b506102ac600b5481565b34801561058e57600080fd5b5061029561059d366004611761565b6110c6565b60006001600160e01b0319821663152a902d60e11b14806105c757506105c782611104565b92915050565b6060600280546105dc906118d4565b80601f0160208091040260200160405190810160405280929190818152602001828054610608906118d4565b80156106555780601f1061062a57610100808354040283529160200191610655565b820191906000526020600020905b81548152906001019060200180831161063857829003601f168201915b5050505050905090565b600061066a82611152565b61067e5761067e6333d1c03960e21b611197565b506000908152600660205260409020546001600160a01b031690565b6106a6828260016111a1565b5050565b60006106b7600a54611244565b905060006106c58383611924565b905060006106da8466038d7ea4c68000611924565b60646106e7846003611924565b6106f1919061193b565b6106fb919061195d565b90506000610709828461195d565b90508034101561073a5760405163c108422360e01b8152600481018290523460248201526044015b60405180910390fd5b61138885600a5461074b919061195d565b11156107845784600a546113886107629190611970565b60405163adc3cee560e01b815260048101929092526024820152604401610731565b60148511156107cf5760405162461bcd60e51b8152602060048201526017602482015276115e18d959591cc81b585e081b5a5b9d08185b5bdd5b9d604a1b6044820152606401610731565b6107d93386611282565b84600a60008282546107eb919061195d565b90915550506040805186815234602082015233917f3a8a89b59a31c39a36febecb987e0657ab7b7c73b60ebacb44dcb9886c2d5c8a910160405180910390a260006108368234611970565b9050801561086d57604051339082156108fc029083906000818181858888f1935050505015801561086b573d6000803e3d6000fd5b505b505050505050565b33600061088966f523226980800084611924565b9050803410156108b55760405163c108422360e01b815260048101829052346024820152604401610731565b6103e883600b546108c6919061195d565b11156108ff5782600b546103e86108dd9190611970565b604051631b1b5a2360e01b815260048101929092526024820152604401610731565b6001600160a01b0382166000908152600c60205260409020548311156109605760405162461bcd60e51b81526020600482015260166024820152754578636565647320564950206d696e742071756f746160501b6044820152606401610731565b6001600160a01b0382166000908152600c602052604081208054859290610988908490611970565b9091555061099890503384611282565b82600b60008282546109aa919061195d565b9091555050604080518481523460208201526001600160a01b038416917f3a8a89b59a31c39a36febecb987e0657ab7b7c73b60ebacb44dcb9886c2d5c8a910160405180910390a260006109fe8234611970565b90508015610a3557604051339082156108fc029083906000818181858888f19350505050158015610a33573d6000803e3d6000fd5b505b50505050565b6000610a468261129c565b6001600160a01b039485169490915081168414610a6c57610a6c62a1148160e81b611197565b60008281526006602052604090208054338082146001600160a01b03881690911417610ab057610a9c8633611086565b610ab057610ab0632ce44b5f60e11b611197565b8015610abb57600082555b6001600160a01b038681166000908152600560205260408082208054600019019055918716808252919020805460010190554260a01b17600160e11b17600085815260046020526040812091909155600160e11b84169003610b4d57600184016000818152600460205260408120549003610b4b576000548114610b4b5760008181526004602052604090208490555b505b6001600160a01b0385168481887fddf252ad1be2c89b69c2b068fc378daa952ba7f163c4a11628f55a4df523b3ef600080a480600003610b9757610b97633a954ecd60e21b611197565b61086b565b600080610bb16009546001600160a01b031690565b91506064610bc0846005611924565b610bca919061193b565b90509250929050565b610bdb611332565b4780610c205760405162461bcd60e51b81526020600482015260146024820152734e6f2066756e647320746f20776974686472617760601b6044820152606401610731565b7fa692503bc54c9f1d1483729b6058a24987097ff492084b1a8adf8cae08e4fb43610c536009546001600160a01b031690565b604080516001600160a01b039092168252602082018490520160405180910390a16000610c886009546001600160a01b031690565b6001600160a01b03164760405160006040518083038185875af1925050503d8060008114610cd2576040519150601f19603f3d011682016040523d82523d6000602084013e610cd7565b606091505b50509050806106a65760405162461bcd60e51b815260206004820152600f60248201526e151c985b9cd9995c8819985a5b1959608a1b6044820152606401610731565b610d3583838360405180602001604052806000815250610ef1565b505050565b60006105c78261129c565b60006001600160a01b038216610d6557610d656323d3ad8160e21b611197565b506001600160a01b031660009081526005602052604090205467ffffffffffffffff1690565b610d93611332565b610d9d600061135f565b565b6060600380546105dc906118d4565b60003390506000610dc0600a54611244565b610dca9084611924565b905080341015610df65760405163c108422360e01b815260048101829052346024820152604401610731565b61138883600a54610e07919061195d565b1115610e1e5782600a546113886107629190611970565b6014831115610e695760405162461bcd60e51b8152602060048201526017602482015276115e18d959591cc81b585e081b5a5b9d08185b5bdd5b9d604a1b6044820152606401610731565b610e733384611282565b82600a60008282546109aa919061195d565b3360008181526007602090815260408083206001600160a01b03871680855290835292819020805460ff191686151590811790915590519081529192917f17307eab39ab6107e8899845ad3d59bd9653f200f220920489ca2b5937696c31910160405180910390a35050565b610efc848484610a3b565b6001600160a01b0383163b15610a3557610f18848484846113b1565b610a3557610a356368d2bf6b60e11b611197565b6060610f3782611152565b610f4b57610f4b630a14c4b560e41b611197565b6000610f55611493565b90508051600003610f755760405180602001604052806000815250610fa0565b80610f7f846114b3565b604051602001610f90929190611983565b6040516020818303038152906040525b9392505050565b610faf611332565b6103e881600b54610fc0919061195d565b111561100e5760405162461bcd60e51b815260206004820152601c60248201527f4578636565647320746f74616c2056495020737570706c7920636170000000006044820152606401610731565b6001600160a01b0382166000908152600c60205260408120805483929061103690849061195d565b90915550505050565b6000806101f4600a54611052919061195d565b905061138881111561107757604051631a93c68960e11b815260040160405180910390fd5b61108081611244565b91505090565b6001600160a01b03918216600090815260076020908152604080832093909416825291909152205460ff1690565b60006110c1600a54611244565b905090565b6110ce611332565b6001600160a01b0381166110f857604051631e4fbdf760e01b815260006004820152602401610731565b6111018161135f565b50565b60006301ffc9a760e01b6001600160e01b03198316148061113557506380ac58cd60e01b6001600160e01b03198316145b806105c75750506001600160e01b031916635b5e139f60e01b1490565b600080548210156111925760005b506000828152600460205260408120549081900361118857611181836119b2565b9250611160565b600160e01b161590505b919050565b8060005260046000fd5b60006111ac83610d3a565b90508180156111c45750336001600160a01b03821614155b156111e7576111d38133611086565b6111e7576111e76367d9dca160e11b611197565b60008381526006602052604080822080546001600160a01b0319166001600160a01b0388811691821790925591518693918516917f8c5be1e5ebec7d5bd14f71427d1e84f3dd0314c0f7b2291e5b200ac8c7c3b92591a450505050565b6000806112536101f48461193b565b61125e90600161195d565b90506112716618de76816d800082611924565b610fa09066f8b0a10e47000061195d565b6106a68282604051806020016040528060008152506114f7565b6000818152600460205260409020548060000361130f5760005482106112cc576112cc636f96cda160e11b611197565b5b506000190160008181526004602052604090205480156112cd57600160e01b81166000036112fa57919050565b61130a636f96cda160e11b611197565b6112cd565b600160e01b811660000361132257919050565b611192636f96cda160e11b611197565b6009546001600160a01b03163314610d9d5760405163118cdaa760e01b8152336004820152602401610731565b600980546001600160a01b038381166001600160a01b0319831681179093556040519116919082907f8be0079c531659141344cd1fd0a4f28419497f9722a3daafe3b4186f6b6457e090600090a35050565b604051630a85bd0160e11b81526000906001600160a01b0385169063150b7a02906113e69033908990889088906004016119c9565b6020604051808303816000875af1925050508015611421575060408051601f3d908101601f1916820190925261141e91810190611a06565b60015b611476573d80801561144f576040519150601f19603f3d011682016040523d82523d6000602084013e611454565b606091505b50805160000361146e5761146e6368d2bf6b60e11b611197565b805181602001fd5b6001600160e01b031916630a85bd0160e11b149050949350505050565b6060604051806080016040528060588152602001611a2460589139905090565b606060a06040510180604052602081039150506000815280825b600183039250600a81066030018353600a9004806114cd5750819003601f19909101908152919050565b6115018383611554565b6001600160a01b0383163b15610d35576000548281035b61152b60008683806001019450866113b1565b61153f5761153f6368d2bf6b60e11b611197565b818110611518578160005414610a3357600080fd5b60008054908290036115705761157063b562e8dd60e01b611197565b60008181526004602090815260408083206001600160a01b0387164260a01b6001881460e11b178117909155808452600590925282208054680100000000000000018602019055908190036115ce576115ce622e076360e81b611197565b818301825b808360007fddf252ad1be2c89b69c2b068fc378daa952ba7f163c4a11628f55a4df523b3ef600080a48181600101915081036115d3575060005550505050565b6001600160e01b03198116811461110157600080fd5b60006020828403121561163b57600080fd5b8135610fa081611613565b60005b83811015611661578181015183820152602001611649565b50506000910152565b60008151808452611682816020860160208601611646565b601f01601f19169290920160200192915050565b602081526000610fa0602083018461166a565b6000602082840312156116bb57600080fd5b5035919050565b80356001600160a01b038116811461119257600080fd5b600080604083850312156116ec57600080fd5b6116f5836116c2565b946020939093013593505050565b60008060006060848603121561171857600080fd5b611721846116c2565b925061172f602085016116c2565b9150604084013590509250925092565b6000806040838503121561175257600080fd5b50508035926020909101359150565b60006020828403121561177357600080fd5b610fa0826116c2565b6000806040838503121561178f57600080fd5b611798836116c2565b9150602083013580151581146117ad57600080fd5b809150509250929050565b634e487b7160e01b600052604160045260246000fd5b600080600080608085870312156117e457600080fd5b6117ed856116c2565b93506117fb602086016116c2565b925060408501359150606085013567ffffffffffffffff8082111561181f57600080fd5b818701915087601f83011261183357600080fd5b813581811115611845576118456117b8565b604051601f8201601f19908116603f0116810190838211818310171561186d5761186d6117b8565b816040528281528a602084870101111561188657600080fd5b82602086016020830137600060208483010152809550505050505092959194509250565b600080604083850312156118bd57600080fd5b6118c6836116c2565b9150610bca602084016116c2565b600181811c908216806118e857607f821691505b60208210810361190857634e487b7160e01b600052602260045260246000fd5b50919050565b634e487b7160e01b600052601160045260246000fd5b80820281158282048414176105c7576105c761190e565b60008261195857634e487b7160e01b600052601260045260246000fd5b500490565b808201808211156105c7576105c761190e565b818103818111156105c7576105c761190e565b60008351611995818460208801611646565b8351908301906119a9818360208801611646565b01949350505050565b6000816119c1576119c161190e565b506000190190565b6001600160a01b03858116825284166020820152604081018390526080606082018190526000906119fc9083018461166a565b9695505050505050565b600060208284031215611a1857600080fd5b8151610fa08161161356fe68747470733a2f2f6261666b726569666a3276796233733737797261667265796f75706b3467686a6f7971737869716f6f7432776a7a65763574667374706a65716c6d2e697066732e6e667473746f726167652e6c696e6ba2646970667358221220c9685373fb7c66496a4f3a4ceb1703b56e541b63fc3c9f9dac64deb5c86c95ef64736f6c63430008180033","linkReferences":{}},"methodIdentifiers":{"approve(address,uint256)":"095ea7b3","balanceOf(address)":"70a08231","getApproved(uint256)":"081812fc","getCurrentPrice()":"eb91d37e","getMintedNFTsCount()":"d5f129ad","getMintedVIPNFTsCount()":"2660aabc","getNextNFTPrice()":"e38f18f2","getTotalNFTCount()":"bc50c9c1","getTotalVIPNFTCount()":"31408098","getVIPMintQuota(address)":"a6906827","getVIPPrice()":"b6342d5e","incrementVIPMintQuota(address,uint256)":"da632926","isApprovedForAll(address,address)":"e985e9c5","mint(uint256)":"a0712d68","mintVIP(uint256)":"231931bd","mintbyKingdomly(uint256)":"1a0aa6db","name()":"06fdde03","owner()":"8da5cb5b","ownerOf(uint256)":"6352211e","renounceOwnership()":"715018a6","royaltyInfo(uint256,uint256)":"2a55205a","safeTransferFrom(address,address,uint256)":"42842e0e","safeTransferFrom(address,address,uint256,bytes)":"b88d4fde","setApprovalForAll(address,bool)":"a22cb465","supportsInterface(bytes4)":"01ffc9a7","symbol()":"95d89b41","tokenCountNormal()":"c4039f6c","tokenCountVIP()":"ec6533e1","tokenURI(uint256)":"c87b56dd","totalSupply()":"18160ddd","transferFrom(address,address,uint256)":"23b872dd","transferOwnership(address)":"f2fde38b","withdraw()":"3ccfd60b"},"id":27}